{
	"data": {
		"bytecode": {
			"linkReferences": {},
			"object": "6101a06040526101f4600f556064601055606460115534801562000021575f80fd5b506040516200666b3803806200666b833981810160405281019062000047919062000754565b33826040518060400160405280600c81526020017f4b696d626f205363686f6f6c0000000000000000000000000000000000000000815250806040518060400160405280600181526020017f31000000000000000000000000000000000000000000000000000000000000008152506040518060400160405280600c81526020017f4b696d626f205363686f6f6c00000000000000000000000000000000000000008152506040518060400160405280600681526020017f784b696d626f00000000000000000000000000000000000000000000000000008152508160039081620001339190620009fd565b508060049081620001459190620009fd565b5050506200015e600583620003b360201b90919060201c565b61012081815250506200017c600682620003b360201b90919060201c565b6101408181525050818051906020012060e08181525050808051906020012061010081815250504660a08181525050620001bb6200040860201b60201c565b608081815250503073ffffffffffffffffffffffffffffffffffffffff1660c08173ffffffffffffffffffffffffffffffffffffffff16815250505050505f806200020c836200046460201b60201c565b91509150816200021e57601262000220565b805b60ff166101808160ff16815250508273ffffffffffffffffffffffffffffffffffffffff166101608173ffffffffffffffffffffffffffffffffffffffff16815250505050505f73ffffffffffffffffffffffffffffffffffffffff168173ffffffffffffffffffffffffffffffffffffffff1603620002d9575f6040517f1e4fbdf7000000000000000000000000000000000000000000000000000000008152600401620002d0919062000af2565b60405180910390fd5b620002ea816200057760201b60201c565b5080600c5f6101000a81548173ffffffffffffffffffffffffffffffffffffffff021916908373ffffffffffffffffffffffffffffffffffffffff16021790555080600d5f6101000a81548173ffffffffffffffffffffffffffffffffffffffff021916908373ffffffffffffffffffffffffffffffffffffffff16021790555080600e5f6101000a81548173ffffffffffffffffffffffffffffffffffffffff021916908373ffffffffffffffffffffffffffffffffffffffff160217905550505062000d94565b5f602083511015620003d857620003d0836200063a60201b60201c565b905062000402565b82620003ea83620006a460201b60201c565b5f019081620003fa9190620009fd565b5060ff5f1b90505b92915050565b5f7f8b73c3c69bb8fe3d512ecc4cf759cc79239f7b179b0ffacaa9a75d522b39400f60e0516101005146306040516020016200044995949392919062000b38565b60405160208183030381529060405280519060200120905090565b5f805f808473ffffffffffffffffffffffffffffffffffffffff1660405160240160405160208183030381529060405263313ce56760e01b6020820180517bffffffffffffffffffffffffffffffffffffffffffffffffffffffff8381831617835250505050604051620004d9919062000c07565b5f60405180830381855afa9150503d805f811462000513576040519150601f19603f3d011682016040523d82523d5f602084013e62000518565b606091505b50915091508180156200052d57506020815110155b1562000569575f818060200190518101906200054a919062000c4e565b905060ff8016811162000567576001819450945050505062000572565b505b5f809350935050505b915091565b5f600b5f9054906101000a900473ffffffffffffffffffffffffffffffffffffffff16905081600b5f6101000a81548173ffffffffffffffffffffffffffffffffffffffff021916908373ffffffffffffffffffffffffffffffffffffffff1602179055508173ffffffffffffffffffffffffffffffffffffffff168173ffffffffffffffffffffffffffffffffffffffff167f8be0079c531659141344cd1fd0a4f28419497f9722a3daafe3b4186f6b6457e060405160405180910390a35050565b5f80829050601f815111156200068957826040517f305a27a900000000000000000000000000000000000000000000000000000000815260040162000680919062000cde565b60405180910390fd5b805181620006979062000d25565b5f1c175f1b915050919050565b5f819050919050565b5f80fd5b5f73ffffffffffffffffffffffffffffffffffffffff82169050919050565b5f620006dc82620006b1565b9050919050565b5f620006ef82620006d0565b9050919050565b6200070181620006e3565b81146200070c575f80fd5b50565b5f815190506200071f81620006f6565b92915050565b6200073081620006d0565b81146200073b575f80fd5b50565b5f815190506200074e8162000725565b92915050565b5f80604083850312156200076d576200076c620006ad565b5b5f6200077c858286016200070f565b92505060206200078f858286016200073e565b9150509250929050565b5f81519050919050565b7f4e487b71000000000000000000000000000000000000000000000000000000005f52604160045260245ffd5b7f4e487b71000000000000000000000000000000000000000000000000000000005f52602260045260245ffd5b5f60028204905060018216806200081557607f821691505b6020821081036200082b576200082a620007d0565b5b50919050565b5f819050815f5260205f209050919050565b5f6020601f8301049050919050565b5f82821b905092915050565b5f600883026200088f7fffffffffffffffffffffffffffffffffffffffffffffffffffffffffffffffff8262000852565b6200089b868362000852565b95508019841693508086168417925050509392505050565b5f819050919050565b5f819050919050565b5f620008e5620008df620008d984620008b3565b620008bc565b620008b3565b9050919050565b5f819050919050565b6200090083620008c5565b620009186200090f82620008ec565b8484546200085e565b825550505050565b5f90565b6200092e62000920565b6200093b818484620008f5565b505050565b5b818110156200096257620009565f8262000924565b60018101905062000941565b5050565b601f821115620009b1576200097b8162000831565b620009868462000843565b8101602085101562000996578190505b620009ae620009a58562000843565b83018262000940565b50505b505050565b5f82821c905092915050565b5f620009d35f1984600802620009b6565b1980831691505092915050565b5f620009ed8383620009c2565b9150826002028217905092915050565b62000a088262000799565b67ffffffffffffffff81111562000a245762000a23620007a3565b5b62000a308254620007fd565b62000a3d82828562000966565b5f60209050601f83116001811462000a73575f841562000a5e578287015190505b62000a6a8582620009e0565b86555062000ad9565b601f19841662000a838662000831565b5f5b8281101562000aac5784890151825560018201915060208501945060208101905062000a85565b8683101562000acc578489015162000ac8601f891682620009c2565b8355505b6001600288020188555050505b505050505050565b62000aec81620006d0565b82525050565b5f60208201905062000b075f83018462000ae1565b92915050565b5f819050919050565b62000b218162000b0d565b82525050565b62000b3281620008b3565b82525050565b5f60a08201905062000b4d5f83018862000b16565b62000b5c602083018762000b16565b62000b6b604083018662000b16565b62000b7a606083018562000b27565b62000b89608083018462000ae1565b9695505050505050565b5f81519050919050565b5f81905092915050565b5f5b8381101562000bc657808201518184015260208101905062000ba9565b5f8484015250505050565b5f62000bdd8262000b93565b62000be9818562000b9d565b935062000bfb81856020860162000ba7565b80840191505092915050565b5f62000c14828462000bd1565b915081905092915050565b62000c2a81620008b3565b811462000c35575f80fd5b50565b5f8151905062000c488162000c1f565b92915050565b5f6020828403121562000c665762000c65620006ad565b5b5f62000c758482850162000c38565b91505092915050565b5f82825260208201905092915050565b5f601f19601f8301169050919050565b5f62000caa8262000799565b62000cb6818562000c7e565b935062000cc881856020860162000ba7565b62000cd38162000c8e565b840191505092915050565b5f6020820190508181035f83015262000cf8818462000c9e565b905092915050565b5f819050602082019050919050565b5f62000d1c825162000b0d565b80915050919050565b5f62000d318262000b93565b8262000d3d8462000d00565b905062000d4a8162000d0f565b9250602082101562000d8d5762000d887fffffffffffffffffffffffffffffffffffffffffffffffffffffffffffffffff8360200360080262000852565b831692505b5050919050565b60805160a05160c05160e051610100516101205161014051610160516101805161585c62000e0f5f395f610ea701525f8181610bbb01528181610ee601528181612fbb01526132a701525f6124bf01525f61248401525f612b4001525f612b1f01525f611f0c01525f611f6201525f611f8b015261585c5ff3fe608060405234801561000f575f80fd5b5060043610610376575f3560e01c8063861d4281116101d1578063c3cda52011610102578063dd62ed3e116100a0578063f1127ed81161007a578063f1127ed814610b32578063f2fde38b14610b62578063f8b4638b14610b7e578063f9f97c9814610b9c57610376565b8063dd62ed3e14610ab4578063e0f0bd9b14610ae4578063ef8b30f714610b0257610376565b8063ce96cb77116100dc578063ce96cb7714610a1c578063d505accf14610a4c578063d905777e14610a68578063da40390314610a9857610376565b8063c3cda520146109a0578063c63d75b6146109bc578063c6e6f592146109ec57610376565b80639ab24eb01161016f578063b3d7f6b911610149578063b3d7f6b9146108f2578063b460af9414610922578063ba08765214610952578063ba0af7a91461098257610376565b80639ab24eb014610876578063a9059cbb146108a6578063ac4dcb76146108d657610376565b80638e539e8c116101ab5780638e539e8c146107da57806391ddadf41461080a57806394bf804d1461082857806395d89b411461085857610376565b8063861d428114610780578063869155731461079e5780638da5cb5b146107bc57610376565b8063402d267d116102ab5780636e553f6511610249578063715018a611610223578063715018a61461070657806379cc6790146107105780637ecebe001461072c57806384b0196e1461075c57610376565b80636e553f65146106765780636fcfff45146106a657806370a08231146106d657610376565b80634cdad506116102855780634cdad506146105de578063587cde1e1461060e5780635b63b05c1461063e5780635c19a95c1461065a57610376565b8063402d267d1461057457806342966c68146105a45780634bf5d7e9146105c057610376565b80631fc6456b11610318578063313ce567116102f2578063313ce567146104ea5780633644e5151461050857806338d52e0f146105265780633a46b1a81461054457610376565b80631fc6456b1461048257806321c111d61461049e57806323b872dd146104ba57610376565b8063095ea7b311610354578063095ea7b3146103e65780630a28a4771461041657806318160ddd14610446578063183767da1461046457610376565b806301e1d1141461037a57806306fdde031461039857806307a2d13a146103b6575b5f80fd5b610382610bb8565b60405161038f919061453e565b60405180910390f35b6103a0610c56565b6040516103ad91906145e1565b60405180910390f35b6103d060048036038101906103cb919061462f565b610ce6565b6040516103dd919061453e565b60405180910390f35b61040060048036038101906103fb91906146b4565b610cf8565b60405161040d919061470c565b60405180910390f35b610430600480360381019061042b919061462f565b610d1a565b60405161043d919061453e565b60405180910390f35b61044e610d4b565b60405161045b919061453e565b60405180910390f35b61046c610d54565b604051610479919061453e565b60405180910390f35b61049c60048036038101906104979190614725565b610d5a565b005b6104b860048036038101906104b3919061462f565b610da5565b005b6104d460048036038101906104cf9190614750565b610e08565b6040516104e1919061470c565b60405180910390f35b6104f2610e9c565b6040516104ff91906147bb565b60405180910390f35b610510610ed5565b60405161051d91906147ec565b60405180910390f35b61052e610ee3565b60405161053b9190614814565b60405180910390f35b61055e600480360381019061055991906146b4565b610f0a565b60405161056b919061453e565b60405180910390f35b61058e60048036038101906105899190614725565b610fe0565b60405161059b919061453e565b60405180910390f35b6105be60048036038101906105b9919061462f565b611009565b005b6105c861101d565b6040516105d591906145e1565b60405180910390f35b6105f860048036038101906105f3919061462f565b6110b1565b604051610605919061453e565b60405180910390f35b61062860048036038101906106239190614725565b6110e2565b6040516106359190614814565b60405180910390f35b6106586004803603810190610653919061462f565b611147565b005b610674600480360381019061066f9190614725565b6111aa565b005b610690600480360381019061068b919061482d565b6111c3565b60405161069d919061453e565b60405180910390f35b6106c060048036038101906106bb9190614725565b611242565b6040516106cd9190614889565b60405180910390f35b6106f060048036038101906106eb9190614725565b611253565b6040516106fd919061453e565b60405180910390f35b61070e611298565b005b61072a600480360381019061072591906146b4565b6112ab565b005b61074660048036038101906107419190614725565b6112cb565b604051610753919061453e565b60405180910390f35b6107646112dc565b6040516107779796959493929190614993565b60405180910390f35b610788611381565b6040516107959190614a35565b60405180910390f35b6107a66113a6565b6040516107b3919061453e565b60405180910390f35b6107c46113ac565b6040516107d19190614814565b60405180910390f35b6107f460048036038101906107ef919061462f565b6113d4565b604051610801919061453e565b60405180910390f35b61081261146e565b60405161081f9190614a6e565b60405180910390f35b610842600480360381019061083d919061482d565b61147c565b60405161084f919061453e565b60405180910390f35b6108606114fb565b60405161086d91906145e1565b60405180910390f35b610890600480360381019061088b9190614725565b61158b565b60405161089d919061453e565b60405180910390f35b6108c060048036038101906108bb91906146b4565b6115f4565b6040516108cd919061470c565b60405180910390f35b6108f060048036038101906108eb9190614725565b611685565b005b61090c6004803603810190610907919061462f565b6116d0565b604051610919919061453e565b60405180910390f35b61093c60048036038101906109379190614a87565b611701565b604051610949919061453e565b60405180910390f35b61096c60048036038101906109679190614a87565b611782565b604051610979919061453e565b60405180910390f35b61098a611803565b604051610997919061453e565b60405180910390f35b6109ba60048036038101906109b59190614b2b565b611809565b005b6109d660048036038101906109d19190614725565b6118ce565b6040516109e3919061453e565b60405180910390f35b610a066004803603810190610a01919061462f565b6118f7565b604051610a13919061453e565b60405180910390f35b610a366004803603810190610a319190614725565b611909565b604051610a43919061453e565b60405180910390f35b610a666004803603810190610a619190614bb4565b611923565b005b610a826004803603810190610a7d9190614725565b611a68565b604051610a8f919061453e565b60405180910390f35b610ab26004803603810190610aad919061462f565b611a79565b005b610ace6004803603810190610ac99190614c51565b611adc565b604051610adb919061453e565b60405180910390f35b610aec611b5e565b604051610af99190614a35565b60405180910390f35b610b1c6004803603810190610b17919061462f565b611b83565b604051610b29919061453e565b60405180910390f35b610b4c6004803603810190610b479190614cb9565b611bb4565b604051610b599190614d67565b60405180910390f35b610b7c6004803603810190610b779190614725565b611bce565b005b610b86611c52565b604051610b939190614a35565b60405180910390f35b610bb66004803603810190610bb19190614725565b611c77565b005b5f7f000000000000000000000000000000000000000000000000000000000000000073ffffffffffffffffffffffffffffffffffffffff166370a08231306040518263ffffffff1660e01b8152600401610c129190614814565b602060405180830381865afa158015610c2d573d5f803e3d5ffd5b505050506040513d601f19601f82011682018060405250810190610c519190614d94565b905090565b606060038054610c6590614dec565b80601f0160208091040260200160405190810160405280929190818152602001828054610c9190614dec565b8015610cdc5780601f10610cb357610100808354040283529160200191610cdc565b820191905f5260205f20905b815481529060010190602001808311610cbf57829003601f168201915b5050505050905090565b5f610cf1825f611cc2565b9050919050565b5f80610d02611d1a565b9050610d0f818585611d21565b600191505092915050565b5f80610d2d83610d28611d33565b611d3c565b9050610d438184610d3e9190614e49565b611d5f565b915050919050565b5f600254905090565b60115481565b610d62611d72565b80600c5f6101000a81548173ffffffffffffffffffffffffffffffffffffffff021916908373ffffffffffffffffffffffffffffffffffffffff16021790555050565b610dad611d72565b5f8110158015610dbf57506101f48111155b610dfe576040517f08c379a0000000000000000000000000000000000000000000000000000000008152600401610df590614ec6565b60405180910390fd5b80600f8190555050565b5f80610e1b83610e16611df9565b611e02565b90505f610e26611e30565b90505f821115610e7b57610e3b868284611e58565b503073ffffffffffffffffffffffffffffffffffffffff168173ffffffffffffffffffffffffffffffffffffffff1603610e7a57610e798183611e86565b5b5b610e9186868487610e8c9190614ee4565b611e58565b925050509392505050565b5f610ea5611f05565b7f0000000000000000000000000000000000000000000000000000000000000000610ed09190614f17565b905090565b5f610ede611f09565b905090565b5f7f0000000000000000000000000000000000000000000000000000000000000000905090565b5f80610f1461146e565b90508065ffffffffffff168310610f645782816040517fecd3f81e000000000000000000000000000000000000000000000000000000008152600401610f5b929190614f4b565b60405180910390fd5b610fbb610f7084611fbf565b60095f8773ffffffffffffffffffffffffffffffffffffffff1673ffffffffffffffffffffffffffffffffffffffff1681526020019081526020015f2061201890919063ffffffff16565b79ffffffffffffffffffffffffffffffffffffffffffffffffffff1691505092915050565b5f7fffffffffffffffffffffffffffffffffffffffffffffffffffffffffffffffff9050919050565b61101a611014611d1a565b82611e86565b50565b6060611027612105565b65ffffffffffff1661103761146e565b65ffffffffffff1614611076576040517f6ff0714000000000000000000000000000000000000000000000000000000000815260040160405180910390fd5b6040518060400160405280601d81526020017f6d6f64653d626c6f636b6e756d6265722666726f6d3d64656661756c74000000815250905090565b5f806110bc83612114565b90506110cf816110ca611d33565b611e02565b816110da9190614ee4565b915050919050565b5f60085f8373ffffffffffffffffffffffffffffffffffffffff1673ffffffffffffffffffffffffffffffffffffffff1681526020019081526020015f205f9054906101000a900473ffffffffffffffffffffffffffffffffffffffff169050919050565b61114f611d72565b5f811015801561116157506101f48111155b6111a0576040517f08c379a000000000000000000000000000000000000000000000000000000000815260040161119790614ec6565b60405180910390fd5b8060108190555050565b5f6111b3611d1a565b90506111bf8183612126565b5050565b5f6111cd82610fe0565b83111561120f576040517f08c379a000000000000000000000000000000000000000000000000000000000815260040161120690614fbc565b60405180910390fd5b5f61121984611b83565b905061122e611226611d1a565b848684612236565b61123884826122bc565b8091505092915050565b5f61124c826122c0565b9050919050565b5f805f8373ffffffffffffffffffffffffffffffffffffffff1673ffffffffffffffffffffffffffffffffffffffff1681526020019081526020015f20549050919050565b6112a0611d72565b6112a95f612315565b565b6112bd826112b7611d1a565b836123d8565b6112c78282611e86565b5050565b5f6112d58261246a565b9050919050565b5f6060805f805f60606112ed61247b565b6112f56124b6565b46305f801b5f67ffffffffffffffff81111561131457611313614fda565b5b6040519080825280602002602001820160405280156113425781602001602082028036833780820191505090505b507f0f00000000000000000000000000000000000000000000000000000000000000959493929190965096509650965096509650965090919293949596565b600c5f9054906101000a900473ffffffffffffffffffffffffffffffffffffffff1681565b60105481565b5f600b5f9054906101000a900473ffffffffffffffffffffffffffffffffffffffff16905090565b5f806113de61146e565b90508065ffffffffffff16831061142e5782816040517fecd3f81e000000000000000000000000000000000000000000000000000000008152600401611425929190614f4b565b60405180910390fd5b61144a61143a84611fbf565b600a61201890919063ffffffff16565b79ffffffffffffffffffffffffffffffffffffffffffffffffffff16915050919050565b5f611477612105565b905090565b5f611486826118ce565b8311156114c8576040517f08c379a00000000000000000000000000000000000000000000000000000000081526004016114bf90615051565b60405180910390fd5b5f6114d2846116d0565b90506114e76114df611d1a565b848387612236565b6114f181856122bc565b8091505092915050565b60606004805461150a90614dec565b80601f016020809104026020016040519081016040528092919081815260200182805461153690614dec565b80156115815780601f1061155857610100808354040283529160200191611581565b820191905f5260205f20905b81548152906001019060200180831161156457829003601f168201915b5050505050905090565b5f6115d160095f8473ffffffffffffffffffffffffffffffffffffffff1673ffffffffffffffffffffffffffffffffffffffff1681526020019081526020015f206124f1565b79ffffffffffffffffffffffffffffffffffffffffffffffffffff169050919050565b5f8061160783611602611df9565b611e02565b90505f611612611e30565b90505f821115611666576116268183612553565b503073ffffffffffffffffffffffffffffffffffffffff168173ffffffffffffffffffffffffffffffffffffffff1603611665576116648183611e86565b5b5b61167b8583866116769190614ee4565b612553565b9250505092915050565b61168d611d72565b80600e5f6101000a81548173ffffffffffffffffffffffffffffffffffffffff021916908373ffffffffffffffffffffffffffffffffffffffff16021790555050565b5f806116db83612575565b90506116ee816116e9612588565b611d3c565b816116f99190614e49565b915050919050565b5f61170b82611909565b84111561174d576040517f08c379a0000000000000000000000000000000000000000000000000000000008152600401611744906150b9565b60405180910390fd5b5f61175785610d1a565b90506117638582612591565b61177761176e611d1a565b85858885612595565b809150509392505050565b5f61178c82611a68565b8411156117ce576040517f08c379a00000000000000000000000000000000000000000000000000000000081526004016117c590615121565b60405180910390fd5b5f6117d8856110b1565b90506117e48186612591565b6117f86117ef611d1a565b85858489612595565b809150509392505050565b600f5481565b8342111561184e57836040517f4683af0e000000000000000000000000000000000000000000000000000000008152600401611845919061453e565b60405180910390fd5b5f6118af6118a77fe48329057bfd03d55e49b547132e39cffd9c1820ad7b9d4c5307691425d15adf89898960405160200161188c949392919061513f565b6040516020818303038152906040528051906020012061261d565b858585612636565b90506118bb8187612664565b6118c58188612126565b50505050505050565b5f7fffffffffffffffffffffffffffffffffffffffffffffffffffffffffffffffff9050919050565b5f611902825f6126bb565b9050919050565b5f61191c61191683611253565b5f611cc2565b9050919050565b8342111561196857836040517f6279130200000000000000000000000000000000000000000000000000000000815260040161195f919061453e565b60405180910390fd5b5f7f6e71edae12b1b97f4d1f60370fef10105fa2faae0126114a169c64845d6126c98888886119968c612713565b896040516020016119ac96959493929190615182565b6040516020818303038152906040528051906020012090505f6119ce8261261d565b90505f6119dd82878787612636565b90508973ffffffffffffffffffffffffffffffffffffffff168173ffffffffffffffffffffffffffffffffffffffff1614611a5157808a6040517f4b800e46000000000000000000000000000000000000000000000000000000008152600401611a489291906151e1565b60405180910390fd5b611a5c8a8a8a611d21565b50505050505050505050565b5f611a7282611253565b9050919050565b611a81611d72565b5f8110158015611a9357506101f48111155b611ad2576040517f08c379a0000000000000000000000000000000000000000000000000000000008152600401611ac990614ec6565b60405180910390fd5b8060118190555050565b5f60015f8473ffffffffffffffffffffffffffffffffffffffff1673ffffffffffffffffffffffffffffffffffffffff1681526020019081526020015f205f8373ffffffffffffffffffffffffffffffffffffffff1673ffffffffffffffffffffffffffffffffffffffff1681526020019081526020015f2054905092915050565b600e5f9054906101000a900473ffffffffffffffffffffffffffffffffffffffff1681565b5f80611b9683611b91612588565b611e02565b9050611bac8184611ba79190614ee4565b612766565b915050919050565b611bbc6144ea565b611bc68383612778565b905092915050565b611bd6611d72565b5f73ffffffffffffffffffffffffffffffffffffffff168173ffffffffffffffffffffffffffffffffffffffff1603611c46575f6040517f1e4fbdf7000000000000000000000000000000000000000000000000000000008152600401611c3d9190614814565b60405180910390fd5b611c4f81612315565b50565b600d5f9054906101000a900473ffffffffffffffffffffffffffffffffffffffff1681565b611c7f611d72565b80600d5f6101000a81548173ffffffffffffffffffffffffffffffffffffffff021916908373ffffffffffffffffffffffffffffffffffffffff16021790555050565b5f611d126001611cd0610bb8565b611cda9190614e49565b611ce2611f05565b600a611cee9190615337565b611cf6610d4b565b611d009190614e49565b84866127d7909392919063ffffffff16565b905092915050565b5f33905090565b611d2e838383600161282c565b505050565b5f601054905090565b5f611d57826127106001866127d7909392919063ffffffff16565b905092915050565b5f611d6b8260016126bb565b9050919050565b611d7a611d1a565b73ffffffffffffffffffffffffffffffffffffffff16611d986113ac565b73ffffffffffffffffffffffffffffffffffffffff1614611df757611dbb611d1a565b6040517f118cdaa7000000000000000000000000000000000000000000000000000000008152600401611dee9190614814565b60405180910390fd5b565b5f601154905090565b5f611e288261271084611e159190614e49565b6001866127d7909392919063ffffffff16565b905092915050565b5f600e5f9054906101000a900473ffffffffffffffffffffffffffffffffffffffff16905090565b5f80611e62611d1a565b9050611e6f8582856123d8565b611e7a8585856129fb565b60019150509392505050565b5f73ffffffffffffffffffffffffffffffffffffffff168273ffffffffffffffffffffffffffffffffffffffff1603611ef6575f6040517f96c6fd1e000000000000000000000000000000000000000000000000000000008152600401611eed9190614814565b60405180910390fd5b611f01825f83612aeb565b5050565b5f90565b5f7f000000000000000000000000000000000000000000000000000000000000000073ffffffffffffffffffffffffffffffffffffffff163073ffffffffffffffffffffffffffffffffffffffff16148015611f8457507f000000000000000000000000000000000000000000000000000000000000000046145b15611fb1577f00000000000000000000000000000000000000000000000000000000000000009050611fbc565b611fb9612afb565b90505b90565b5f65ffffffffffff8016821115612010576030826040517f6dfcc6500000000000000000000000000000000000000000000000000000000081526004016120079291906153c3565b60405180910390fd5b819050919050565b5f80835f018054905090505f808290506005831115612099575f61203b84612b90565b846120469190614ee4565b9050612054875f0182612c86565b5f015f9054906101000a900465ffffffffffff1665ffffffffffff168665ffffffffffff16101561208757809150612097565b6001816120949190614e49565b92505b505b5f6120a8875f01878585612c98565b90505f81146120f7576120c9875f016001836120c49190614ee4565b612c86565b5f0160069054906101000a900479ffffffffffffffffffffffffffffffffffffffffffffffffffff166120f9565b5f5b94505050505092915050565b5f61210f43611fbf565b905090565b5f61211f825f611cc2565b9050919050565b5f612130836110e2565b90508160085f8573ffffffffffffffffffffffffffffffffffffffff1673ffffffffffffffffffffffffffffffffffffffff1681526020019081526020015f205f6101000a81548173ffffffffffffffffffffffffffffffffffffffff021916908373ffffffffffffffffffffffffffffffffffffffff1602179055508173ffffffffffffffffffffffffffffffffffffffff168173ffffffffffffffffffffffffffffffffffffffff168473ffffffffffffffffffffffffffffffffffffffff167f3134e8a2e6d97e929a7e54011ea5485d7d196dd5f0ba4d4ef95803e8e3fc257f60405160405180910390a4612231818361222c86612d0d565b612d1e565b505050565b5f61224883612243612588565b611e02565b90505f612253612f8e565b905061226186868686612fb6565b5f8211801561229c57503073ffffffffffffffffffffffffffffffffffffffff168173ffffffffffffffffffffffffffffffffffffffff1614155b156122b4576122b36122ac610ee3565b8284613059565b5b505050505050565b5050565b5f61230e61230960095f8573ffffffffffffffffffffffffffffffffffffffff1673ffffffffffffffffffffffffffffffffffffffff1681526020019081526020015f206130d8565b6130e7565b9050919050565b5f600b5f9054906101000a900473ffffffffffffffffffffffffffffffffffffffff16905081600b5f6101000a81548173ffffffffffffffffffffffffffffffffffffffff021916908373ffffffffffffffffffffffffffffffffffffffff1602179055508173ffffffffffffffffffffffffffffffffffffffff168173ffffffffffffffffffffffffffffffffffffffff167f8be0079c531659141344cd1fd0a4f28419497f9722a3daafe3b4186f6b6457e060405160405180910390a35050565b5f6123e38484611adc565b90507fffffffffffffffffffffffffffffffffffffffffffffffffffffffffffffffff81146124645781811015612455578281836040517ffb8f41b200000000000000000000000000000000000000000000000000000000815260040161244c939291906153ea565b60405180910390fd5b61246384848484035f61282c565b5b50505050565b5f6124748261313e565b9050919050565b60606124b160057f000000000000000000000000000000000000000000000000000000000000000061318490919063ffffffff16565b905090565b60606124ec60067f000000000000000000000000000000000000000000000000000000000000000061318490919063ffffffff16565b905090565b5f80825f018054905090505f81146125495761251b835f016001836125169190614ee4565b612c86565b5f0160069054906101000a900479ffffffffffffffffffffffffffffffffffffffffffffffffffff1661254b565b5f5b915050919050565b5f8061255d611d1a565b905061256a8185856129fb565b600191505092915050565b5f612581826001611cc2565b9050919050565b5f600f54905090565b5050565b5f6125a7836125a2611d33565b611d3c565b90505f6125b2613231565b90506125c18787878787613259565b5f821180156125fc57503073ffffffffffffffffffffffffffffffffffffffff168173ffffffffffffffffffffffffffffffffffffffff1614155b156126145761261361260c610ee3565b8284613059565b5b50505050505050565b5f61262f612629611f09565b83613352565b9050919050565b5f805f8061264688888888613392565b9250925092506126568282613479565b829350505050949350505050565b5f61266e83612713565b90508082146126b65782816040517f752d88c00000000000000000000000000000000000000000000000000000000081526004016126ad92919061541f565b60405180910390fd5b505050565b5f61270b6126c7611f05565b600a6126d39190615337565b6126db610d4b565b6126e59190614e49565b60016126ef610bb8565b6126f99190614e49565b84866127d7909392919063ffffffff16565b905092915050565b5f60075f8373ffffffffffffffffffffffffffffffffffffffff1673ffffffffffffffffffffffffffffffffffffffff1681526020019081526020015f205f815480929190600101919050559050919050565b5f612771825f6126bb565b9050919050565b6127806144ea565b6127cf8260095f8673ffffffffffffffffffffffffffffffffffffffff1673ffffffffffffffffffffffffffffffffffffffff1681526020019081526020015f206135db90919063ffffffff16565b905092915050565b5f806127e48686866136aa565b90506127ef836137a9565b801561280b57505f848061280657612805615446565b5b868809115b156128205760018161281d9190614e49565b90505b80915050949350505050565b5f73ffffffffffffffffffffffffffffffffffffffff168473ffffffffffffffffffffffffffffffffffffffff160361289c575f6040517fe602df050000000000000000000000000000000000000000000000000000000081526004016128939190614814565b60405180910390fd5b5f73ffffffffffffffffffffffffffffffffffffffff168373ffffffffffffffffffffffffffffffffffffffff160361290c575f6040517f94280d620000000000000000000000000000000000000000000000000000000081526004016129039190614814565b60405180910390fd5b8160015f8673ffffffffffffffffffffffffffffffffffffffff1673ffffffffffffffffffffffffffffffffffffffff1681526020019081526020015f205f8573ffffffffffffffffffffffffffffffffffffffff1673ffffffffffffffffffffffffffffffffffffffff1681526020019081526020015f208190555080156129f5578273ffffffffffffffffffffffffffffffffffffffff168473ffffffffffffffffffffffffffffffffffffffff167f8c5be1e5ebec7d5bd14f71427d1e84f3dd0314c0f7b2291e5b200ac8c7c3b925846040516129ec919061453e565b60405180910390a35b50505050565b5f73ffffffffffffffffffffffffffffffffffffffff168373ffffffffffffffffffffffffffffffffffffffff1603612a6b575f6040517f96c6fd1e000000000000000000000000000000000000000000000000000000008152600401612a629190614814565b60405180910390fd5b5f73ffffffffffffffffffffffffffffffffffffffff168273ffffffffffffffffffffffffffffffffffffffff1603612adb575f6040517fec442f05000000000000000000000000000000000000000000000000000000008152600401612ad29190614814565b60405180910390fd5b612ae6838383612aeb565b505050565b612af68383836137d6565b505050565b5f7f8b73c3c69bb8fe3d512ecc4cf759cc79239f7b179b0ffacaa9a75d522b39400f7f00000000000000000000000000000000000000000000000000000000000000007f00000000000000000000000000000000000000000000000000000000000000004630604051602001612b75959493929190615473565b60405160208183030381529060405280519060200120905090565b5f808203612ba0575f9050612c81565b5f6001612bac84613884565b901c6001901b90506001818481612bc657612bc5615446565b5b048201901c90506001818481612bdf57612bde615446565b5b048201901c90506001818481612bf857612bf7615446565b5b048201901c90506001818481612c1157612c10615446565b5b048201901c90506001818481612c2a57612c29615446565b5b048201901c90506001818481612c4357612c42615446565b5b048201901c90506001818481612c5c57612c5b615446565b5b048201901c9050612c7d81828581612c7757612c76615446565b5b0461395b565b9150505b919050565b5f825f528160205f2001905092915050565b5f5b81831015612d02575f612cad8484613973565b90508465ffffffffffff16612cc28783612c86565b5f015f9054906101000a900465ffffffffffff1665ffffffffffff161115612cec57809250612cfc565b600181612cf99190614e49565b93505b50612c9a565b819050949350505050565b5f612d1782611253565b9050919050565b8173ffffffffffffffffffffffffffffffffffffffff168373ffffffffffffffffffffffffffffffffffffffff1614158015612d5957505f81115b15612f89575f73ffffffffffffffffffffffffffffffffffffffff168373ffffffffffffffffffffffffffffffffffffffff1614612e73575f80612de460095f8773ffffffffffffffffffffffffffffffffffffffff1673ffffffffffffffffffffffffffffffffffffffff1681526020019081526020015f20613998612ddf866139ad565b613a1a565b79ffffffffffffffffffffffffffffffffffffffffffffffffffff16915079ffffffffffffffffffffffffffffffffffffffffffffffffffff1691508473ffffffffffffffffffffffffffffffffffffffff167fdec2bacdd2f05b59de34da9b523dff8be42e5e38e818c82fdb0bae774387a7248383604051612e689291906154c4565b60405180910390a250505b5f73ffffffffffffffffffffffffffffffffffffffff168273ffffffffffffffffffffffffffffffffffffffff1614612f88575f80612ef960095f8673ffffffffffffffffffffffffffffffffffffffff1673ffffffffffffffffffffffffffffffffffffffff1681526020019081526020015f20613a59612ef4866139ad565b613a1a565b79ffffffffffffffffffffffffffffffffffffffffffffffffffff16915079ffffffffffffffffffffffffffffffffffffffffffffffffffff1691508373ffffffffffffffffffffffffffffffffffffffff167fdec2bacdd2f05b59de34da9b523dff8be42e5e38e818c82fdb0bae774387a7248383604051612f7d9291906154c4565b60405180910390a250505b5b505050565b5f600c5f9054906101000a900473ffffffffffffffffffffffffffffffffffffffff16905090565b612fe27f0000000000000000000000000000000000000000000000000000000000000000853085613a6e565b612fec8382613af0565b8273ffffffffffffffffffffffffffffffffffffffff168473ffffffffffffffffffffffffffffffffffffffff167fdcbc1c05240f31ff3ad067ef1ee35ce4997762752e3a095284754544f4c709d7848460405161304b9291906154c4565b60405180910390a350505050565b6130d3838473ffffffffffffffffffffffffffffffffffffffff1663a9059cbb858560405160240161308c92919061541f565b604051602081830303815290604052915060e01b6020820180517bffffffffffffffffffffffffffffffffffffffffffffffffffffffff8381831617835250505050613b6f565b505050565b5f815f01805490509050919050565b5f63ffffffff8016821115613136576020826040517f6dfcc65000000000000000000000000000000000000000000000000000000000815260040161312d929190615524565b60405180910390fd5b819050919050565b5f60075f8373ffffffffffffffffffffffffffffffffffffffff1673ffffffffffffffffffffffffffffffffffffffff1681526020019081526020015f20549050919050565b606060ff5f1b83146131a05761319983613c04565b905061322b565b8180546131ac90614dec565b80601f01602080910402602001604051908101604052809291908181526020018280546131d890614dec565b80156132235780601f106131fa57610100808354040283529160200191613223565b820191905f5260205f20905b81548152906001019060200180831161320657829003601f168201915b505050505090505b92915050565b5f600d5f9054906101000a900473ffffffffffffffffffffffffffffffffffffffff16905090565b8273ffffffffffffffffffffffffffffffffffffffff168573ffffffffffffffffffffffffffffffffffffffff1614613298576132978386836123d8565b5b6132a28382611e86565b6132cd7f00000000000000000000000000000000000000000000000000000000000000008584613059565b8273ffffffffffffffffffffffffffffffffffffffff168473ffffffffffffffffffffffffffffffffffffffff168673ffffffffffffffffffffffffffffffffffffffff167ffbde797d201c681b91056529119e0b02407c7bb96a4a2c75c01fc9667232c8db85856040516133439291906154c4565b60405180910390a45050505050565b5f6040517f190100000000000000000000000000000000000000000000000000000000000081528360028201528260228201526042812091505092915050565b5f805f7f7fffffffffffffffffffffffffffffff5d576e7357a4501ddfe92f46681b20a0845f1c11156133ce575f60038592509250925061346f565b5f6001888888886040515f81526020016040526040516133f1949392919061554b565b6020604051602081039080840390855afa158015613411573d5f803e3d5ffd5b5050506020604051035190505f73ffffffffffffffffffffffffffffffffffffffff168173ffffffffffffffffffffffffffffffffffffffff1603613462575f60015f801b9350935093505061346f565b805f805f1b935093509350505b9450945094915050565b5f600381111561348c5761348b61558e565b5b82600381111561349f5761349e61558e565b5b03156135d757600160038111156134b9576134b861558e565b5b8260038111156134cc576134cb61558e565b5b03613503576040517ff645eedf00000000000000000000000000000000000000000000000000000000815260040160405180910390fd5b600260038111156135175761351661558e565b5b82600381111561352a5761352961558e565b5b0361356e57805f1c6040517ffce698f7000000000000000000000000000000000000000000000000000000008152600401613565919061453e565b60405180910390fd5b6003808111156135815761358061558e565b5b8260038111156135945761359361558e565b5b036135d657806040517fd78bce0c0000000000000000000000000000000000000000000000000000000081526004016135cd91906147ec565b60405180910390fd5b5b5050565b6135e36144ea565b825f018263ffffffff16815481106135fe576135fd6155bb565b5b905f5260205f20016040518060400160405290815f82015f9054906101000a900465ffffffffffff1665ffffffffffff1665ffffffffffff1681526020015f820160069054906101000a900479ffffffffffffffffffffffffffffffffffffffffffffffffffff1679ffffffffffffffffffffffffffffffffffffffffffffffffffff1679ffffffffffffffffffffffffffffffffffffffffffffffffffff1681525050905092915050565b5f8083850290505f8019858709828110838203039150505f81036136e2578382816136d8576136d7615446565b5b04925050506137a2565b80841161371b576040517f227bc15300000000000000000000000000000000000000000000000000000000815260040160405180910390fd5b5f8486880990508281118203915080830392505f855f038616905080860495508084049350600181825f0304019050808302841793505f600287600302189050808702600203810290508087026002038102905080870260020381029050808702600203810290508087026002038102905080870260020381029050808502955050505050505b9392505050565b5f600160028360038111156137c1576137c061558e565b5b6137cb91906155e8565b60ff16149050919050565b6137e1838383613c76565b5f73ffffffffffffffffffffffffffffffffffffffff168373ffffffffffffffffffffffffffffffffffffffff1603613874575f61381d610d4b565b90505f613828613e8f565b9050808211156138715781816040517f1cb15d260000000000000000000000000000000000000000000000000000000081526004016138689291906154c4565b60405180910390fd5b50505b61387f838383613eb2565b505050565b5f805f90505f608084901c11156138a357608083901c92506080810190505b5f604084901c11156138bd57604083901c92506040810190505b5f602084901c11156138d757602083901c92506020810190505b5f601084901c11156138f157601083901c92506010810190505b5f600884901c111561390b57600883901c92506008810190505b5f600484901c111561392557600483901c92506004810190505b5f600284901c111561393f57600283901c92506002810190505b5f600184901c1115613952576001810190505b80915050919050565b5f818310613969578161396b565b825b905092915050565b5f60028284186139839190615618565b8284166139909190614e49565b905092915050565b5f81836139a59190615648565b905092915050565b5f79ffffffffffffffffffffffffffffffffffffffffffffffffffff8016821115613a125760d0826040517f6dfcc650000000000000000000000000000000000000000000000000000000008152600401613a099291906156ce565b60405180910390fd5b819050919050565b5f80613a4d613a2761146e565b613a3d613a33886124f1565b868863ffffffff16565b87613f6a9092919063ffffffff16565b91509150935093915050565b5f8183613a6691906156f5565b905092915050565b613aea848573ffffffffffffffffffffffffffffffffffffffff166323b872dd868686604051602401613aa393929190615742565b604051602081830303815290604052915060e01b6020820180517bffffffffffffffffffffffffffffffffffffffffffffffffffffffff8381831617835250505050613b6f565b50505050565b5f73ffffffffffffffffffffffffffffffffffffffff168273ffffffffffffffffffffffffffffffffffffffff1603613b60575f6040517fec442f05000000000000000000000000000000000000000000000000000000008152600401613b579190614814565b60405180910390fd5b613b6b5f8383612aeb565b5050565b5f613b99828473ffffffffffffffffffffffffffffffffffffffff16613f8590919063ffffffff16565b90505f815114158015613bbd575080806020019051810190613bbb91906157a1565b155b15613bff57826040517f5274afe7000000000000000000000000000000000000000000000000000000008152600401613bf69190614814565b60405180910390fd5b505050565b60605f613c1083613f9a565b90505f602067ffffffffffffffff811115613c2e57613c2d614fda565b5b6040519080825280601f01601f191660200182016040528015613c605781602001600182028036833780820191505090505b5090508181528360208201528092505050919050565b5f73ffffffffffffffffffffffffffffffffffffffff168373ffffffffffffffffffffffffffffffffffffffff1603613cc6578060025f828254613cba9190614e49565b92505081905550613d94565b5f805f8573ffffffffffffffffffffffffffffffffffffffff1673ffffffffffffffffffffffffffffffffffffffff1681526020019081526020015f2054905081811015613d4f578381836040517fe450d38c000000000000000000000000000000000000000000000000000000008152600401613d46939291906153ea565b60405180910390fd5b8181035f808673ffffffffffffffffffffffffffffffffffffffff1673ffffffffffffffffffffffffffffffffffffffff1681526020019081526020015f2081905550505b5f73ffffffffffffffffffffffffffffffffffffffff168273ffffffffffffffffffffffffffffffffffffffff1603613ddb578060025f8282540392505081905550613e25565b805f808473ffffffffffffffffffffffffffffffffffffffff1673ffffffffffffffffffffffffffffffffffffffff1681526020019081526020015f205f82825401925050819055505b8173ffffffffffffffffffffffffffffffffffffffff168373ffffffffffffffffffffffffffffffffffffffff167fddf252ad1be2c89b69c2b068fc378daa952ba7f163c4a11628f55a4df523b3ef83604051613e82919061453e565b60405180910390a3505050565b5f79ffffffffffffffffffffffffffffffffffffffffffffffffffff8016905090565b5f73ffffffffffffffffffffffffffffffffffffffff168373ffffffffffffffffffffffffffffffffffffffff1603613efe57613efb600a613a59613ef6846139ad565b613a1a565b50505b5f73ffffffffffffffffffffffffffffffffffffffff168273ffffffffffffffffffffffffffffffffffffffff1603613f4a57613f47600a613998613f42846139ad565b613a1a565b50505b613f65613f56846110e2565b613f5f846110e2565b83612d1e565b505050565b5f80613f79855f018585613fe8565b91509150935093915050565b6060613f9283835f614350565b905092915050565b5f8060ff835f1c169050601f811115613fdf576040517fb3512b0c00000000000000000000000000000000000000000000000000000000815260040160405180910390fd5b80915050919050565b5f805f858054905090505f811115614268575f6140118760018461400c9190614ee4565b612c86565b6040518060400160405290815f82015f9054906101000a900465ffffffffffff1665ffffffffffff1665ffffffffffff1681526020015f820160069054906101000a900479ffffffffffffffffffffffffffffffffffffffffffffffffffff1679ffffffffffffffffffffffffffffffffffffffffffffffffffff1679ffffffffffffffffffffffffffffffffffffffffffffffffffff168152505090508565ffffffffffff16815f015165ffffffffffff1611156140fc576040517f2520601d00000000000000000000000000000000000000000000000000000000815260040160405180910390fd5b8565ffffffffffff16815f015165ffffffffffff160361417e578461412d886001856141289190614ee4565b612c86565b5f0160066101000a81548179ffffffffffffffffffffffffffffffffffffffffffffffffffff021916908379ffffffffffffffffffffffffffffffffffffffffffffffffffff160217905550614257565b8660405180604001604052808865ffffffffffff1681526020018779ffffffffffffffffffffffffffffffffffffffffffffffffffff16815250908060018154018082558091505060019003905f5260205f20015f909190919091505f820151815f015f6101000a81548165ffffffffffff021916908365ffffffffffff1602179055506020820151815f0160066101000a81548179ffffffffffffffffffffffffffffffffffffffffffffffffffff021916908379ffffffffffffffffffffffffffffffffffffffffffffffffffff16021790555050505b806020015185935093505050614348565b8560405180604001604052808765ffffffffffff1681526020018679ffffffffffffffffffffffffffffffffffffffffffffffffffff16815250908060018154018082558091505060019003905f5260205f20015f909190919091505f820151815f015f6101000a81548165ffffffffffff021916908365ffffffffffff1602179055506020820151815f0160066101000a81548179ffffffffffffffffffffffffffffffffffffffffffffffffffff021916908379ffffffffffffffffffffffffffffffffffffffffffffffffffff16021790555050505f8492509250505b935093915050565b60608147101561439757306040517fcd78605900000000000000000000000000000000000000000000000000000000815260040161438e9190614814565b60405180910390fd5b5f808573ffffffffffffffffffffffffffffffffffffffff1684866040516143bf9190615810565b5f6040518083038185875af1925050503d805f81146143f9576040519150601f19603f3d011682016040523d82523d5f602084013e6143fe565b606091505b509150915061440e868383614419565b925050509392505050565b60608261442e57614429826144a6565b61449e565b5f825114801561445457505f8473ffffffffffffffffffffffffffffffffffffffff163b145b1561449657836040517f9996b31500000000000000000000000000000000000000000000000000000000815260040161448d9190614814565b60405180910390fd5b81905061449f565b5b9392505050565b5f815111156144b85780518082602001fd5b6040517f1425ea4200000000000000000000000000000000000000000000000000000000815260040160405180910390fd5b60405180604001604052805f65ffffffffffff1681526020015f79ffffffffffffffffffffffffffffffffffffffffffffffffffff1681525090565b5f819050919050565b61453881614526565b82525050565b5f6020820190506145515f83018461452f565b92915050565b5f81519050919050565b5f82825260208201905092915050565b5f5b8381101561458e578082015181840152602081019050614573565b5f8484015250505050565b5f601f19601f8301169050919050565b5f6145b382614557565b6145bd8185614561565b93506145cd818560208601614571565b6145d681614599565b840191505092915050565b5f6020820190508181035f8301526145f981846145a9565b905092915050565b5f80fd5b61460e81614526565b8114614618575f80fd5b50565b5f8135905061462981614605565b92915050565b5f6020828403121561464457614643614601565b5b5f6146518482850161461b565b91505092915050565b5f73ffffffffffffffffffffffffffffffffffffffff82169050919050565b5f6146838261465a565b9050919050565b61469381614679565b811461469d575f80fd5b50565b5f813590506146ae8161468a565b92915050565b5f80604083850312156146ca576146c9614601565b5b5f6146d7858286016146a0565b92505060206146e88582860161461b565b9150509250929050565b5f8115159050919050565b614706816146f2565b82525050565b5f60208201905061471f5f8301846146fd565b92915050565b5f6020828403121561473a57614739614601565b5b5f614747848285016146a0565b91505092915050565b5f805f6060848603121561476757614766614601565b5b5f614774868287016146a0565b9350506020614785868287016146a0565b92505060406147968682870161461b565b9150509250925092565b5f60ff82169050919050565b6147b5816147a0565b82525050565b5f6020820190506147ce5f8301846147ac565b92915050565b5f819050919050565b6147e6816147d4565b82525050565b5f6020820190506147ff5f8301846147dd565b92915050565b61480e81614679565b82525050565b5f6020820190506148275f830184614805565b92915050565b5f806040838503121561484357614842614601565b5b5f6148508582860161461b565b9250506020614861858286016146a0565b9150509250929050565b5f63ffffffff82169050919050565b6148838161486b565b82525050565b5f60208201905061489c5f83018461487a565b92915050565b5f7fff0000000000000000000000000000000000000000000000000000000000000082169050919050565b6148d6816148a2565b82525050565b5f81519050919050565b5f82825260208201905092915050565b5f819050602082019050919050565b61490e81614526565b82525050565b5f61491f8383614905565b60208301905092915050565b5f602082019050919050565b5f614941826148dc565b61494b81856148e6565b9350614956836148f6565b805f5b8381101561498657815161496d8882614914565b97506149788361492b565b925050600181019050614959565b5085935050505092915050565b5f60e0820190506149a65f83018a6148cd565b81810360208301526149b881896145a9565b905081810360408301526149cc81886145a9565b90506149db606083018761452f565b6149e86080830186614805565b6149f560a08301856147dd565b81810360c0830152614a078184614937565b905098975050505050505050565b5f614a1f8261465a565b9050919050565b614a2f81614a15565b82525050565b5f602082019050614a485f830184614a26565b92915050565b5f65ffffffffffff82169050919050565b614a6881614a4e565b82525050565b5f602082019050614a815f830184614a5f565b92915050565b5f805f60608486031215614a9e57614a9d614601565b5b5f614aab8682870161461b565b9350506020614abc868287016146a0565b9250506040614acd868287016146a0565b9150509250925092565b614ae0816147a0565b8114614aea575f80fd5b50565b5f81359050614afb81614ad7565b92915050565b614b0a816147d4565b8114614b14575f80fd5b50565b5f81359050614b2581614b01565b92915050565b5f805f805f8060c08789031215614b4557614b44614601565b5b5f614b5289828a016146a0565b9650506020614b6389828a0161461b565b9550506040614b7489828a0161461b565b9450506060614b8589828a01614aed565b9350506080614b9689828a01614b17565b92505060a0614ba789828a01614b17565b9150509295509295509295565b5f805f805f805f60e0888a031215614bcf57614bce614601565b5b5f614bdc8a828b016146a0565b9750506020614bed8a828b016146a0565b9650506040614bfe8a828b0161461b565b9550506060614c0f8a828b0161461b565b9450506080614c208a828b01614aed565b93505060a0614c318a828b01614b17565b92505060c0614c428a828b01614b17565b91505092959891949750929550565b5f8060408385031215614c6757614c66614601565b5b5f614c74858286016146a0565b9250506020614c85858286016146a0565b9150509250929050565b614c988161486b565b8114614ca2575f80fd5b50565b5f81359050614cb381614c8f565b92915050565b5f8060408385031215614ccf57614cce614601565b5b5f614cdc858286016146a0565b9250506020614ced85828601614ca5565b9150509250929050565b614d0081614a4e565b82525050565b5f79ffffffffffffffffffffffffffffffffffffffffffffffffffff82169050919050565b614d3481614d06565b82525050565b604082015f820151614d4e5f850182614cf7565b506020820151614d616020850182614d2b565b50505050565b5f604082019050614d7a5f830184614d3a565b92915050565b5f81519050614d8e81614605565b92915050565b5f60208284031215614da957614da8614601565b5b5f614db684828501614d80565b91505092915050565b7f4e487b71000000000000000000000000000000000000000000000000000000005f52602260045260245ffd5b5f6002820490506001821680614e0357607f821691505b602082108103614e1657614e15614dbf565b5b50919050565b7f4e487b71000000000000000000000000000000000000000000000000000000005f52601160045260245ffd5b5f614e5382614526565b9150614e5e83614526565b9250828201905080821115614e7657614e75614e1c565b5b92915050565b7f496e76616c6964206665650000000000000000000000000000000000000000005f82015250565b5f614eb0600b83614561565b9150614ebb82614e7c565b602082019050919050565b5f6020820190508181035f830152614edd81614ea4565b9050919050565b5f614eee82614526565b9150614ef983614526565b9250828203905081811115614f1157614f10614e1c565b5b92915050565b5f614f21826147a0565b9150614f2c836147a0565b9250828201905060ff811115614f4557614f44614e1c565b5b92915050565b5f604082019050614f5e5f83018561452f565b614f6b6020830184614a5f565b9392505050565b7f455243343632363a206465706f736974206d6f7265207468616e206d617800005f82015250565b5f614fa6601e83614561565b9150614fb182614f72565b602082019050919050565b5f6020820190508181035f830152614fd381614f9a565b9050919050565b7f4e487b71000000000000000000000000000000000000000000000000000000005f52604160045260245ffd5b7f455243343632363a206d696e74206d6f7265207468616e206d617800000000005f82015250565b5f61503b601b83614561565b915061504682615007565b602082019050919050565b5f6020820190508181035f8301526150688161502f565b9050919050565b7f455243343632363a207769746864726177206d6f7265207468616e206d6178005f82015250565b5f6150a3601f83614561565b91506150ae8261506f565b602082019050919050565b5f6020820190508181035f8301526150d081615097565b9050919050565b7f455243343632363a2072656465656d206d6f7265207468616e206d61780000005f82015250565b5f61510b601d83614561565b9150615116826150d7565b602082019050919050565b5f6020820190508181035f830152615138816150ff565b9050919050565b5f6080820190506151525f8301876147dd565b61515f6020830186614805565b61516c604083018561452f565b615179606083018461452f565b95945050505050565b5f60c0820190506151955f8301896147dd565b6151a26020830188614805565b6151af6040830187614805565b6151bc606083018661452f565b6151c9608083018561452f565b6151d660a083018461452f565b979650505050505050565b5f6040820190506151f45f830185614805565b6152016020830184614805565b9392505050565b5f8160011c9050919050565b5f808291508390505b600185111561525d5780860481111561523957615238614e1c565b5b60018516156152485780820291505b808102905061525685615208565b945061521d565b94509492505050565b5f826152755760019050615330565b81615282575f9050615330565b816001811461529857600281146152a2576152d1565b6001915050615330565b60ff8411156152b4576152b3614e1c565b5b8360020a9150848211156152cb576152ca614e1c565b5b50615330565b5060208310610133831016604e8410600b84101617156153065782820a90508381111561530157615300614e1c565b5b615330565b6153138484846001615214565b9250905081840481111561532a57615329614e1c565b5b81810290505b9392505050565b5f61534182614526565b915061534c836147a0565b92506153797fffffffffffffffffffffffffffffffffffffffffffffffffffffffffffffffff8484615266565b905092915050565b5f819050919050565b5f819050919050565b5f6153ad6153a86153a384615381565b61538a565b6147a0565b9050919050565b6153bd81615393565b82525050565b5f6040820190506153d65f8301856153b4565b6153e3602083018461452f565b9392505050565b5f6060820190506153fd5f830186614805565b61540a602083018561452f565b615417604083018461452f565b949350505050565b5f6040820190506154325f830185614805565b61543f602083018461452f565b9392505050565b7f4e487b71000000000000000000000000000000000000000000000000000000005f52601260045260245ffd5b5f60a0820190506154865f8301886147dd565b61549360208301876147dd565b6154a060408301866147dd565b6154ad606083018561452f565b6154ba6080830184614805565b9695505050505050565b5f6040820190506154d75f83018561452f565b6154e4602083018461452f565b9392505050565b5f819050919050565b5f61550e615509615504846154eb565b61538a565b6147a0565b9050919050565b61551e816154f4565b82525050565b5f6040820190506155375f830185615515565b615544602083018461452f565b9392505050565b5f60808201905061555e5f8301876147dd565b61556b60208301866147ac565b61557860408301856147dd565b61558560608301846147dd565b95945050505050565b7f4e487b71000000000000000000000000000000000000000000000000000000005f52602160045260245ffd5b7f4e487b71000000000000000000000000000000000000000000000000000000005f52603260045260245ffd5b5f6155f2826147a0565b91506155fd836147a0565b92508261560d5761560c615446565b5b828206905092915050565b5f61562282614526565b915061562d83614526565b92508261563d5761563c615446565b5b828204905092915050565b5f61565282614d06565b915061565d83614d06565b9250828203905079ffffffffffffffffffffffffffffffffffffffffffffffffffff81111561568f5761568e614e1c565b5b92915050565b5f819050919050565b5f6156b86156b36156ae84615695565b61538a565b6147a0565b9050919050565b6156c88161569e565b82525050565b5f6040820190506156e15f8301856156bf565b6156ee602083018461452f565b9392505050565b5f6156ff82614d06565b915061570a83614d06565b9250828201905079ffffffffffffffffffffffffffffffffffffffffffffffffffff81111561573c5761573b614e1c565b5b92915050565b5f6060820190506157555f830186614805565b6157626020830185614805565b61576f604083018461452f565b949350505050565b615780816146f2565b811461578a575f80fd5b50565b5f8151905061579b81615777565b92915050565b5f602082840312156157b6576157b5614601565b5b5f6157c38482850161578d565b91505092915050565b5f81519050919050565b5f81905092915050565b5f6157ea826157cc565b6157f481856157d6565b9350615804818560208601614571565b80840191505092915050565b5f61581b82846157e0565b91508190509291505056fea2646970667358221220cabff8e7d024c6baa33bd21b6c9ef4934760d1a20ceaff32facdb44627c1833e64736f6c63430008160033",
			"opcodes": "PUSH2 0x1A0 PUSH1 0x40 MSTORE PUSH2 0x1F4 PUSH1 0xF SSTORE PUSH1 0x64 PUSH1 0x10 SSTORE PUSH1 0x64 PUSH1 0x11 SSTORE CALLVALUE DUP1 ISZERO PUSH3 0x21 JUMPI PUSH0 DUP1 REVERT JUMPDEST POP PUSH1 0x40 MLOAD PUSH3 0x666B CODESIZE SUB DUP1 PUSH3 0x666B DUP4 CODECOPY DUP2 DUP2 ADD PUSH1 0x40 MSTORE DUP2 ADD SWAP1 PUSH3 0x47 SWAP2 SWAP1 PUSH3 0x754 JUMP JUMPDEST CALLER DUP3 PUSH1 0x40 MLOAD DUP1 PUSH1 0x40 ADD PUSH1 0x40 MSTORE DUP1 PUSH1 0xC DUP2 MSTORE PUSH1 0x20 ADD PUSH32 0x4B696D626F205363686F6F6C0000000000000000000000000000000000000000 DUP2 MSTORE POP DUP1 PUSH1 0x40 MLOAD DUP1 PUSH1 0x40 ADD PUSH1 0x40 MSTORE DUP1 PUSH1 0x1 DUP2 MSTORE PUSH1 0x20 ADD PUSH32 0x3100000000000000000000000000000000000000000000000000000000000000 DUP2 MSTORE POP PUSH1 0x40 MLOAD DUP1 PUSH1 0x40 ADD PUSH1 0x40 MSTORE DUP1 PUSH1 0xC DUP2 MSTORE PUSH1 0x20 ADD PUSH32 0x4B696D626F205363686F6F6C0000000000000000000000000000000000000000 DUP2 MSTORE POP PUSH1 0x40 MLOAD DUP1 PUSH1 0x40 ADD PUSH1 0x40 MSTORE DUP1 PUSH1 0x6 DUP2 MSTORE PUSH1 0x20 ADD PUSH32 0x784B696D626F0000000000000000000000000000000000000000000000000000 DUP2 MSTORE POP DUP2 PUSH1 0x3 SWAP1 DUP2 PUSH3 0x133 SWAP2 SWAP1 PUSH3 0x9FD JUMP JUMPDEST POP DUP1 PUSH1 0x4 SWAP1 DUP2 PUSH3 0x145 SWAP2 SWAP1 PUSH3 0x9FD JUMP JUMPDEST POP POP POP PUSH3 0x15E PUSH1 0x5 DUP4 PUSH3 0x3B3 PUSH1 0x20 SHL SWAP1 SWAP2 SWAP1 PUSH1 0x20 SHR JUMP JUMPDEST PUSH2 0x120 DUP2 DUP2 MSTORE POP POP PUSH3 0x17C PUSH1 0x6 DUP3 PUSH3 0x3B3 PUSH1 0x20 SHL SWAP1 SWAP2 SWAP1 PUSH1 0x20 SHR JUMP JUMPDEST PUSH2 0x140 DUP2 DUP2 MSTORE POP POP DUP2 DUP1 MLOAD SWAP1 PUSH1 0x20 ADD KECCAK256 PUSH1 0xE0 DUP2 DUP2 MSTORE POP POP DUP1 DUP1 MLOAD SWAP1 PUSH1 0x20 ADD KECCAK256 PUSH2 0x100 DUP2 DUP2 MSTORE POP POP CHAINID PUSH1 0xA0 DUP2 DUP2 MSTORE POP POP PUSH3 0x1BB PUSH3 0x408 PUSH1 0x20 SHL PUSH1 0x20 SHR JUMP JUMPDEST PUSH1 0x80 DUP2 DUP2 MSTORE POP POP ADDRESS PUSH20 0xFFFFFFFFFFFFFFFFFFFFFFFFFFFFFFFFFFFFFFFF AND PUSH1 0xC0 DUP2 PUSH20 0xFFFFFFFFFFFFFFFFFFFFFFFFFFFFFFFFFFFFFFFF AND DUP2 MSTORE POP POP POP POP POP PUSH0 DUP1 PUSH3 0x20C DUP4 PUSH3 0x464 PUSH1 0x20 SHL PUSH1 0x20 SHR JUMP JUMPDEST SWAP2 POP SWAP2 POP DUP2 PUSH3 0x21E JUMPI PUSH1 0x12 PUSH3 0x220 JUMP JUMPDEST DUP1 JUMPDEST PUSH1 0xFF AND PUSH2 0x180 DUP2 PUSH1 0xFF AND DUP2 MSTORE POP POP DUP3 PUSH20 0xFFFFFFFFFFFFFFFFFFFFFFFFFFFFFFFFFFFFFFFF AND PUSH2 0x160 DUP2 PUSH20 0xFFFFFFFFFFFFFFFFFFFFFFFFFFFFFFFFFFFFFFFF AND DUP2 MSTORE POP POP POP POP POP PUSH0 PUSH20 0xFFFFFFFFFFFFFFFFFFFFFFFFFFFFFFFFFFFFFFFF AND DUP2 PUSH20 0xFFFFFFFFFFFFFFFFFFFFFFFFFFFFFFFFFFFFFFFF AND SUB PUSH3 0x2D9 JUMPI PUSH0 PUSH1 0x40 MLOAD PUSH32 0x1E4FBDF700000000000000000000000000000000000000000000000000000000 DUP2 MSTORE PUSH1 0x4 ADD PUSH3 0x2D0 SWAP2 SWAP1 PUSH3 0xAF2 JUMP JUMPDEST PUSH1 0x40 MLOAD DUP1 SWAP2 SUB SWAP1 REVERT JUMPDEST PUSH3 0x2EA DUP2 PUSH3 0x577 PUSH1 0x20 SHL PUSH1 0x20 SHR JUMP JUMPDEST POP DUP1 PUSH1 0xC PUSH0 PUSH2 0x100 EXP DUP2 SLOAD DUP2 PUSH20 0xFFFFFFFFFFFFFFFFFFFFFFFFFFFFFFFFFFFFFFFF MUL NOT AND SWAP1 DUP4 PUSH20 0xFFFFFFFFFFFFFFFFFFFFFFFFFFFFFFFFFFFFFFFF AND MUL OR SWAP1 SSTORE POP DUP1 PUSH1 0xD PUSH0 PUSH2 0x100 EXP DUP2 SLOAD DUP2 PUSH20 0xFFFFFFFFFFFFFFFFFFFFFFFFFFFFFFFFFFFFFFFF MUL NOT AND SWAP1 DUP4 PUSH20 0xFFFFFFFFFFFFFFFFFFFFFFFFFFFFFFFFFFFFFFFF AND MUL OR SWAP1 SSTORE POP DUP1 PUSH1 0xE PUSH0 PUSH2 0x100 EXP DUP2 SLOAD DUP2 PUSH20 0xFFFFFFFFFFFFFFFFFFFFFFFFFFFFFFFFFFFFFFFF MUL NOT AND SWAP1 DUP4 PUSH20 0xFFFFFFFFFFFFFFFFFFFFFFFFFFFFFFFFFFFFFFFF AND MUL OR SWAP1 SSTORE POP POP POP PUSH3 0xD94 JUMP JUMPDEST PUSH0 PUSH1 0x20 DUP4 MLOAD LT ISZERO PUSH3 0x3D8 JUMPI PUSH3 0x3D0 DUP4 PUSH3 0x63A PUSH1 0x20 SHL PUSH1 0x20 SHR JUMP JUMPDEST SWAP1 POP PUSH3 0x402 JUMP JUMPDEST DUP3 PUSH3 0x3EA DUP4 PUSH3 0x6A4 PUSH1 0x20 SHL PUSH1 0x20 SHR JUMP JUMPDEST PUSH0 ADD SWAP1 DUP2 PUSH3 0x3FA SWAP2 SWAP1 PUSH3 0x9FD JUMP JUMPDEST POP PUSH1 0xFF PUSH0 SHL SWAP1 POP JUMPDEST SWAP3 SWAP2 POP POP JUMP JUMPDEST PUSH0 PUSH32 0x8B73C3C69BB8FE3D512ECC4CF759CC79239F7B179B0FFACAA9A75D522B39400F PUSH1 0xE0 MLOAD PUSH2 0x100 MLOAD CHAINID ADDRESS PUSH1 0x40 MLOAD PUSH1 0x20 ADD PUSH3 0x449 SWAP6 SWAP5 SWAP4 SWAP3 SWAP2 SWAP1 PUSH3 0xB38 JUMP JUMPDEST PUSH1 0x40 MLOAD PUSH1 0x20 DUP2 DUP4 SUB SUB DUP2 MSTORE SWAP1 PUSH1 0x40 MSTORE DUP1 MLOAD SWAP1 PUSH1 0x20 ADD KECCAK256 SWAP1 POP SWAP1 JUMP JUMPDEST PUSH0 DUP1 PUSH0 DUP1 DUP5 PUSH20 0xFFFFFFFFFFFFFFFFFFFFFFFFFFFFFFFFFFFFFFFF AND PUSH1 0x40 MLOAD PUSH1 0x24 ADD PUSH1 0x40 MLOAD PUSH1 0x20 DUP2 DUP4 SUB SUB DUP2 MSTORE SWAP1 PUSH1 0x40 MSTORE PUSH4 0x313CE567 PUSH1 0xE0 SHL PUSH1 0x20 DUP3 ADD DUP1 MLOAD PUSH28 0xFFFFFFFFFFFFFFFFFFFFFFFFFFFFFFFFFFFFFFFFFFFFFFFFFFFFFFFF DUP4 DUP2 DUP4 AND OR DUP4 MSTORE POP POP POP POP PUSH1 0x40 MLOAD PUSH3 0x4D9 SWAP2 SWAP1 PUSH3 0xC07 JUMP JUMPDEST PUSH0 PUSH1 0x40 MLOAD DUP1 DUP4 SUB DUP2 DUP6 GAS STATICCALL SWAP2 POP POP RETURNDATASIZE DUP1 PUSH0 DUP2 EQ PUSH3 0x513 JUMPI PUSH1 0x40 MLOAD SWAP2 POP PUSH1 0x1F NOT PUSH1 0x3F RETURNDATASIZE ADD AND DUP3 ADD PUSH1 0x40 MSTORE RETURNDATASIZE DUP3 MSTORE RETURNDATASIZE PUSH0 PUSH1 0x20 DUP5 ADD RETURNDATACOPY PUSH3 0x518 JUMP JUMPDEST PUSH1 0x60 SWAP2 POP JUMPDEST POP SWAP2 POP SWAP2 POP DUP2 DUP1 ISZERO PUSH3 0x52D JUMPI POP PUSH1 0x20 DUP2 MLOAD LT ISZERO JUMPDEST ISZERO PUSH3 0x569 JUMPI PUSH0 DUP2 DUP1 PUSH1 0x20 ADD SWAP1 MLOAD DUP2 ADD SWAP1 PUSH3 0x54A SWAP2 SWAP1 PUSH3 0xC4E JUMP JUMPDEST SWAP1 POP PUSH1 0xFF DUP1 AND DUP2 GT PUSH3 0x567 JUMPI PUSH1 0x1 DUP2 SWAP5 POP SWAP5 POP POP POP POP PUSH3 0x572 JUMP JUMPDEST POP JUMPDEST PUSH0 DUP1 SWAP4 POP SWAP4 POP POP POP JUMPDEST SWAP2 POP SWAP2 JUMP JUMPDEST PUSH0 PUSH1 0xB PUSH0 SWAP1 SLOAD SWAP1 PUSH2 0x100 EXP SWAP1 DIV PUSH20 0xFFFFFFFFFFFFFFFFFFFFFFFFFFFFFFFFFFFFFFFF AND SWAP1 POP DUP2 PUSH1 0xB PUSH0 PUSH2 0x100 EXP DUP2 SLOAD DUP2 PUSH20 0xFFFFFFFFFFFFFFFFFFFFFFFFFFFFFFFFFFFFFFFF MUL NOT AND SWAP1 DUP4 PUSH20 0xFFFFFFFFFFFFFFFFFFFFFFFFFFFFFFFFFFFFFFFF AND MUL OR SWAP1 SSTORE POP DUP2 PUSH20 0xFFFFFFFFFFFFFFFFFFFFFFFFFFFFFFFFFFFFFFFF AND DUP2 PUSH20 0xFFFFFFFFFFFFFFFFFFFFFFFFFFFFFFFFFFFFFFFF AND PUSH32 0x8BE0079C531659141344CD1FD0A4F28419497F9722A3DAAFE3B4186F6B6457E0 PUSH1 0x40 MLOAD PUSH1 0x40 MLOAD DUP1 SWAP2 SUB SWAP1 LOG3 POP POP JUMP JUMPDEST PUSH0 DUP1 DUP3 SWAP1 POP PUSH1 0x1F DUP2 MLOAD GT ISZERO PUSH3 0x689 JUMPI DUP3 PUSH1 0x40 MLOAD PUSH32 0x305A27A900000000000000000000000000000000000000000000000000000000 DUP2 MSTORE PUSH1 0x4 ADD PUSH3 0x680 SWAP2 SWAP1 PUSH3 0xCDE JUMP JUMPDEST PUSH1 0x40 MLOAD DUP1 SWAP2 SUB SWAP1 REVERT JUMPDEST DUP1 MLOAD DUP2 PUSH3 0x697 SWAP1 PUSH3 0xD25 JUMP JUMPDEST PUSH0 SHR OR PUSH0 SHL SWAP2 POP POP SWAP2 SWAP1 POP JUMP JUMPDEST PUSH0 DUP2 SWAP1 POP SWAP2 SWAP1 POP JUMP JUMPDEST PUSH0 DUP1 REVERT JUMPDEST PUSH0 PUSH20 0xFFFFFFFFFFFFFFFFFFFFFFFFFFFFFFFFFFFFFFFF DUP3 AND SWAP1 POP SWAP2 SWAP1 POP JUMP JUMPDEST PUSH0 PUSH3 0x6DC DUP3 PUSH3 0x6B1 JUMP JUMPDEST SWAP1 POP SWAP2 SWAP1 POP JUMP JUMPDEST PUSH0 PUSH3 0x6EF DUP3 PUSH3 0x6D0 JUMP JUMPDEST SWAP1 POP SWAP2 SWAP1 POP JUMP JUMPDEST PUSH3 0x701 DUP2 PUSH3 0x6E3 JUMP JUMPDEST DUP2 EQ PUSH3 0x70C JUMPI PUSH0 DUP1 REVERT JUMPDEST POP JUMP JUMPDEST PUSH0 DUP2 MLOAD SWAP1 POP PUSH3 0x71F DUP2 PUSH3 0x6F6 JUMP JUMPDEST SWAP3 SWAP2 POP POP JUMP JUMPDEST PUSH3 0x730 DUP2 PUSH3 0x6D0 JUMP JUMPDEST DUP2 EQ PUSH3 0x73B JUMPI PUSH0 DUP1 REVERT JUMPDEST POP JUMP JUMPDEST PUSH0 DUP2 MLOAD SWAP1 POP PUSH3 0x74E DUP2 PUSH3 0x725 JUMP JUMPDEST SWAP3 SWAP2 POP POP JUMP JUMPDEST PUSH0 DUP1 PUSH1 0x40 DUP4 DUP6 SUB SLT ISZERO PUSH3 0x76D JUMPI PUSH3 0x76C PUSH3 0x6AD JUMP JUMPDEST JUMPDEST PUSH0 PUSH3 0x77C DUP6 DUP3 DUP7 ADD PUSH3 0x70F JUMP JUMPDEST SWAP3 POP POP PUSH1 0x20 PUSH3 0x78F DUP6 DUP3 DUP7 ADD PUSH3 0x73E JUMP JUMPDEST SWAP2 POP POP SWAP3 POP SWAP3 SWAP1 POP JUMP JUMPDEST PUSH0 DUP2 MLOAD SWAP1 POP SWAP2 SWAP1 POP JUMP JUMPDEST PUSH32 0x4E487B7100000000000000000000000000000000000000000000000000000000 PUSH0 MSTORE PUSH1 0x41 PUSH1 0x4 MSTORE PUSH1 0x24 PUSH0 REVERT JUMPDEST PUSH32 0x4E487B7100000000000000000000000000000000000000000000000000000000 PUSH0 MSTORE PUSH1 0x22 PUSH1 0x4 MSTORE PUSH1 0x24 PUSH0 REVERT JUMPDEST PUSH0 PUSH1 0x2 DUP3 DIV SWAP1 POP PUSH1 0x1 DUP3 AND DUP1 PUSH3 0x815 JUMPI PUSH1 0x7F DUP3 AND SWAP2 POP JUMPDEST PUSH1 0x20 DUP3 LT DUP2 SUB PUSH3 0x82B JUMPI PUSH3 0x82A PUSH3 0x7D0 JUMP JUMPDEST JUMPDEST POP SWAP2 SWAP1 POP JUMP JUMPDEST PUSH0 DUP2 SWAP1 POP DUP2 PUSH0 MSTORE PUSH1 0x20 PUSH0 KECCAK256 SWAP1 POP SWAP2 SWAP1 POP JUMP JUMPDEST PUSH0 PUSH1 0x20 PUSH1 0x1F DUP4 ADD DIV SWAP1 POP SWAP2 SWAP1 POP JUMP JUMPDEST PUSH0 DUP3 DUP3 SHL SWAP1 POP SWAP3 SWAP2 POP POP JUMP JUMPDEST PUSH0 PUSH1 0x8 DUP4 MUL PUSH3 0x88F PUSH32 0xFFFFFFFFFFFFFFFFFFFFFFFFFFFFFFFFFFFFFFFFFFFFFFFFFFFFFFFFFFFFFFFF DUP3 PUSH3 0x852 JUMP JUMPDEST PUSH3 0x89B DUP7 DUP4 PUSH3 0x852 JUMP JUMPDEST SWAP6 POP DUP1 NOT DUP5 AND SWAP4 POP DUP1 DUP7 AND DUP5 OR SWAP3 POP POP POP SWAP4 SWAP3 POP POP POP JUMP JUMPDEST PUSH0 DUP2 SWAP1 POP SWAP2 SWAP1 POP JUMP JUMPDEST PUSH0 DUP2 SWAP1 POP SWAP2 SWAP1 POP JUMP JUMPDEST PUSH0 PUSH3 0x8E5 PUSH3 0x8DF PUSH3 0x8D9 DUP5 PUSH3 0x8B3 JUMP JUMPDEST PUSH3 0x8BC JUMP JUMPDEST PUSH3 0x8B3 JUMP JUMPDEST SWAP1 POP SWAP2 SWAP1 POP JUMP JUMPDEST PUSH0 DUP2 SWAP1 POP SWAP2 SWAP1 POP JUMP JUMPDEST PUSH3 0x900 DUP4 PUSH3 0x8C5 JUMP JUMPDEST PUSH3 0x918 PUSH3 0x90F DUP3 PUSH3 0x8EC JUMP JUMPDEST DUP5 DUP5 SLOAD PUSH3 0x85E JUMP JUMPDEST DUP3 SSTORE POP POP POP POP JUMP JUMPDEST PUSH0 SWAP1 JUMP JUMPDEST PUSH3 0x92E PUSH3 0x920 JUMP JUMPDEST PUSH3 0x93B DUP2 DUP5 DUP5 PUSH3 0x8F5 JUMP JUMPDEST POP POP POP JUMP JUMPDEST JUMPDEST DUP2 DUP2 LT ISZERO PUSH3 0x962 JUMPI PUSH3 0x956 PUSH0 DUP3 PUSH3 0x924 JUMP JUMPDEST PUSH1 0x1 DUP2 ADD SWAP1 POP PUSH3 0x941 JUMP JUMPDEST POP POP JUMP JUMPDEST PUSH1 0x1F DUP3 GT ISZERO PUSH3 0x9B1 JUMPI PUSH3 0x97B DUP2 PUSH3 0x831 JUMP JUMPDEST PUSH3 0x986 DUP5 PUSH3 0x843 JUMP JUMPDEST DUP2 ADD PUSH1 0x20 DUP6 LT ISZERO PUSH3 0x996 JUMPI DUP2 SWAP1 POP JUMPDEST PUSH3 0x9AE PUSH3 0x9A5 DUP6 PUSH3 0x843 JUMP JUMPDEST DUP4 ADD DUP3 PUSH3 0x940 JUMP JUMPDEST POP POP JUMPDEST POP POP POP JUMP JUMPDEST PUSH0 DUP3 DUP3 SHR SWAP1 POP SWAP3 SWAP2 POP POP JUMP JUMPDEST PUSH0 PUSH3 0x9D3 PUSH0 NOT DUP5 PUSH1 0x8 MUL PUSH3 0x9B6 JUMP JUMPDEST NOT DUP1 DUP4 AND SWAP2 POP POP SWAP3 SWAP2 POP POP JUMP JUMPDEST PUSH0 PUSH3 0x9ED DUP4 DUP4 PUSH3 0x9C2 JUMP JUMPDEST SWAP2 POP DUP3 PUSH1 0x2 MUL DUP3 OR SWAP1 POP SWAP3 SWAP2 POP POP JUMP JUMPDEST PUSH3 0xA08 DUP3 PUSH3 0x799 JUMP JUMPDEST PUSH8 0xFFFFFFFFFFFFFFFF DUP2 GT ISZERO PUSH3 0xA24 JUMPI PUSH3 0xA23 PUSH3 0x7A3 JUMP JUMPDEST JUMPDEST PUSH3 0xA30 DUP3 SLOAD PUSH3 0x7FD JUMP JUMPDEST PUSH3 0xA3D DUP3 DUP3 DUP6 PUSH3 0x966 JUMP JUMPDEST PUSH0 PUSH1 0x20 SWAP1 POP PUSH1 0x1F DUP4 GT PUSH1 0x1 DUP2 EQ PUSH3 0xA73 JUMPI PUSH0 DUP5 ISZERO PUSH3 0xA5E JUMPI DUP3 DUP8 ADD MLOAD SWAP1 POP JUMPDEST PUSH3 0xA6A DUP6 DUP3 PUSH3 0x9E0 JUMP JUMPDEST DUP7 SSTORE POP PUSH3 0xAD9 JUMP JUMPDEST PUSH1 0x1F NOT DUP5 AND PUSH3 0xA83 DUP7 PUSH3 0x831 JUMP JUMPDEST PUSH0 JUMPDEST DUP3 DUP2 LT ISZERO PUSH3 0xAAC JUMPI DUP5 DUP10 ADD MLOAD DUP3 SSTORE PUSH1 0x1 DUP3 ADD SWAP2 POP PUSH1 0x20 DUP6 ADD SWAP5 POP PUSH1 0x20 DUP2 ADD SWAP1 POP PUSH3 0xA85 JUMP JUMPDEST DUP7 DUP4 LT ISZERO PUSH3 0xACC JUMPI DUP5 DUP10 ADD MLOAD PUSH3 0xAC8 PUSH1 0x1F DUP10 AND DUP3 PUSH3 0x9C2 JUMP JUMPDEST DUP4 SSTORE POP JUMPDEST PUSH1 0x1 PUSH1 0x2 DUP9 MUL ADD DUP9 SSTORE POP POP POP JUMPDEST POP POP POP POP POP POP JUMP JUMPDEST PUSH3 0xAEC DUP2 PUSH3 0x6D0 JUMP JUMPDEST DUP3 MSTORE POP POP JUMP JUMPDEST PUSH0 PUSH1 0x20 DUP3 ADD SWAP1 POP PUSH3 0xB07 PUSH0 DUP4 ADD DUP5 PUSH3 0xAE1 JUMP JUMPDEST SWAP3 SWAP2 POP POP JUMP JUMPDEST PUSH0 DUP2 SWAP1 POP SWAP2 SWAP1 POP JUMP JUMPDEST PUSH3 0xB21 DUP2 PUSH3 0xB0D JUMP JUMPDEST DUP3 MSTORE POP POP JUMP JUMPDEST PUSH3 0xB32 DUP2 PUSH3 0x8B3 JUMP JUMPDEST DUP3 MSTORE POP POP JUMP JUMPDEST PUSH0 PUSH1 0xA0 DUP3 ADD SWAP1 POP PUSH3 0xB4D PUSH0 DUP4 ADD DUP9 PUSH3 0xB16 JUMP JUMPDEST PUSH3 0xB5C PUSH1 0x20 DUP4 ADD DUP8 PUSH3 0xB16 JUMP JUMPDEST PUSH3 0xB6B PUSH1 0x40 DUP4 ADD DUP7 PUSH3 0xB16 JUMP JUMPDEST PUSH3 0xB7A PUSH1 0x60 DUP4 ADD DUP6 PUSH3 0xB27 JUMP JUMPDEST PUSH3 0xB89 PUSH1 0x80 DUP4 ADD DUP5 PUSH3 0xAE1 JUMP JUMPDEST SWAP7 SWAP6 POP POP POP POP POP POP JUMP JUMPDEST PUSH0 DUP2 MLOAD SWAP1 POP SWAP2 SWAP1 POP JUMP JUMPDEST PUSH0 DUP2 SWAP1 POP SWAP3 SWAP2 POP POP JUMP JUMPDEST PUSH0 JUMPDEST DUP4 DUP2 LT ISZERO PUSH3 0xBC6 JUMPI DUP1 DUP3 ADD MLOAD DUP2 DUP5 ADD MSTORE PUSH1 0x20 DUP2 ADD SWAP1 POP PUSH3 0xBA9 JUMP JUMPDEST PUSH0 DUP5 DUP5 ADD MSTORE POP POP POP POP JUMP JUMPDEST PUSH0 PUSH3 0xBDD DUP3 PUSH3 0xB93 JUMP JUMPDEST PUSH3 0xBE9 DUP2 DUP6 PUSH3 0xB9D JUMP JUMPDEST SWAP4 POP PUSH3 0xBFB DUP2 DUP6 PUSH1 0x20 DUP7 ADD PUSH3 0xBA7 JUMP JUMPDEST DUP1 DUP5 ADD SWAP2 POP POP SWAP3 SWAP2 POP POP JUMP JUMPDEST PUSH0 PUSH3 0xC14 DUP3 DUP5 PUSH3 0xBD1 JUMP JUMPDEST SWAP2 POP DUP2 SWAP1 POP SWAP3 SWAP2 POP POP JUMP JUMPDEST PUSH3 0xC2A DUP2 PUSH3 0x8B3 JUMP JUMPDEST DUP2 EQ PUSH3 0xC35 JUMPI PUSH0 DUP1 REVERT JUMPDEST POP JUMP JUMPDEST PUSH0 DUP2 MLOAD SWAP1 POP PUSH3 0xC48 DUP2 PUSH3 0xC1F JUMP JUMPDEST SWAP3 SWAP2 POP POP JUMP JUMPDEST PUSH0 PUSH1 0x20 DUP3 DUP5 SUB SLT ISZERO PUSH3 0xC66 JUMPI PUSH3 0xC65 PUSH3 0x6AD JUMP JUMPDEST JUMPDEST PUSH0 PUSH3 0xC75 DUP5 DUP3 DUP6 ADD PUSH3 0xC38 JUMP JUMPDEST SWAP2 POP POP SWAP3 SWAP2 POP POP JUMP JUMPDEST PUSH0 DUP3 DUP3 MSTORE PUSH1 0x20 DUP3 ADD SWAP1 POP SWAP3 SWAP2 POP POP JUMP JUMPDEST PUSH0 PUSH1 0x1F NOT PUSH1 0x1F DUP4 ADD AND SWAP1 POP SWAP2 SWAP1 POP JUMP JUMPDEST PUSH0 PUSH3 0xCAA DUP3 PUSH3 0x799 JUMP JUMPDEST PUSH3 0xCB6 DUP2 DUP6 PUSH3 0xC7E JUMP JUMPDEST SWAP4 POP PUSH3 0xCC8 DUP2 DUP6 PUSH1 0x20 DUP7 ADD PUSH3 0xBA7 JUMP JUMPDEST PUSH3 0xCD3 DUP2 PUSH3 0xC8E JUMP JUMPDEST DUP5 ADD SWAP2 POP POP SWAP3 SWAP2 POP POP JUMP JUMPDEST PUSH0 PUSH1 0x20 DUP3 ADD SWAP1 POP DUP2 DUP2 SUB PUSH0 DUP4 ADD MSTORE PUSH3 0xCF8 DUP2 DUP5 PUSH3 0xC9E JUMP JUMPDEST SWAP1 POP SWAP3 SWAP2 POP POP JUMP JUMPDEST PUSH0 DUP2 SWAP1 POP PUSH1 0x20 DUP3 ADD SWAP1 POP SWAP2 SWAP1 POP JUMP JUMPDEST PUSH0 PUSH3 0xD1C DUP3 MLOAD PUSH3 0xB0D JUMP JUMPDEST DUP1 SWAP2 POP POP SWAP2 SWAP1 POP JUMP JUMPDEST PUSH0 PUSH3 0xD31 DUP3 PUSH3 0xB93 JUMP JUMPDEST DUP3 PUSH3 0xD3D DUP5 PUSH3 0xD00 JUMP JUMPDEST SWAP1 POP PUSH3 0xD4A DUP2 PUSH3 0xD0F JUMP JUMPDEST SWAP3 POP PUSH1 0x20 DUP3 LT ISZERO PUSH3 0xD8D JUMPI PUSH3 0xD88 PUSH32 0xFFFFFFFFFFFFFFFFFFFFFFFFFFFFFFFFFFFFFFFFFFFFFFFFFFFFFFFFFFFFFFFF DUP4 PUSH1 0x20 SUB PUSH1 0x8 MUL PUSH3 0x852 JUMP JUMPDEST DUP4 AND SWAP3 POP JUMPDEST POP POP SWAP2 SWAP1 POP JUMP JUMPDEST PUSH1 0x80 MLOAD PUSH1 0xA0 MLOAD PUSH1 0xC0 MLOAD PUSH1 0xE0 MLOAD PUSH2 0x100 MLOAD PUSH2 0x120 MLOAD PUSH2 0x140 MLOAD PUSH2 0x160 MLOAD PUSH2 0x180 MLOAD PUSH2 0x585C PUSH3 0xE0F PUSH0 CODECOPY PUSH0 PUSH2 0xEA7 ADD MSTORE PUSH0 DUP2 DUP2 PUSH2 0xBBB ADD MSTORE DUP2 DUP2 PUSH2 0xEE6 ADD MSTORE DUP2 DUP2 PUSH2 0x2FBB ADD MSTORE PUSH2 0x32A7 ADD MSTORE PUSH0 PUSH2 0x24BF ADD MSTORE PUSH0 PUSH2 0x2484 ADD MSTORE PUSH0 PUSH2 0x2B40 ADD MSTORE PUSH0 PUSH2 0x2B1F ADD MSTORE PUSH0 PUSH2 0x1F0C ADD MSTORE PUSH0 PUSH2 0x1F62 ADD MSTORE PUSH0 PUSH2 0x1F8B ADD MSTORE PUSH2 0x585C PUSH0 RETURN INVALID PUSH1 0x80 PUSH1 0x40 MSTORE CALLVALUE DUP1 ISZERO PUSH2 0xF JUMPI PUSH0 DUP1 REVERT JUMPDEST POP PUSH1 0x4 CALLDATASIZE LT PUSH2 0x376 JUMPI PUSH0 CALLDATALOAD PUSH1 0xE0 SHR DUP1 PUSH4 0x861D4281 GT PUSH2 0x1D1 JUMPI DUP1 PUSH4 0xC3CDA520 GT PUSH2 0x102 JUMPI DUP1 PUSH4 0xDD62ED3E GT PUSH2 0xA0 JUMPI DUP1 PUSH4 0xF1127ED8 GT PUSH2 0x7A JUMPI DUP1 PUSH4 0xF1127ED8 EQ PUSH2 0xB32 JUMPI DUP1 PUSH4 0xF2FDE38B EQ PUSH2 0xB62 JUMPI DUP1 PUSH4 0xF8B4638B EQ PUSH2 0xB7E JUMPI DUP1 PUSH4 0xF9F97C98 EQ PUSH2 0xB9C JUMPI PUSH2 0x376 JUMP JUMPDEST DUP1 PUSH4 0xDD62ED3E EQ PUSH2 0xAB4 JUMPI DUP1 PUSH4 0xE0F0BD9B EQ PUSH2 0xAE4 JUMPI DUP1 PUSH4 0xEF8B30F7 EQ PUSH2 0xB02 JUMPI PUSH2 0x376 JUMP JUMPDEST DUP1 PUSH4 0xCE96CB77 GT PUSH2 0xDC JUMPI DUP1 PUSH4 0xCE96CB77 EQ PUSH2 0xA1C JUMPI DUP1 PUSH4 0xD505ACCF EQ PUSH2 0xA4C JUMPI DUP1 PUSH4 0xD905777E EQ PUSH2 0xA68 JUMPI DUP1 PUSH4 0xDA403903 EQ PUSH2 0xA98 JUMPI PUSH2 0x376 JUMP JUMPDEST DUP1 PUSH4 0xC3CDA520 EQ PUSH2 0x9A0 JUMPI DUP1 PUSH4 0xC63D75B6 EQ PUSH2 0x9BC JUMPI DUP1 PUSH4 0xC6E6F592 EQ PUSH2 0x9EC JUMPI PUSH2 0x376 JUMP JUMPDEST DUP1 PUSH4 0x9AB24EB0 GT PUSH2 0x16F JUMPI DUP1 PUSH4 0xB3D7F6B9 GT PUSH2 0x149 JUMPI DUP1 PUSH4 0xB3D7F6B9 EQ PUSH2 0x8F2 JUMPI DUP1 PUSH4 0xB460AF94 EQ PUSH2 0x922 JUMPI DUP1 PUSH4 0xBA087652 EQ PUSH2 0x952 JUMPI DUP1 PUSH4 0xBA0AF7A9 EQ PUSH2 0x982 JUMPI PUSH2 0x376 JUMP JUMPDEST DUP1 PUSH4 0x9AB24EB0 EQ PUSH2 0x876 JUMPI DUP1 PUSH4 0xA9059CBB EQ PUSH2 0x8A6 JUMPI DUP1 PUSH4 0xAC4DCB76 EQ PUSH2 0x8D6 JUMPI PUSH2 0x376 JUMP JUMPDEST DUP1 PUSH4 0x8E539E8C GT PUSH2 0x1AB JUMPI DUP1 PUSH4 0x8E539E8C EQ PUSH2 0x7DA JUMPI DUP1 PUSH4 0x91DDADF4 EQ PUSH2 0x80A JUMPI DUP1 PUSH4 0x94BF804D EQ PUSH2 0x828 JUMPI DUP1 PUSH4 0x95D89B41 EQ PUSH2 0x858 JUMPI PUSH2 0x376 JUMP JUMPDEST DUP1 PUSH4 0x861D4281 EQ PUSH2 0x780 JUMPI DUP1 PUSH4 0x86915573 EQ PUSH2 0x79E JUMPI DUP1 PUSH4 0x8DA5CB5B EQ PUSH2 0x7BC JUMPI PUSH2 0x376 JUMP JUMPDEST DUP1 PUSH4 0x402D267D GT PUSH2 0x2AB JUMPI DUP1 PUSH4 0x6E553F65 GT PUSH2 0x249 JUMPI DUP1 PUSH4 0x715018A6 GT PUSH2 0x223 JUMPI DUP1 PUSH4 0x715018A6 EQ PUSH2 0x706 JUMPI DUP1 PUSH4 0x79CC6790 EQ PUSH2 0x710 JUMPI DUP1 PUSH4 0x7ECEBE00 EQ PUSH2 0x72C JUMPI DUP1 PUSH4 0x84B0196E EQ PUSH2 0x75C JUMPI PUSH2 0x376 JUMP JUMPDEST DUP1 PUSH4 0x6E553F65 EQ PUSH2 0x676 JUMPI DUP1 PUSH4 0x6FCFFF45 EQ PUSH2 0x6A6 JUMPI DUP1 PUSH4 0x70A08231 EQ PUSH2 0x6D6 JUMPI PUSH2 0x376 JUMP JUMPDEST DUP1 PUSH4 0x4CDAD506 GT PUSH2 0x285 JUMPI DUP1 PUSH4 0x4CDAD506 EQ PUSH2 0x5DE JUMPI DUP1 PUSH4 0x587CDE1E EQ PUSH2 0x60E JUMPI DUP1 PUSH4 0x5B63B05C EQ PUSH2 0x63E JUMPI DUP1 PUSH4 0x5C19A95C EQ PUSH2 0x65A JUMPI PUSH2 0x376 JUMP JUMPDEST DUP1 PUSH4 0x402D267D EQ PUSH2 0x574 JUMPI DUP1 PUSH4 0x42966C68 EQ PUSH2 0x5A4 JUMPI DUP1 PUSH4 0x4BF5D7E9 EQ PUSH2 0x5C0 JUMPI PUSH2 0x376 JUMP JUMPDEST DUP1 PUSH4 0x1FC6456B GT PUSH2 0x318 JUMPI DUP1 PUSH4 0x313CE567 GT PUSH2 0x2F2 JUMPI DUP1 PUSH4 0x313CE567 EQ PUSH2 0x4EA JUMPI DUP1 PUSH4 0x3644E515 EQ PUSH2 0x508 JUMPI DUP1 PUSH4 0x38D52E0F EQ PUSH2 0x526 JUMPI DUP1 PUSH4 0x3A46B1A8 EQ PUSH2 0x544 JUMPI PUSH2 0x376 JUMP JUMPDEST DUP1 PUSH4 0x1FC6456B EQ PUSH2 0x482 JUMPI DUP1 PUSH4 0x21C111D6 EQ PUSH2 0x49E JUMPI DUP1 PUSH4 0x23B872DD EQ PUSH2 0x4BA JUMPI PUSH2 0x376 JUMP JUMPDEST DUP1 PUSH4 0x95EA7B3 GT PUSH2 0x354 JUMPI DUP1 PUSH4 0x95EA7B3 EQ PUSH2 0x3E6 JUMPI DUP1 PUSH4 0xA28A477 EQ PUSH2 0x416 JUMPI DUP1 PUSH4 0x18160DDD EQ PUSH2 0x446 JUMPI DUP1 PUSH4 0x183767DA EQ PUSH2 0x464 JUMPI PUSH2 0x376 JUMP JUMPDEST DUP1 PUSH4 0x1E1D114 EQ PUSH2 0x37A JUMPI DUP1 PUSH4 0x6FDDE03 EQ PUSH2 0x398 JUMPI DUP1 PUSH4 0x7A2D13A EQ PUSH2 0x3B6 JUMPI JUMPDEST PUSH0 DUP1 REVERT JUMPDEST PUSH2 0x382 PUSH2 0xBB8 JUMP JUMPDEST PUSH1 0x40 MLOAD PUSH2 0x38F SWAP2 SWAP1 PUSH2 0x453E JUMP JUMPDEST PUSH1 0x40 MLOAD DUP1 SWAP2 SUB SWAP1 RETURN JUMPDEST PUSH2 0x3A0 PUSH2 0xC56 JUMP JUMPDEST PUSH1 0x40 MLOAD PUSH2 0x3AD SWAP2 SWAP1 PUSH2 0x45E1 JUMP JUMPDEST PUSH1 0x40 MLOAD DUP1 SWAP2 SUB SWAP1 RETURN JUMPDEST PUSH2 0x3D0 PUSH1 0x4 DUP1 CALLDATASIZE SUB DUP2 ADD SWAP1 PUSH2 0x3CB SWAP2 SWAP1 PUSH2 0x462F JUMP JUMPDEST PUSH2 0xCE6 JUMP JUMPDEST PUSH1 0x40 MLOAD PUSH2 0x3DD SWAP2 SWAP1 PUSH2 0x453E JUMP JUMPDEST PUSH1 0x40 MLOAD DUP1 SWAP2 SUB SWAP1 RETURN JUMPDEST PUSH2 0x400 PUSH1 0x4 DUP1 CALLDATASIZE SUB DUP2 ADD SWAP1 PUSH2 0x3FB SWAP2 SWAP1 PUSH2 0x46B4 JUMP JUMPDEST PUSH2 0xCF8 JUMP JUMPDEST PUSH1 0x40 MLOAD PUSH2 0x40D SWAP2 SWAP1 PUSH2 0x470C JUMP JUMPDEST PUSH1 0x40 MLOAD DUP1 SWAP2 SUB SWAP1 RETURN JUMPDEST PUSH2 0x430 PUSH1 0x4 DUP1 CALLDATASIZE SUB DUP2 ADD SWAP1 PUSH2 0x42B SWAP2 SWAP1 PUSH2 0x462F JUMP JUMPDEST PUSH2 0xD1A JUMP JUMPDEST PUSH1 0x40 MLOAD PUSH2 0x43D SWAP2 SWAP1 PUSH2 0x453E JUMP JUMPDEST PUSH1 0x40 MLOAD DUP1 SWAP2 SUB SWAP1 RETURN JUMPDEST PUSH2 0x44E PUSH2 0xD4B JUMP JUMPDEST PUSH1 0x40 MLOAD PUSH2 0x45B SWAP2 SWAP1 PUSH2 0x453E JUMP JUMPDEST PUSH1 0x40 MLOAD DUP1 SWAP2 SUB SWAP1 RETURN JUMPDEST PUSH2 0x46C PUSH2 0xD54 JUMP JUMPDEST PUSH1 0x40 MLOAD PUSH2 0x479 SWAP2 SWAP1 PUSH2 0x453E JUMP JUMPDEST PUSH1 0x40 MLOAD DUP1 SWAP2 SUB SWAP1 RETURN JUMPDEST PUSH2 0x49C PUSH1 0x4 DUP1 CALLDATASIZE SUB DUP2 ADD SWAP1 PUSH2 0x497 SWAP2 SWAP1 PUSH2 0x4725 JUMP JUMPDEST PUSH2 0xD5A JUMP JUMPDEST STOP JUMPDEST PUSH2 0x4B8 PUSH1 0x4 DUP1 CALLDATASIZE SUB DUP2 ADD SWAP1 PUSH2 0x4B3 SWAP2 SWAP1 PUSH2 0x462F JUMP JUMPDEST PUSH2 0xDA5 JUMP JUMPDEST STOP JUMPDEST PUSH2 0x4D4 PUSH1 0x4 DUP1 CALLDATASIZE SUB DUP2 ADD SWAP1 PUSH2 0x4CF SWAP2 SWAP1 PUSH2 0x4750 JUMP JUMPDEST PUSH2 0xE08 JUMP JUMPDEST PUSH1 0x40 MLOAD PUSH2 0x4E1 SWAP2 SWAP1 PUSH2 0x470C JUMP JUMPDEST PUSH1 0x40 MLOAD DUP1 SWAP2 SUB SWAP1 RETURN JUMPDEST PUSH2 0x4F2 PUSH2 0xE9C JUMP JUMPDEST PUSH1 0x40 MLOAD PUSH2 0x4FF SWAP2 SWAP1 PUSH2 0x47BB JUMP JUMPDEST PUSH1 0x40 MLOAD DUP1 SWAP2 SUB SWAP1 RETURN JUMPDEST PUSH2 0x510 PUSH2 0xED5 JUMP JUMPDEST PUSH1 0x40 MLOAD PUSH2 0x51D SWAP2 SWAP1 PUSH2 0x47EC JUMP JUMPDEST PUSH1 0x40 MLOAD DUP1 SWAP2 SUB SWAP1 RETURN JUMPDEST PUSH2 0x52E PUSH2 0xEE3 JUMP JUMPDEST PUSH1 0x40 MLOAD PUSH2 0x53B SWAP2 SWAP1 PUSH2 0x4814 JUMP JUMPDEST PUSH1 0x40 MLOAD DUP1 SWAP2 SUB SWAP1 RETURN JUMPDEST PUSH2 0x55E PUSH1 0x4 DUP1 CALLDATASIZE SUB DUP2 ADD SWAP1 PUSH2 0x559 SWAP2 SWAP1 PUSH2 0x46B4 JUMP JUMPDEST PUSH2 0xF0A JUMP JUMPDEST PUSH1 0x40 MLOAD PUSH2 0x56B SWAP2 SWAP1 PUSH2 0x453E JUMP JUMPDEST PUSH1 0x40 MLOAD DUP1 SWAP2 SUB SWAP1 RETURN JUMPDEST PUSH2 0x58E PUSH1 0x4 DUP1 CALLDATASIZE SUB DUP2 ADD SWAP1 PUSH2 0x589 SWAP2 SWAP1 PUSH2 0x4725 JUMP JUMPDEST PUSH2 0xFE0 JUMP JUMPDEST PUSH1 0x40 MLOAD PUSH2 0x59B SWAP2 SWAP1 PUSH2 0x453E JUMP JUMPDEST PUSH1 0x40 MLOAD DUP1 SWAP2 SUB SWAP1 RETURN JUMPDEST PUSH2 0x5BE PUSH1 0x4 DUP1 CALLDATASIZE SUB DUP2 ADD SWAP1 PUSH2 0x5B9 SWAP2 SWAP1 PUSH2 0x462F JUMP JUMPDEST PUSH2 0x1009 JUMP JUMPDEST STOP JUMPDEST PUSH2 0x5C8 PUSH2 0x101D JUMP JUMPDEST PUSH1 0x40 MLOAD PUSH2 0x5D5 SWAP2 SWAP1 PUSH2 0x45E1 JUMP JUMPDEST PUSH1 0x40 MLOAD DUP1 SWAP2 SUB SWAP1 RETURN JUMPDEST PUSH2 0x5F8 PUSH1 0x4 DUP1 CALLDATASIZE SUB DUP2 ADD SWAP1 PUSH2 0x5F3 SWAP2 SWAP1 PUSH2 0x462F JUMP JUMPDEST PUSH2 0x10B1 JUMP JUMPDEST PUSH1 0x40 MLOAD PUSH2 0x605 SWAP2 SWAP1 PUSH2 0x453E JUMP JUMPDEST PUSH1 0x40 MLOAD DUP1 SWAP2 SUB SWAP1 RETURN JUMPDEST PUSH2 0x628 PUSH1 0x4 DUP1 CALLDATASIZE SUB DUP2 ADD SWAP1 PUSH2 0x623 SWAP2 SWAP1 PUSH2 0x4725 JUMP JUMPDEST PUSH2 0x10E2 JUMP JUMPDEST PUSH1 0x40 MLOAD PUSH2 0x635 SWAP2 SWAP1 PUSH2 0x4814 JUMP JUMPDEST PUSH1 0x40 MLOAD DUP1 SWAP2 SUB SWAP1 RETURN JUMPDEST PUSH2 0x658 PUSH1 0x4 DUP1 CALLDATASIZE SUB DUP2 ADD SWAP1 PUSH2 0x653 SWAP2 SWAP1 PUSH2 0x462F JUMP JUMPDEST PUSH2 0x1147 JUMP JUMPDEST STOP JUMPDEST PUSH2 0x674 PUSH1 0x4 DUP1 CALLDATASIZE SUB DUP2 ADD SWAP1 PUSH2 0x66F SWAP2 SWAP1 PUSH2 0x4725 JUMP JUMPDEST PUSH2 0x11AA JUMP JUMPDEST STOP JUMPDEST PUSH2 0x690 PUSH1 0x4 DUP1 CALLDATASIZE SUB DUP2 ADD SWAP1 PUSH2 0x68B SWAP2 SWAP1 PUSH2 0x482D JUMP JUMPDEST PUSH2 0x11C3 JUMP JUMPDEST PUSH1 0x40 MLOAD PUSH2 0x69D SWAP2 SWAP1 PUSH2 0x453E JUMP JUMPDEST PUSH1 0x40 MLOAD DUP1 SWAP2 SUB SWAP1 RETURN JUMPDEST PUSH2 0x6C0 PUSH1 0x4 DUP1 CALLDATASIZE SUB DUP2 ADD SWAP1 PUSH2 0x6BB SWAP2 SWAP1 PUSH2 0x4725 JUMP JUMPDEST PUSH2 0x1242 JUMP JUMPDEST PUSH1 0x40 MLOAD PUSH2 0x6CD SWAP2 SWAP1 PUSH2 0x4889 JUMP JUMPDEST PUSH1 0x40 MLOAD DUP1 SWAP2 SUB SWAP1 RETURN JUMPDEST PUSH2 0x6F0 PUSH1 0x4 DUP1 CALLDATASIZE SUB DUP2 ADD SWAP1 PUSH2 0x6EB SWAP2 SWAP1 PUSH2 0x4725 JUMP JUMPDEST PUSH2 0x1253 JUMP JUMPDEST PUSH1 0x40 MLOAD PUSH2 0x6FD SWAP2 SWAP1 PUSH2 0x453E JUMP JUMPDEST PUSH1 0x40 MLOAD DUP1 SWAP2 SUB SWAP1 RETURN JUMPDEST PUSH2 0x70E PUSH2 0x1298 JUMP JUMPDEST STOP JUMPDEST PUSH2 0x72A PUSH1 0x4 DUP1 CALLDATASIZE SUB DUP2 ADD SWAP1 PUSH2 0x725 SWAP2 SWAP1 PUSH2 0x46B4 JUMP JUMPDEST PUSH2 0x12AB JUMP JUMPDEST STOP JUMPDEST PUSH2 0x746 PUSH1 0x4 DUP1 CALLDATASIZE SUB DUP2 ADD SWAP1 PUSH2 0x741 SWAP2 SWAP1 PUSH2 0x4725 JUMP JUMPDEST PUSH2 0x12CB JUMP JUMPDEST PUSH1 0x40 MLOAD PUSH2 0x753 SWAP2 SWAP1 PUSH2 0x453E JUMP JUMPDEST PUSH1 0x40 MLOAD DUP1 SWAP2 SUB SWAP1 RETURN JUMPDEST PUSH2 0x764 PUSH2 0x12DC JUMP JUMPDEST PUSH1 0x40 MLOAD PUSH2 0x777 SWAP8 SWAP7 SWAP6 SWAP5 SWAP4 SWAP3 SWAP2 SWAP1 PUSH2 0x4993 JUMP JUMPDEST PUSH1 0x40 MLOAD DUP1 SWAP2 SUB SWAP1 RETURN JUMPDEST PUSH2 0x788 PUSH2 0x1381 JUMP JUMPDEST PUSH1 0x40 MLOAD PUSH2 0x795 SWAP2 SWAP1 PUSH2 0x4A35 JUMP JUMPDEST PUSH1 0x40 MLOAD DUP1 SWAP2 SUB SWAP1 RETURN JUMPDEST PUSH2 0x7A6 PUSH2 0x13A6 JUMP JUMPDEST PUSH1 0x40 MLOAD PUSH2 0x7B3 SWAP2 SWAP1 PUSH2 0x453E JUMP JUMPDEST PUSH1 0x40 MLOAD DUP1 SWAP2 SUB SWAP1 RETURN JUMPDEST PUSH2 0x7C4 PUSH2 0x13AC JUMP JUMPDEST PUSH1 0x40 MLOAD PUSH2 0x7D1 SWAP2 SWAP1 PUSH2 0x4814 JUMP JUMPDEST PUSH1 0x40 MLOAD DUP1 SWAP2 SUB SWAP1 RETURN JUMPDEST PUSH2 0x7F4 PUSH1 0x4 DUP1 CALLDATASIZE SUB DUP2 ADD SWAP1 PUSH2 0x7EF SWAP2 SWAP1 PUSH2 0x462F JUMP JUMPDEST PUSH2 0x13D4 JUMP JUMPDEST PUSH1 0x40 MLOAD PUSH2 0x801 SWAP2 SWAP1 PUSH2 0x453E JUMP JUMPDEST PUSH1 0x40 MLOAD DUP1 SWAP2 SUB SWAP1 RETURN JUMPDEST PUSH2 0x812 PUSH2 0x146E JUMP JUMPDEST PUSH1 0x40 MLOAD PUSH2 0x81F SWAP2 SWAP1 PUSH2 0x4A6E JUMP JUMPDEST PUSH1 0x40 MLOAD DUP1 SWAP2 SUB SWAP1 RETURN JUMPDEST PUSH2 0x842 PUSH1 0x4 DUP1 CALLDATASIZE SUB DUP2 ADD SWAP1 PUSH2 0x83D SWAP2 SWAP1 PUSH2 0x482D JUMP JUMPDEST PUSH2 0x147C JUMP JUMPDEST PUSH1 0x40 MLOAD PUSH2 0x84F SWAP2 SWAP1 PUSH2 0x453E JUMP JUMPDEST PUSH1 0x40 MLOAD DUP1 SWAP2 SUB SWAP1 RETURN JUMPDEST PUSH2 0x860 PUSH2 0x14FB JUMP JUMPDEST PUSH1 0x40 MLOAD PUSH2 0x86D SWAP2 SWAP1 PUSH2 0x45E1 JUMP JUMPDEST PUSH1 0x40 MLOAD DUP1 SWAP2 SUB SWAP1 RETURN JUMPDEST PUSH2 0x890 PUSH1 0x4 DUP1 CALLDATASIZE SUB DUP2 ADD SWAP1 PUSH2 0x88B SWAP2 SWAP1 PUSH2 0x4725 JUMP JUMPDEST PUSH2 0x158B JUMP JUMPDEST PUSH1 0x40 MLOAD PUSH2 0x89D SWAP2 SWAP1 PUSH2 0x453E JUMP JUMPDEST PUSH1 0x40 MLOAD DUP1 SWAP2 SUB SWAP1 RETURN JUMPDEST PUSH2 0x8C0 PUSH1 0x4 DUP1 CALLDATASIZE SUB DUP2 ADD SWAP1 PUSH2 0x8BB SWAP2 SWAP1 PUSH2 0x46B4 JUMP JUMPDEST PUSH2 0x15F4 JUMP JUMPDEST PUSH1 0x40 MLOAD PUSH2 0x8CD SWAP2 SWAP1 PUSH2 0x470C JUMP JUMPDEST PUSH1 0x40 MLOAD DUP1 SWAP2 SUB SWAP1 RETURN JUMPDEST PUSH2 0x8F0 PUSH1 0x4 DUP1 CALLDATASIZE SUB DUP2 ADD SWAP1 PUSH2 0x8EB SWAP2 SWAP1 PUSH2 0x4725 JUMP JUMPDEST PUSH2 0x1685 JUMP JUMPDEST STOP JUMPDEST PUSH2 0x90C PUSH1 0x4 DUP1 CALLDATASIZE SUB DUP2 ADD SWAP1 PUSH2 0x907 SWAP2 SWAP1 PUSH2 0x462F JUMP JUMPDEST PUSH2 0x16D0 JUMP JUMPDEST PUSH1 0x40 MLOAD PUSH2 0x919 SWAP2 SWAP1 PUSH2 0x453E JUMP JUMPDEST PUSH1 0x40 MLOAD DUP1 SWAP2 SUB SWAP1 RETURN JUMPDEST PUSH2 0x93C PUSH1 0x4 DUP1 CALLDATASIZE SUB DUP2 ADD SWAP1 PUSH2 0x937 SWAP2 SWAP1 PUSH2 0x4A87 JUMP JUMPDEST PUSH2 0x1701 JUMP JUMPDEST PUSH1 0x40 MLOAD PUSH2 0x949 SWAP2 SWAP1 PUSH2 0x453E JUMP JUMPDEST PUSH1 0x40 MLOAD DUP1 SWAP2 SUB SWAP1 RETURN JUMPDEST PUSH2 0x96C PUSH1 0x4 DUP1 CALLDATASIZE SUB DUP2 ADD SWAP1 PUSH2 0x967 SWAP2 SWAP1 PUSH2 0x4A87 JUMP JUMPDEST PUSH2 0x1782 JUMP JUMPDEST PUSH1 0x40 MLOAD PUSH2 0x979 SWAP2 SWAP1 PUSH2 0x453E JUMP JUMPDEST PUSH1 0x40 MLOAD DUP1 SWAP2 SUB SWAP1 RETURN JUMPDEST PUSH2 0x98A PUSH2 0x1803 JUMP JUMPDEST PUSH1 0x40 MLOAD PUSH2 0x997 SWAP2 SWAP1 PUSH2 0x453E JUMP JUMPDEST PUSH1 0x40 MLOAD DUP1 SWAP2 SUB SWAP1 RETURN JUMPDEST PUSH2 0x9BA PUSH1 0x4 DUP1 CALLDATASIZE SUB DUP2 ADD SWAP1 PUSH2 0x9B5 SWAP2 SWAP1 PUSH2 0x4B2B JUMP JUMPDEST PUSH2 0x1809 JUMP JUMPDEST STOP JUMPDEST PUSH2 0x9D6 PUSH1 0x4 DUP1 CALLDATASIZE SUB DUP2 ADD SWAP1 PUSH2 0x9D1 SWAP2 SWAP1 PUSH2 0x4725 JUMP JUMPDEST PUSH2 0x18CE JUMP JUMPDEST PUSH1 0x40 MLOAD PUSH2 0x9E3 SWAP2 SWAP1 PUSH2 0x453E JUMP JUMPDEST PUSH1 0x40 MLOAD DUP1 SWAP2 SUB SWAP1 RETURN JUMPDEST PUSH2 0xA06 PUSH1 0x4 DUP1 CALLDATASIZE SUB DUP2 ADD SWAP1 PUSH2 0xA01 SWAP2 SWAP1 PUSH2 0x462F JUMP JUMPDEST PUSH2 0x18F7 JUMP JUMPDEST PUSH1 0x40 MLOAD PUSH2 0xA13 SWAP2 SWAP1 PUSH2 0x453E JUMP JUMPDEST PUSH1 0x40 MLOAD DUP1 SWAP2 SUB SWAP1 RETURN JUMPDEST PUSH2 0xA36 PUSH1 0x4 DUP1 CALLDATASIZE SUB DUP2 ADD SWAP1 PUSH2 0xA31 SWAP2 SWAP1 PUSH2 0x4725 JUMP JUMPDEST PUSH2 0x1909 JUMP JUMPDEST PUSH1 0x40 MLOAD PUSH2 0xA43 SWAP2 SWAP1 PUSH2 0x453E JUMP JUMPDEST PUSH1 0x40 MLOAD DUP1 SWAP2 SUB SWAP1 RETURN JUMPDEST PUSH2 0xA66 PUSH1 0x4 DUP1 CALLDATASIZE SUB DUP2 ADD SWAP1 PUSH2 0xA61 SWAP2 SWAP1 PUSH2 0x4BB4 JUMP JUMPDEST PUSH2 0x1923 JUMP JUMPDEST STOP JUMPDEST PUSH2 0xA82 PUSH1 0x4 DUP1 CALLDATASIZE SUB DUP2 ADD SWAP1 PUSH2 0xA7D SWAP2 SWAP1 PUSH2 0x4725 JUMP JUMPDEST PUSH2 0x1A68 JUMP JUMPDEST PUSH1 0x40 MLOAD PUSH2 0xA8F SWAP2 SWAP1 PUSH2 0x453E JUMP JUMPDEST PUSH1 0x40 MLOAD DUP1 SWAP2 SUB SWAP1 RETURN JUMPDEST PUSH2 0xAB2 PUSH1 0x4 DUP1 CALLDATASIZE SUB DUP2 ADD SWAP1 PUSH2 0xAAD SWAP2 SWAP1 PUSH2 0x462F JUMP JUMPDEST PUSH2 0x1A79 JUMP JUMPDEST STOP JUMPDEST PUSH2 0xACE PUSH1 0x4 DUP1 CALLDATASIZE SUB DUP2 ADD SWAP1 PUSH2 0xAC9 SWAP2 SWAP1 PUSH2 0x4C51 JUMP JUMPDEST PUSH2 0x1ADC JUMP JUMPDEST PUSH1 0x40 MLOAD PUSH2 0xADB SWAP2 SWAP1 PUSH2 0x453E JUMP JUMPDEST PUSH1 0x40 MLOAD DUP1 SWAP2 SUB SWAP1 RETURN JUMPDEST PUSH2 0xAEC PUSH2 0x1B5E JUMP JUMPDEST PUSH1 0x40 MLOAD PUSH2 0xAF9 SWAP2 SWAP1 PUSH2 0x4A35 JUMP JUMPDEST PUSH1 0x40 MLOAD DUP1 SWAP2 SUB SWAP1 RETURN JUMPDEST PUSH2 0xB1C PUSH1 0x4 DUP1 CALLDATASIZE SUB DUP2 ADD SWAP1 PUSH2 0xB17 SWAP2 SWAP1 PUSH2 0x462F JUMP JUMPDEST PUSH2 0x1B83 JUMP JUMPDEST PUSH1 0x40 MLOAD PUSH2 0xB29 SWAP2 SWAP1 PUSH2 0x453E JUMP JUMPDEST PUSH1 0x40 MLOAD DUP1 SWAP2 SUB SWAP1 RETURN JUMPDEST PUSH2 0xB4C PUSH1 0x4 DUP1 CALLDATASIZE SUB DUP2 ADD SWAP1 PUSH2 0xB47 SWAP2 SWAP1 PUSH2 0x4CB9 JUMP JUMPDEST PUSH2 0x1BB4 JUMP JUMPDEST PUSH1 0x40 MLOAD PUSH2 0xB59 SWAP2 SWAP1 PUSH2 0x4D67 JUMP JUMPDEST PUSH1 0x40 MLOAD DUP1 SWAP2 SUB SWAP1 RETURN JUMPDEST PUSH2 0xB7C PUSH1 0x4 DUP1 CALLDATASIZE SUB DUP2 ADD SWAP1 PUSH2 0xB77 SWAP2 SWAP1 PUSH2 0x4725 JUMP JUMPDEST PUSH2 0x1BCE JUMP JUMPDEST STOP JUMPDEST PUSH2 0xB86 PUSH2 0x1C52 JUMP JUMPDEST PUSH1 0x40 MLOAD PUSH2 0xB93 SWAP2 SWAP1 PUSH2 0x4A35 JUMP JUMPDEST PUSH1 0x40 MLOAD DUP1 SWAP2 SUB SWAP1 RETURN JUMPDEST PUSH2 0xBB6 PUSH1 0x4 DUP1 CALLDATASIZE SUB DUP2 ADD SWAP1 PUSH2 0xBB1 SWAP2 SWAP1 PUSH2 0x4725 JUMP JUMPDEST PUSH2 0x1C77 JUMP JUMPDEST STOP JUMPDEST PUSH0 PUSH32 0x0 PUSH20 0xFFFFFFFFFFFFFFFFFFFFFFFFFFFFFFFFFFFFFFFF AND PUSH4 0x70A08231 ADDRESS PUSH1 0x40 MLOAD DUP3 PUSH4 0xFFFFFFFF AND PUSH1 0xE0 SHL DUP2 MSTORE PUSH1 0x4 ADD PUSH2 0xC12 SWAP2 SWAP1 PUSH2 0x4814 JUMP JUMPDEST PUSH1 0x20 PUSH1 0x40 MLOAD DUP1 DUP4 SUB DUP2 DUP7 GAS STATICCALL ISZERO DUP1 ISZERO PUSH2 0xC2D JUMPI RETURNDATASIZE PUSH0 DUP1 RETURNDATACOPY RETURNDATASIZE PUSH0 REVERT JUMPDEST POP POP POP POP PUSH1 0x40 MLOAD RETURNDATASIZE PUSH1 0x1F NOT PUSH1 0x1F DUP3 ADD AND DUP3 ADD DUP1 PUSH1 0x40 MSTORE POP DUP2 ADD SWAP1 PUSH2 0xC51 SWAP2 SWAP1 PUSH2 0x4D94 JUMP JUMPDEST SWAP1 POP SWAP1 JUMP JUMPDEST PUSH1 0x60 PUSH1 0x3 DUP1 SLOAD PUSH2 0xC65 SWAP1 PUSH2 0x4DEC JUMP JUMPDEST DUP1 PUSH1 0x1F ADD PUSH1 0x20 DUP1 SWAP2 DIV MUL PUSH1 0x20 ADD PUSH1 0x40 MLOAD SWAP1 DUP2 ADD PUSH1 0x40 MSTORE DUP1 SWAP3 SWAP2 SWAP1 DUP2 DUP2 MSTORE PUSH1 0x20 ADD DUP3 DUP1 SLOAD PUSH2 0xC91 SWAP1 PUSH2 0x4DEC JUMP JUMPDEST DUP1 ISZERO PUSH2 0xCDC JUMPI DUP1 PUSH1 0x1F LT PUSH2 0xCB3 JUMPI PUSH2 0x100 DUP1 DUP4 SLOAD DIV MUL DUP4 MSTORE SWAP2 PUSH1 0x20 ADD SWAP2 PUSH2 0xCDC JUMP JUMPDEST DUP3 ADD SWAP2 SWAP1 PUSH0 MSTORE PUSH1 0x20 PUSH0 KECCAK256 SWAP1 JUMPDEST DUP2 SLOAD DUP2 MSTORE SWAP1 PUSH1 0x1 ADD SWAP1 PUSH1 0x20 ADD DUP1 DUP4 GT PUSH2 0xCBF JUMPI DUP3 SWAP1 SUB PUSH1 0x1F AND DUP3 ADD SWAP2 JUMPDEST POP POP POP POP POP SWAP1 POP SWAP1 JUMP JUMPDEST PUSH0 PUSH2 0xCF1 DUP3 PUSH0 PUSH2 0x1CC2 JUMP JUMPDEST SWAP1 POP SWAP2 SWAP1 POP JUMP JUMPDEST PUSH0 DUP1 PUSH2 0xD02 PUSH2 0x1D1A JUMP JUMPDEST SWAP1 POP PUSH2 0xD0F DUP2 DUP6 DUP6 PUSH2 0x1D21 JUMP JUMPDEST PUSH1 0x1 SWAP2 POP POP SWAP3 SWAP2 POP POP JUMP JUMPDEST PUSH0 DUP1 PUSH2 0xD2D DUP4 PUSH2 0xD28 PUSH2 0x1D33 JUMP JUMPDEST PUSH2 0x1D3C JUMP JUMPDEST SWAP1 POP PUSH2 0xD43 DUP2 DUP5 PUSH2 0xD3E SWAP2 SWAP1 PUSH2 0x4E49 JUMP JUMPDEST PUSH2 0x1D5F JUMP JUMPDEST SWAP2 POP POP SWAP2 SWAP1 POP JUMP JUMPDEST PUSH0 PUSH1 0x2 SLOAD SWAP1 POP SWAP1 JUMP JUMPDEST PUSH1 0x11 SLOAD DUP2 JUMP JUMPDEST PUSH2 0xD62 PUSH2 0x1D72 JUMP JUMPDEST DUP1 PUSH1 0xC PUSH0 PUSH2 0x100 EXP DUP2 SLOAD DUP2 PUSH20 0xFFFFFFFFFFFFFFFFFFFFFFFFFFFFFFFFFFFFFFFF MUL NOT AND SWAP1 DUP4 PUSH20 0xFFFFFFFFFFFFFFFFFFFFFFFFFFFFFFFFFFFFFFFF AND MUL OR SWAP1 SSTORE POP POP JUMP JUMPDEST PUSH2 0xDAD PUSH2 0x1D72 JUMP JUMPDEST PUSH0 DUP2 LT ISZERO DUP1 ISZERO PUSH2 0xDBF JUMPI POP PUSH2 0x1F4 DUP2 GT ISZERO JUMPDEST PUSH2 0xDFE JUMPI PUSH1 0x40 MLOAD PUSH32 0x8C379A000000000000000000000000000000000000000000000000000000000 DUP2 MSTORE PUSH1 0x4 ADD PUSH2 0xDF5 SWAP1 PUSH2 0x4EC6 JUMP JUMPDEST PUSH1 0x40 MLOAD DUP1 SWAP2 SUB SWAP1 REVERT JUMPDEST DUP1 PUSH1 0xF DUP2 SWAP1 SSTORE POP POP JUMP JUMPDEST PUSH0 DUP1 PUSH2 0xE1B DUP4 PUSH2 0xE16 PUSH2 0x1DF9 JUMP JUMPDEST PUSH2 0x1E02 JUMP JUMPDEST SWAP1 POP PUSH0 PUSH2 0xE26 PUSH2 0x1E30 JUMP JUMPDEST SWAP1 POP PUSH0 DUP3 GT ISZERO PUSH2 0xE7B JUMPI PUSH2 0xE3B DUP7 DUP3 DUP5 PUSH2 0x1E58 JUMP JUMPDEST POP ADDRESS PUSH20 0xFFFFFFFFFFFFFFFFFFFFFFFFFFFFFFFFFFFFFFFF AND DUP2 PUSH20 0xFFFFFFFFFFFFFFFFFFFFFFFFFFFFFFFFFFFFFFFF AND SUB PUSH2 0xE7A JUMPI PUSH2 0xE79 DUP2 DUP4 PUSH2 0x1E86 JUMP JUMPDEST JUMPDEST JUMPDEST PUSH2 0xE91 DUP7 DUP7 DUP5 DUP8 PUSH2 0xE8C SWAP2 SWAP1 PUSH2 0x4EE4 JUMP JUMPDEST PUSH2 0x1E58 JUMP JUMPDEST SWAP3 POP POP POP SWAP4 SWAP3 POP POP POP JUMP JUMPDEST PUSH0 PUSH2 0xEA5 PUSH2 0x1F05 JUMP JUMPDEST PUSH32 0x0 PUSH2 0xED0 SWAP2 SWAP1 PUSH2 0x4F17 JUMP JUMPDEST SWAP1 POP SWAP1 JUMP JUMPDEST PUSH0 PUSH2 0xEDE PUSH2 0x1F09 JUMP JUMPDEST SWAP1 POP SWAP1 JUMP JUMPDEST PUSH0 PUSH32 0x0 SWAP1 POP SWAP1 JUMP JUMPDEST PUSH0 DUP1 PUSH2 0xF14 PUSH2 0x146E JUMP JUMPDEST SWAP1 POP DUP1 PUSH6 0xFFFFFFFFFFFF AND DUP4 LT PUSH2 0xF64 JUMPI DUP3 DUP2 PUSH1 0x40 MLOAD PUSH32 0xECD3F81E00000000000000000000000000000000000000000000000000000000 DUP2 MSTORE PUSH1 0x4 ADD PUSH2 0xF5B SWAP3 SWAP2 SWAP1 PUSH2 0x4F4B JUMP JUMPDEST PUSH1 0x40 MLOAD DUP1 SWAP2 SUB SWAP1 REVERT JUMPDEST PUSH2 0xFBB PUSH2 0xF70 DUP5 PUSH2 0x1FBF JUMP JUMPDEST PUSH1 0x9 PUSH0 DUP8 PUSH20 0xFFFFFFFFFFFFFFFFFFFFFFFFFFFFFFFFFFFFFFFF AND PUSH20 0xFFFFFFFFFFFFFFFFFFFFFFFFFFFFFFFFFFFFFFFF AND DUP2 MSTORE PUSH1 0x20 ADD SWAP1 DUP2 MSTORE PUSH1 0x20 ADD PUSH0 KECCAK256 PUSH2 0x2018 SWAP1 SWAP2 SWAP1 PUSH4 0xFFFFFFFF AND JUMP JUMPDEST PUSH26 0xFFFFFFFFFFFFFFFFFFFFFFFFFFFFFFFFFFFFFFFFFFFFFFFFFFFF AND SWAP2 POP POP SWAP3 SWAP2 POP POP JUMP JUMPDEST PUSH0 PUSH32 0xFFFFFFFFFFFFFFFFFFFFFFFFFFFFFFFFFFFFFFFFFFFFFFFFFFFFFFFFFFFFFFFF SWAP1 POP SWAP2 SWAP1 POP JUMP JUMPDEST PUSH2 0x101A PUSH2 0x1014 PUSH2 0x1D1A JUMP JUMPDEST DUP3 PUSH2 0x1E86 JUMP JUMPDEST POP JUMP JUMPDEST PUSH1 0x60 PUSH2 0x1027 PUSH2 0x2105 JUMP JUMPDEST PUSH6 0xFFFFFFFFFFFF AND PUSH2 0x1037 PUSH2 0x146E JUMP JUMPDEST PUSH6 0xFFFFFFFFFFFF AND EQ PUSH2 0x1076 JUMPI PUSH1 0x40 MLOAD PUSH32 0x6FF0714000000000000000000000000000000000000000000000000000000000 DUP2 MSTORE PUSH1 0x4 ADD PUSH1 0x40 MLOAD DUP1 SWAP2 SUB SWAP1 REVERT JUMPDEST PUSH1 0x40 MLOAD DUP1 PUSH1 0x40 ADD PUSH1 0x40 MSTORE DUP1 PUSH1 0x1D DUP2 MSTORE PUSH1 0x20 ADD PUSH32 0x6D6F64653D626C6F636B6E756D6265722666726F6D3D64656661756C74000000 DUP2 MSTORE POP SWAP1 POP SWAP1 JUMP JUMPDEST PUSH0 DUP1 PUSH2 0x10BC DUP4 PUSH2 0x2114 JUMP JUMPDEST SWAP1 POP PUSH2 0x10CF DUP2 PUSH2 0x10CA PUSH2 0x1D33 JUMP JUMPDEST PUSH2 0x1E02 JUMP JUMPDEST DUP2 PUSH2 0x10DA SWAP2 SWAP1 PUSH2 0x4EE4 JUMP JUMPDEST SWAP2 POP POP SWAP2 SWAP1 POP JUMP JUMPDEST PUSH0 PUSH1 0x8 PUSH0 DUP4 PUSH20 0xFFFFFFFFFFFFFFFFFFFFFFFFFFFFFFFFFFFFFFFF AND PUSH20 0xFFFFFFFFFFFFFFFFFFFFFFFFFFFFFFFFFFFFFFFF AND DUP2 MSTORE PUSH1 0x20 ADD SWAP1 DUP2 MSTORE PUSH1 0x20 ADD PUSH0 KECCAK256 PUSH0 SWAP1 SLOAD SWAP1 PUSH2 0x100 EXP SWAP1 DIV PUSH20 0xFFFFFFFFFFFFFFFFFFFFFFFFFFFFFFFFFFFFFFFF AND SWAP1 POP SWAP2 SWAP1 POP JUMP JUMPDEST PUSH2 0x114F PUSH2 0x1D72 JUMP JUMPDEST PUSH0 DUP2 LT ISZERO DUP1 ISZERO PUSH2 0x1161 JUMPI POP PUSH2 0x1F4 DUP2 GT ISZERO JUMPDEST PUSH2 0x11A0 JUMPI PUSH1 0x40 MLOAD PUSH32 0x8C379A000000000000000000000000000000000000000000000000000000000 DUP2 MSTORE PUSH1 0x4 ADD PUSH2 0x1197 SWAP1 PUSH2 0x4EC6 JUMP JUMPDEST PUSH1 0x40 MLOAD DUP1 SWAP2 SUB SWAP1 REVERT JUMPDEST DUP1 PUSH1 0x10 DUP2 SWAP1 SSTORE POP POP JUMP JUMPDEST PUSH0 PUSH2 0x11B3 PUSH2 0x1D1A JUMP JUMPDEST SWAP1 POP PUSH2 0x11BF DUP2 DUP4 PUSH2 0x2126 JUMP JUMPDEST POP POP JUMP JUMPDEST PUSH0 PUSH2 0x11CD DUP3 PUSH2 0xFE0 JUMP JUMPDEST DUP4 GT ISZERO PUSH2 0x120F JUMPI PUSH1 0x40 MLOAD PUSH32 0x8C379A000000000000000000000000000000000000000000000000000000000 DUP2 MSTORE PUSH1 0x4 ADD PUSH2 0x1206 SWAP1 PUSH2 0x4FBC JUMP JUMPDEST PUSH1 0x40 MLOAD DUP1 SWAP2 SUB SWAP1 REVERT JUMPDEST PUSH0 PUSH2 0x1219 DUP5 PUSH2 0x1B83 JUMP JUMPDEST SWAP1 POP PUSH2 0x122E PUSH2 0x1226 PUSH2 0x1D1A JUMP JUMPDEST DUP5 DUP7 DUP5 PUSH2 0x2236 JUMP JUMPDEST PUSH2 0x1238 DUP5 DUP3 PUSH2 0x22BC JUMP JUMPDEST DUP1 SWAP2 POP POP SWAP3 SWAP2 POP POP JUMP JUMPDEST PUSH0 PUSH2 0x124C DUP3 PUSH2 0x22C0 JUMP JUMPDEST SWAP1 POP SWAP2 SWAP1 POP JUMP JUMPDEST PUSH0 DUP1 PUSH0 DUP4 PUSH20 0xFFFFFFFFFFFFFFFFFFFFFFFFFFFFFFFFFFFFFFFF AND PUSH20 0xFFFFFFFFFFFFFFFFFFFFFFFFFFFFFFFFFFFFFFFF AND DUP2 MSTORE PUSH1 0x20 ADD SWAP1 DUP2 MSTORE PUSH1 0x20 ADD PUSH0 KECCAK256 SLOAD SWAP1 POP SWAP2 SWAP1 POP JUMP JUMPDEST PUSH2 0x12A0 PUSH2 0x1D72 JUMP JUMPDEST PUSH2 0x12A9 PUSH0 PUSH2 0x2315 JUMP JUMPDEST JUMP JUMPDEST PUSH2 0x12BD DUP3 PUSH2 0x12B7 PUSH2 0x1D1A JUMP JUMPDEST DUP4 PUSH2 0x23D8 JUMP JUMPDEST PUSH2 0x12C7 DUP3 DUP3 PUSH2 0x1E86 JUMP JUMPDEST POP POP JUMP JUMPDEST PUSH0 PUSH2 0x12D5 DUP3 PUSH2 0x246A JUMP JUMPDEST SWAP1 POP SWAP2 SWAP1 POP JUMP JUMPDEST PUSH0 PUSH1 0x60 DUP1 PUSH0 DUP1 PUSH0 PUSH1 0x60 PUSH2 0x12ED PUSH2 0x247B JUMP JUMPDEST PUSH2 0x12F5 PUSH2 0x24B6 JUMP JUMPDEST CHAINID ADDRESS PUSH0 DUP1 SHL PUSH0 PUSH8 0xFFFFFFFFFFFFFFFF DUP2 GT ISZERO PUSH2 0x1314 JUMPI PUSH2 0x1313 PUSH2 0x4FDA JUMP JUMPDEST JUMPDEST PUSH1 0x40 MLOAD SWAP1 DUP1 DUP3 MSTORE DUP1 PUSH1 0x20 MUL PUSH1 0x20 ADD DUP3 ADD PUSH1 0x40 MSTORE DUP1 ISZERO PUSH2 0x1342 JUMPI DUP2 PUSH1 0x20 ADD PUSH1 0x20 DUP3 MUL DUP1 CALLDATASIZE DUP4 CALLDATACOPY DUP1 DUP3 ADD SWAP2 POP POP SWAP1 POP JUMPDEST POP PUSH32 0xF00000000000000000000000000000000000000000000000000000000000000 SWAP6 SWAP5 SWAP4 SWAP3 SWAP2 SWAP1 SWAP7 POP SWAP7 POP SWAP7 POP SWAP7 POP SWAP7 POP SWAP7 POP SWAP7 POP SWAP1 SWAP2 SWAP3 SWAP4 SWAP5 SWAP6 SWAP7 JUMP JUMPDEST PUSH1 0xC PUSH0 SWAP1 SLOAD SWAP1 PUSH2 0x100 EXP SWAP1 DIV PUSH20 0xFFFFFFFFFFFFFFFFFFFFFFFFFFFFFFFFFFFFFFFF AND DUP2 JUMP JUMPDEST PUSH1 0x10 SLOAD DUP2 JUMP JUMPDEST PUSH0 PUSH1 0xB PUSH0 SWAP1 SLOAD SWAP1 PUSH2 0x100 EXP SWAP1 DIV PUSH20 0xFFFFFFFFFFFFFFFFFFFFFFFFFFFFFFFFFFFFFFFF AND SWAP1 POP SWAP1 JUMP JUMPDEST PUSH0 DUP1 PUSH2 0x13DE PUSH2 0x146E JUMP JUMPDEST SWAP1 POP DUP1 PUSH6 0xFFFFFFFFFFFF AND DUP4 LT PUSH2 0x142E JUMPI DUP3 DUP2 PUSH1 0x40 MLOAD PUSH32 0xECD3F81E00000000000000000000000000000000000000000000000000000000 DUP2 MSTORE PUSH1 0x4 ADD PUSH2 0x1425 SWAP3 SWAP2 SWAP1 PUSH2 0x4F4B JUMP JUMPDEST PUSH1 0x40 MLOAD DUP1 SWAP2 SUB SWAP1 REVERT JUMPDEST PUSH2 0x144A PUSH2 0x143A DUP5 PUSH2 0x1FBF JUMP JUMPDEST PUSH1 0xA PUSH2 0x2018 SWAP1 SWAP2 SWAP1 PUSH4 0xFFFFFFFF AND JUMP JUMPDEST PUSH26 0xFFFFFFFFFFFFFFFFFFFFFFFFFFFFFFFFFFFFFFFFFFFFFFFFFFFF AND SWAP2 POP POP SWAP2 SWAP1 POP JUMP JUMPDEST PUSH0 PUSH2 0x1477 PUSH2 0x2105 JUMP JUMPDEST SWAP1 POP SWAP1 JUMP JUMPDEST PUSH0 PUSH2 0x1486 DUP3 PUSH2 0x18CE JUMP JUMPDEST DUP4 GT ISZERO PUSH2 0x14C8 JUMPI PUSH1 0x40 MLOAD PUSH32 0x8C379A000000000000000000000000000000000000000000000000000000000 DUP2 MSTORE PUSH1 0x4 ADD PUSH2 0x14BF SWAP1 PUSH2 0x5051 JUMP JUMPDEST PUSH1 0x40 MLOAD DUP1 SWAP2 SUB SWAP1 REVERT JUMPDEST PUSH0 PUSH2 0x14D2 DUP5 PUSH2 0x16D0 JUMP JUMPDEST SWAP1 POP PUSH2 0x14E7 PUSH2 0x14DF PUSH2 0x1D1A JUMP JUMPDEST DUP5 DUP4 DUP8 PUSH2 0x2236 JUMP JUMPDEST PUSH2 0x14F1 DUP2 DUP6 PUSH2 0x22BC JUMP JUMPDEST DUP1 SWAP2 POP POP SWAP3 SWAP2 POP POP JUMP JUMPDEST PUSH1 0x60 PUSH1 0x4 DUP1 SLOAD PUSH2 0x150A SWAP1 PUSH2 0x4DEC JUMP JUMPDEST DUP1 PUSH1 0x1F ADD PUSH1 0x20 DUP1 SWAP2 DIV MUL PUSH1 0x20 ADD PUSH1 0x40 MLOAD SWAP1 DUP2 ADD PUSH1 0x40 MSTORE DUP1 SWAP3 SWAP2 SWAP1 DUP2 DUP2 MSTORE PUSH1 0x20 ADD DUP3 DUP1 SLOAD PUSH2 0x1536 SWAP1 PUSH2 0x4DEC JUMP JUMPDEST DUP1 ISZERO PUSH2 0x1581 JUMPI DUP1 PUSH1 0x1F LT PUSH2 0x1558 JUMPI PUSH2 0x100 DUP1 DUP4 SLOAD DIV MUL DUP4 MSTORE SWAP2 PUSH1 0x20 ADD SWAP2 PUSH2 0x1581 JUMP JUMPDEST DUP3 ADD SWAP2 SWAP1 PUSH0 MSTORE PUSH1 0x20 PUSH0 KECCAK256 SWAP1 JUMPDEST DUP2 SLOAD DUP2 MSTORE SWAP1 PUSH1 0x1 ADD SWAP1 PUSH1 0x20 ADD DUP1 DUP4 GT PUSH2 0x1564 JUMPI DUP3 SWAP1 SUB PUSH1 0x1F AND DUP3 ADD SWAP2 JUMPDEST POP POP POP POP POP SWAP1 POP SWAP1 JUMP JUMPDEST PUSH0 PUSH2 0x15D1 PUSH1 0x9 PUSH0 DUP5 PUSH20 0xFFFFFFFFFFFFFFFFFFFFFFFFFFFFFFFFFFFFFFFF AND PUSH20 0xFFFFFFFFFFFFFFFFFFFFFFFFFFFFFFFFFFFFFFFF AND DUP2 MSTORE PUSH1 0x20 ADD SWAP1 DUP2 MSTORE PUSH1 0x20 ADD PUSH0 KECCAK256 PUSH2 0x24F1 JUMP JUMPDEST PUSH26 0xFFFFFFFFFFFFFFFFFFFFFFFFFFFFFFFFFFFFFFFFFFFFFFFFFFFF AND SWAP1 POP SWAP2 SWAP1 POP JUMP JUMPDEST PUSH0 DUP1 PUSH2 0x1607 DUP4 PUSH2 0x1602 PUSH2 0x1DF9 JUMP JUMPDEST PUSH2 0x1E02 JUMP JUMPDEST SWAP1 POP PUSH0 PUSH2 0x1612 PUSH2 0x1E30 JUMP JUMPDEST SWAP1 POP PUSH0 DUP3 GT ISZERO PUSH2 0x1666 JUMPI PUSH2 0x1626 DUP2 DUP4 PUSH2 0x2553 JUMP JUMPDEST POP ADDRESS PUSH20 0xFFFFFFFFFFFFFFFFFFFFFFFFFFFFFFFFFFFFFFFF AND DUP2 PUSH20 0xFFFFFFFFFFFFFFFFFFFFFFFFFFFFFFFFFFFFFFFF AND SUB PUSH2 0x1665 JUMPI PUSH2 0x1664 DUP2 DUP4 PUSH2 0x1E86 JUMP JUMPDEST JUMPDEST JUMPDEST PUSH2 0x167B DUP6 DUP4 DUP7 PUSH2 0x1676 SWAP2 SWAP1 PUSH2 0x4EE4 JUMP JUMPDEST PUSH2 0x2553 JUMP JUMPDEST SWAP3 POP POP POP SWAP3 SWAP2 POP POP JUMP JUMPDEST PUSH2 0x168D PUSH2 0x1D72 JUMP JUMPDEST DUP1 PUSH1 0xE PUSH0 PUSH2 0x100 EXP DUP2 SLOAD DUP2 PUSH20 0xFFFFFFFFFFFFFFFFFFFFFFFFFFFFFFFFFFFFFFFF MUL NOT AND SWAP1 DUP4 PUSH20 0xFFFFFFFFFFFFFFFFFFFFFFFFFFFFFFFFFFFFFFFF AND MUL OR SWAP1 SSTORE POP POP JUMP JUMPDEST PUSH0 DUP1 PUSH2 0x16DB DUP4 PUSH2 0x2575 JUMP JUMPDEST SWAP1 POP PUSH2 0x16EE DUP2 PUSH2 0x16E9 PUSH2 0x2588 JUMP JUMPDEST PUSH2 0x1D3C JUMP JUMPDEST DUP2 PUSH2 0x16F9 SWAP2 SWAP1 PUSH2 0x4E49 JUMP JUMPDEST SWAP2 POP POP SWAP2 SWAP1 POP JUMP JUMPDEST PUSH0 PUSH2 0x170B DUP3 PUSH2 0x1909 JUMP JUMPDEST DUP5 GT ISZERO PUSH2 0x174D JUMPI PUSH1 0x40 MLOAD PUSH32 0x8C379A000000000000000000000000000000000000000000000000000000000 DUP2 MSTORE PUSH1 0x4 ADD PUSH2 0x1744 SWAP1 PUSH2 0x50B9 JUMP JUMPDEST PUSH1 0x40 MLOAD DUP1 SWAP2 SUB SWAP1 REVERT JUMPDEST PUSH0 PUSH2 0x1757 DUP6 PUSH2 0xD1A JUMP JUMPDEST SWAP1 POP PUSH2 0x1763 DUP6 DUP3 PUSH2 0x2591 JUMP JUMPDEST PUSH2 0x1777 PUSH2 0x176E PUSH2 0x1D1A JUMP JUMPDEST DUP6 DUP6 DUP9 DUP6 PUSH2 0x2595 JUMP JUMPDEST DUP1 SWAP2 POP POP SWAP4 SWAP3 POP POP POP JUMP JUMPDEST PUSH0 PUSH2 0x178C DUP3 PUSH2 0x1A68 JUMP JUMPDEST DUP5 GT ISZERO PUSH2 0x17CE JUMPI PUSH1 0x40 MLOAD PUSH32 0x8C379A000000000000000000000000000000000000000000000000000000000 DUP2 MSTORE PUSH1 0x4 ADD PUSH2 0x17C5 SWAP1 PUSH2 0x5121 JUMP JUMPDEST PUSH1 0x40 MLOAD DUP1 SWAP2 SUB SWAP1 REVERT JUMPDEST PUSH0 PUSH2 0x17D8 DUP6 PUSH2 0x10B1 JUMP JUMPDEST SWAP1 POP PUSH2 0x17E4 DUP2 DUP7 PUSH2 0x2591 JUMP JUMPDEST PUSH2 0x17F8 PUSH2 0x17EF PUSH2 0x1D1A JUMP JUMPDEST DUP6 DUP6 DUP5 DUP10 PUSH2 0x2595 JUMP JUMPDEST DUP1 SWAP2 POP POP SWAP4 SWAP3 POP POP POP JUMP JUMPDEST PUSH1 0xF SLOAD DUP2 JUMP JUMPDEST DUP4 TIMESTAMP GT ISZERO PUSH2 0x184E JUMPI DUP4 PUSH1 0x40 MLOAD PUSH32 0x4683AF0E00000000000000000000000000000000000000000000000000000000 DUP2 MSTORE PUSH1 0x4 ADD PUSH2 0x1845 SWAP2 SWAP1 PUSH2 0x453E JUMP JUMPDEST PUSH1 0x40 MLOAD DUP1 SWAP2 SUB SWAP1 REVERT JUMPDEST PUSH0 PUSH2 0x18AF PUSH2 0x18A7 PUSH32 0xE48329057BFD03D55E49B547132E39CFFD9C1820AD7B9D4C5307691425D15ADF DUP10 DUP10 DUP10 PUSH1 0x40 MLOAD PUSH1 0x20 ADD PUSH2 0x188C SWAP5 SWAP4 SWAP3 SWAP2 SWAP1 PUSH2 0x513F JUMP JUMPDEST PUSH1 0x40 MLOAD PUSH1 0x20 DUP2 DUP4 SUB SUB DUP2 MSTORE SWAP1 PUSH1 0x40 MSTORE DUP1 MLOAD SWAP1 PUSH1 0x20 ADD KECCAK256 PUSH2 0x261D JUMP JUMPDEST DUP6 DUP6 DUP6 PUSH2 0x2636 JUMP JUMPDEST SWAP1 POP PUSH2 0x18BB DUP2 DUP8 PUSH2 0x2664 JUMP JUMPDEST PUSH2 0x18C5 DUP2 DUP9 PUSH2 0x2126 JUMP JUMPDEST POP POP POP POP POP POP POP JUMP JUMPDEST PUSH0 PUSH32 0xFFFFFFFFFFFFFFFFFFFFFFFFFFFFFFFFFFFFFFFFFFFFFFFFFFFFFFFFFFFFFFFF SWAP1 POP SWAP2 SWAP1 POP JUMP JUMPDEST PUSH0 PUSH2 0x1902 DUP3 PUSH0 PUSH2 0x26BB JUMP JUMPDEST SWAP1 POP SWAP2 SWAP1 POP JUMP JUMPDEST PUSH0 PUSH2 0x191C PUSH2 0x1916 DUP4 PUSH2 0x1253 JUMP JUMPDEST PUSH0 PUSH2 0x1CC2 JUMP JUMPDEST SWAP1 POP SWAP2 SWAP1 POP JUMP JUMPDEST DUP4 TIMESTAMP GT ISZERO PUSH2 0x1968 JUMPI DUP4 PUSH1 0x40 MLOAD PUSH32 0x6279130200000000000000000000000000000000000000000000000000000000 DUP2 MSTORE PUSH1 0x4 ADD PUSH2 0x195F SWAP2 SWAP1 PUSH2 0x453E JUMP JUMPDEST PUSH1 0x40 MLOAD DUP1 SWAP2 SUB SWAP1 REVERT JUMPDEST PUSH0 PUSH32 0x6E71EDAE12B1B97F4D1F60370FEF10105FA2FAAE0126114A169C64845D6126C9 DUP9 DUP9 DUP9 PUSH2 0x1996 DUP13 PUSH2 0x2713 JUMP JUMPDEST DUP10 PUSH1 0x40 MLOAD PUSH1 0x20 ADD PUSH2 0x19AC SWAP7 SWAP6 SWAP5 SWAP4 SWAP3 SWAP2 SWAP1 PUSH2 0x5182 JUMP JUMPDEST PUSH1 0x40 MLOAD PUSH1 0x20 DUP2 DUP4 SUB SUB DUP2 MSTORE SWAP1 PUSH1 0x40 MSTORE DUP1 MLOAD SWAP1 PUSH1 0x20 ADD KECCAK256 SWAP1 POP PUSH0 PUSH2 0x19CE DUP3 PUSH2 0x261D JUMP JUMPDEST SWAP1 POP PUSH0 PUSH2 0x19DD DUP3 DUP8 DUP8 DUP8 PUSH2 0x2636 JUMP JUMPDEST SWAP1 POP DUP10 PUSH20 0xFFFFFFFFFFFFFFFFFFFFFFFFFFFFFFFFFFFFFFFF AND DUP2 PUSH20 0xFFFFFFFFFFFFFFFFFFFFFFFFFFFFFFFFFFFFFFFF AND EQ PUSH2 0x1A51 JUMPI DUP1 DUP11 PUSH1 0x40 MLOAD PUSH32 0x4B800E4600000000000000000000000000000000000000000000000000000000 DUP2 MSTORE PUSH1 0x4 ADD PUSH2 0x1A48 SWAP3 SWAP2 SWAP1 PUSH2 0x51E1 JUMP JUMPDEST PUSH1 0x40 MLOAD DUP1 SWAP2 SUB SWAP1 REVERT JUMPDEST PUSH2 0x1A5C DUP11 DUP11 DUP11 PUSH2 0x1D21 JUMP JUMPDEST POP POP POP POP POP POP POP POP POP POP JUMP JUMPDEST PUSH0 PUSH2 0x1A72 DUP3 PUSH2 0x1253 JUMP JUMPDEST SWAP1 POP SWAP2 SWAP1 POP JUMP JUMPDEST PUSH2 0x1A81 PUSH2 0x1D72 JUMP JUMPDEST PUSH0 DUP2 LT ISZERO DUP1 ISZERO PUSH2 0x1A93 JUMPI POP PUSH2 0x1F4 DUP2 GT ISZERO JUMPDEST PUSH2 0x1AD2 JUMPI PUSH1 0x40 MLOAD PUSH32 0x8C379A000000000000000000000000000000000000000000000000000000000 DUP2 MSTORE PUSH1 0x4 ADD PUSH2 0x1AC9 SWAP1 PUSH2 0x4EC6 JUMP JUMPDEST PUSH1 0x40 MLOAD DUP1 SWAP2 SUB SWAP1 REVERT JUMPDEST DUP1 PUSH1 0x11 DUP2 SWAP1 SSTORE POP POP JUMP JUMPDEST PUSH0 PUSH1 0x1 PUSH0 DUP5 PUSH20 0xFFFFFFFFFFFFFFFFFFFFFFFFFFFFFFFFFFFFFFFF AND PUSH20 0xFFFFFFFFFFFFFFFFFFFFFFFFFFFFFFFFFFFFFFFF AND DUP2 MSTORE PUSH1 0x20 ADD SWAP1 DUP2 MSTORE PUSH1 0x20 ADD PUSH0 KECCAK256 PUSH0 DUP4 PUSH20 0xFFFFFFFFFFFFFFFFFFFFFFFFFFFFFFFFFFFFFFFF AND PUSH20 0xFFFFFFFFFFFFFFFFFFFFFFFFFFFFFFFFFFFFFFFF AND DUP2 MSTORE PUSH1 0x20 ADD SWAP1 DUP2 MSTORE PUSH1 0x20 ADD PUSH0 KECCAK256 SLOAD SWAP1 POP SWAP3 SWAP2 POP POP JUMP JUMPDEST PUSH1 0xE PUSH0 SWAP1 SLOAD SWAP1 PUSH2 0x100 EXP SWAP1 DIV PUSH20 0xFFFFFFFFFFFFFFFFFFFFFFFFFFFFFFFFFFFFFFFF AND DUP2 JUMP JUMPDEST PUSH0 DUP1 PUSH2 0x1B96 DUP4 PUSH2 0x1B91 PUSH2 0x2588 JUMP JUMPDEST PUSH2 0x1E02 JUMP JUMPDEST SWAP1 POP PUSH2 0x1BAC DUP2 DUP5 PUSH2 0x1BA7 SWAP2 SWAP1 PUSH2 0x4EE4 JUMP JUMPDEST PUSH2 0x2766 JUMP JUMPDEST SWAP2 POP POP SWAP2 SWAP1 POP JUMP JUMPDEST PUSH2 0x1BBC PUSH2 0x44EA JUMP JUMPDEST PUSH2 0x1BC6 DUP4 DUP4 PUSH2 0x2778 JUMP JUMPDEST SWAP1 POP SWAP3 SWAP2 POP POP JUMP JUMPDEST PUSH2 0x1BD6 PUSH2 0x1D72 JUMP JUMPDEST PUSH0 PUSH20 0xFFFFFFFFFFFFFFFFFFFFFFFFFFFFFFFFFFFFFFFF AND DUP2 PUSH20 0xFFFFFFFFFFFFFFFFFFFFFFFFFFFFFFFFFFFFFFFF AND SUB PUSH2 0x1C46 JUMPI PUSH0 PUSH1 0x40 MLOAD PUSH32 0x1E4FBDF700000000000000000000000000000000000000000000000000000000 DUP2 MSTORE PUSH1 0x4 ADD PUSH2 0x1C3D SWAP2 SWAP1 PUSH2 0x4814 JUMP JUMPDEST PUSH1 0x40 MLOAD DUP1 SWAP2 SUB SWAP1 REVERT JUMPDEST PUSH2 0x1C4F DUP2 PUSH2 0x2315 JUMP JUMPDEST POP JUMP JUMPDEST PUSH1 0xD PUSH0 SWAP1 SLOAD SWAP1 PUSH2 0x100 EXP SWAP1 DIV PUSH20 0xFFFFFFFFFFFFFFFFFFFFFFFFFFFFFFFFFFFFFFFF AND DUP2 JUMP JUMPDEST PUSH2 0x1C7F PUSH2 0x1D72 JUMP JUMPDEST DUP1 PUSH1 0xD PUSH0 PUSH2 0x100 EXP DUP2 SLOAD DUP2 PUSH20 0xFFFFFFFFFFFFFFFFFFFFFFFFFFFFFFFFFFFFFFFF MUL NOT AND SWAP1 DUP4 PUSH20 0xFFFFFFFFFFFFFFFFFFFFFFFFFFFFFFFFFFFFFFFF AND MUL OR SWAP1 SSTORE POP POP JUMP JUMPDEST PUSH0 PUSH2 0x1D12 PUSH1 0x1 PUSH2 0x1CD0 PUSH2 0xBB8 JUMP JUMPDEST PUSH2 0x1CDA SWAP2 SWAP1 PUSH2 0x4E49 JUMP JUMPDEST PUSH2 0x1CE2 PUSH2 0x1F05 JUMP JUMPDEST PUSH1 0xA PUSH2 0x1CEE SWAP2 SWAP1 PUSH2 0x5337 JUMP JUMPDEST PUSH2 0x1CF6 PUSH2 0xD4B JUMP JUMPDEST PUSH2 0x1D00 SWAP2 SWAP1 PUSH2 0x4E49 JUMP JUMPDEST DUP5 DUP7 PUSH2 0x27D7 SWAP1 SWAP4 SWAP3 SWAP2 SWAP1 PUSH4 0xFFFFFFFF AND JUMP JUMPDEST SWAP1 POP SWAP3 SWAP2 POP POP JUMP JUMPDEST PUSH0 CALLER SWAP1 POP SWAP1 JUMP JUMPDEST PUSH2 0x1D2E DUP4 DUP4 DUP4 PUSH1 0x1 PUSH2 0x282C JUMP JUMPDEST POP POP POP JUMP JUMPDEST PUSH0 PUSH1 0x10 SLOAD SWAP1 POP SWAP1 JUMP JUMPDEST PUSH0 PUSH2 0x1D57 DUP3 PUSH2 0x2710 PUSH1 0x1 DUP7 PUSH2 0x27D7 SWAP1 SWAP4 SWAP3 SWAP2 SWAP1 PUSH4 0xFFFFFFFF AND JUMP JUMPDEST SWAP1 POP SWAP3 SWAP2 POP POP JUMP JUMPDEST PUSH0 PUSH2 0x1D6B DUP3 PUSH1 0x1 PUSH2 0x26BB JUMP JUMPDEST SWAP1 POP SWAP2 SWAP1 POP JUMP JUMPDEST PUSH2 0x1D7A PUSH2 0x1D1A JUMP JUMPDEST PUSH20 0xFFFFFFFFFFFFFFFFFFFFFFFFFFFFFFFFFFFFFFFF AND PUSH2 0x1D98 PUSH2 0x13AC JUMP JUMPDEST PUSH20 0xFFFFFFFFFFFFFFFFFFFFFFFFFFFFFFFFFFFFFFFF AND EQ PUSH2 0x1DF7 JUMPI PUSH2 0x1DBB PUSH2 0x1D1A JUMP JUMPDEST PUSH1 0x40 MLOAD PUSH32 0x118CDAA700000000000000000000000000000000000000000000000000000000 DUP2 MSTORE PUSH1 0x4 ADD PUSH2 0x1DEE SWAP2 SWAP1 PUSH2 0x4814 JUMP JUMPDEST PUSH1 0x40 MLOAD DUP1 SWAP2 SUB SWAP1 REVERT JUMPDEST JUMP JUMPDEST PUSH0 PUSH1 0x11 SLOAD SWAP1 POP SWAP1 JUMP JUMPDEST PUSH0 PUSH2 0x1E28 DUP3 PUSH2 0x2710 DUP5 PUSH2 0x1E15 SWAP2 SWAP1 PUSH2 0x4E49 JUMP JUMPDEST PUSH1 0x1 DUP7 PUSH2 0x27D7 SWAP1 SWAP4 SWAP3 SWAP2 SWAP1 PUSH4 0xFFFFFFFF AND JUMP JUMPDEST SWAP1 POP SWAP3 SWAP2 POP POP JUMP JUMPDEST PUSH0 PUSH1 0xE PUSH0 SWAP1 SLOAD SWAP1 PUSH2 0x100 EXP SWAP1 DIV PUSH20 0xFFFFFFFFFFFFFFFFFFFFFFFFFFFFFFFFFFFFFFFF AND SWAP1 POP SWAP1 JUMP JUMPDEST PUSH0 DUP1 PUSH2 0x1E62 PUSH2 0x1D1A JUMP JUMPDEST SWAP1 POP PUSH2 0x1E6F DUP6 DUP3 DUP6 PUSH2 0x23D8 JUMP JUMPDEST PUSH2 0x1E7A DUP6 DUP6 DUP6 PUSH2 0x29FB JUMP JUMPDEST PUSH1 0x1 SWAP2 POP POP SWAP4 SWAP3 POP POP POP JUMP JUMPDEST PUSH0 PUSH20 0xFFFFFFFFFFFFFFFFFFFFFFFFFFFFFFFFFFFFFFFF AND DUP3 PUSH20 0xFFFFFFFFFFFFFFFFFFFFFFFFFFFFFFFFFFFFFFFF AND SUB PUSH2 0x1EF6 JUMPI PUSH0 PUSH1 0x40 MLOAD PUSH32 0x96C6FD1E00000000000000000000000000000000000000000000000000000000 DUP2 MSTORE PUSH1 0x4 ADD PUSH2 0x1EED SWAP2 SWAP1 PUSH2 0x4814 JUMP JUMPDEST PUSH1 0x40 MLOAD DUP1 SWAP2 SUB SWAP1 REVERT JUMPDEST PUSH2 0x1F01 DUP3 PUSH0 DUP4 PUSH2 0x2AEB JUMP JUMPDEST POP POP JUMP JUMPDEST PUSH0 SWAP1 JUMP JUMPDEST PUSH0 PUSH32 0x0 PUSH20 0xFFFFFFFFFFFFFFFFFFFFFFFFFFFFFFFFFFFFFFFF AND ADDRESS PUSH20 0xFFFFFFFFFFFFFFFFFFFFFFFFFFFFFFFFFFFFFFFF AND EQ DUP1 ISZERO PUSH2 0x1F84 JUMPI POP PUSH32 0x0 CHAINID EQ JUMPDEST ISZERO PUSH2 0x1FB1 JUMPI PUSH32 0x0 SWAP1 POP PUSH2 0x1FBC JUMP JUMPDEST PUSH2 0x1FB9 PUSH2 0x2AFB JUMP JUMPDEST SWAP1 POP JUMPDEST SWAP1 JUMP JUMPDEST PUSH0 PUSH6 0xFFFFFFFFFFFF DUP1 AND DUP3 GT ISZERO PUSH2 0x2010 JUMPI PUSH1 0x30 DUP3 PUSH1 0x40 MLOAD PUSH32 0x6DFCC65000000000000000000000000000000000000000000000000000000000 DUP2 MSTORE PUSH1 0x4 ADD PUSH2 0x2007 SWAP3 SWAP2 SWAP1 PUSH2 0x53C3 JUMP JUMPDEST PUSH1 0x40 MLOAD DUP1 SWAP2 SUB SWAP1 REVERT JUMPDEST DUP2 SWAP1 POP SWAP2 SWAP1 POP JUMP JUMPDEST PUSH0 DUP1 DUP4 PUSH0 ADD DUP1 SLOAD SWAP1 POP SWAP1 POP PUSH0 DUP1 DUP3 SWAP1 POP PUSH1 0x5 DUP4 GT ISZERO PUSH2 0x2099 JUMPI PUSH0 PUSH2 0x203B DUP5 PUSH2 0x2B90 JUMP JUMPDEST DUP5 PUSH2 0x2046 SWAP2 SWAP1 PUSH2 0x4EE4 JUMP JUMPDEST SWAP1 POP PUSH2 0x2054 DUP8 PUSH0 ADD DUP3 PUSH2 0x2C86 JUMP JUMPDEST PUSH0 ADD PUSH0 SWAP1 SLOAD SWAP1 PUSH2 0x100 EXP SWAP1 DIV PUSH6 0xFFFFFFFFFFFF AND PUSH6 0xFFFFFFFFFFFF AND DUP7 PUSH6 0xFFFFFFFFFFFF AND LT ISZERO PUSH2 0x2087 JUMPI DUP1 SWAP2 POP PUSH2 0x2097 JUMP JUMPDEST PUSH1 0x1 DUP2 PUSH2 0x2094 SWAP2 SWAP1 PUSH2 0x4E49 JUMP JUMPDEST SWAP3 POP JUMPDEST POP JUMPDEST PUSH0 PUSH2 0x20A8 DUP8 PUSH0 ADD DUP8 DUP6 DUP6 PUSH2 0x2C98 JUMP JUMPDEST SWAP1 POP PUSH0 DUP2 EQ PUSH2 0x20F7 JUMPI PUSH2 0x20C9 DUP8 PUSH0 ADD PUSH1 0x1 DUP4 PUSH2 0x20C4 SWAP2 SWAP1 PUSH2 0x4EE4 JUMP JUMPDEST PUSH2 0x2C86 JUMP JUMPDEST PUSH0 ADD PUSH1 0x6 SWAP1 SLOAD SWAP1 PUSH2 0x100 EXP SWAP1 DIV PUSH26 0xFFFFFFFFFFFFFFFFFFFFFFFFFFFFFFFFFFFFFFFFFFFFFFFFFFFF AND PUSH2 0x20F9 JUMP JUMPDEST PUSH0 JUMPDEST SWAP5 POP POP POP POP POP SWAP3 SWAP2 POP POP JUMP JUMPDEST PUSH0 PUSH2 0x210F NUMBER PUSH2 0x1FBF JUMP JUMPDEST SWAP1 POP SWAP1 JUMP JUMPDEST PUSH0 PUSH2 0x211F DUP3 PUSH0 PUSH2 0x1CC2 JUMP JUMPDEST SWAP1 POP SWAP2 SWAP1 POP JUMP JUMPDEST PUSH0 PUSH2 0x2130 DUP4 PUSH2 0x10E2 JUMP JUMPDEST SWAP1 POP DUP2 PUSH1 0x8 PUSH0 DUP6 PUSH20 0xFFFFFFFFFFFFFFFFFFFFFFFFFFFFFFFFFFFFFFFF AND PUSH20 0xFFFFFFFFFFFFFFFFFFFFFFFFFFFFFFFFFFFFFFFF AND DUP2 MSTORE PUSH1 0x20 ADD SWAP1 DUP2 MSTORE PUSH1 0x20 ADD PUSH0 KECCAK256 PUSH0 PUSH2 0x100 EXP DUP2 SLOAD DUP2 PUSH20 0xFFFFFFFFFFFFFFFFFFFFFFFFFFFFFFFFFFFFFFFF MUL NOT AND SWAP1 DUP4 PUSH20 0xFFFFFFFFFFFFFFFFFFFFFFFFFFFFFFFFFFFFFFFF AND MUL OR SWAP1 SSTORE POP DUP2 PUSH20 0xFFFFFFFFFFFFFFFFFFFFFFFFFFFFFFFFFFFFFFFF AND DUP2 PUSH20 0xFFFFFFFFFFFFFFFFFFFFFFFFFFFFFFFFFFFFFFFF AND DUP5 PUSH20 0xFFFFFFFFFFFFFFFFFFFFFFFFFFFFFFFFFFFFFFFF AND PUSH32 0x3134E8A2E6D97E929A7E54011EA5485D7D196DD5F0BA4D4EF95803E8E3FC257F PUSH1 0x40 MLOAD PUSH1 0x40 MLOAD DUP1 SWAP2 SUB SWAP1 LOG4 PUSH2 0x2231 DUP2 DUP4 PUSH2 0x222C DUP7 PUSH2 0x2D0D JUMP JUMPDEST PUSH2 0x2D1E JUMP JUMPDEST POP POP POP JUMP JUMPDEST PUSH0 PUSH2 0x2248 DUP4 PUSH2 0x2243 PUSH2 0x2588 JUMP JUMPDEST PUSH2 0x1E02 JUMP JUMPDEST SWAP1 POP PUSH0 PUSH2 0x2253 PUSH2 0x2F8E JUMP JUMPDEST SWAP1 POP PUSH2 0x2261 DUP7 DUP7 DUP7 DUP7 PUSH2 0x2FB6 JUMP JUMPDEST PUSH0 DUP3 GT DUP1 ISZERO PUSH2 0x229C JUMPI POP ADDRESS PUSH20 0xFFFFFFFFFFFFFFFFFFFFFFFFFFFFFFFFFFFFFFFF AND DUP2 PUSH20 0xFFFFFFFFFFFFFFFFFFFFFFFFFFFFFFFFFFFFFFFF AND EQ ISZERO JUMPDEST ISZERO PUSH2 0x22B4 JUMPI PUSH2 0x22B3 PUSH2 0x22AC PUSH2 0xEE3 JUMP JUMPDEST DUP3 DUP5 PUSH2 0x3059 JUMP JUMPDEST JUMPDEST POP POP POP POP POP POP JUMP JUMPDEST POP POP JUMP JUMPDEST PUSH0 PUSH2 0x230E PUSH2 0x2309 PUSH1 0x9 PUSH0 DUP6 PUSH20 0xFFFFFFFFFFFFFFFFFFFFFFFFFFFFFFFFFFFFFFFF AND PUSH20 0xFFFFFFFFFFFFFFFFFFFFFFFFFFFFFFFFFFFFFFFF AND DUP2 MSTORE PUSH1 0x20 ADD SWAP1 DUP2 MSTORE PUSH1 0x20 ADD PUSH0 KECCAK256 PUSH2 0x30D8 JUMP JUMPDEST PUSH2 0x30E7 JUMP JUMPDEST SWAP1 POP SWAP2 SWAP1 POP JUMP JUMPDEST PUSH0 PUSH1 0xB PUSH0 SWAP1 SLOAD SWAP1 PUSH2 0x100 EXP SWAP1 DIV PUSH20 0xFFFFFFFFFFFFFFFFFFFFFFFFFFFFFFFFFFFFFFFF AND SWAP1 POP DUP2 PUSH1 0xB PUSH0 PUSH2 0x100 EXP DUP2 SLOAD DUP2 PUSH20 0xFFFFFFFFFFFFFFFFFFFFFFFFFFFFFFFFFFFFFFFF MUL NOT AND SWAP1 DUP4 PUSH20 0xFFFFFFFFFFFFFFFFFFFFFFFFFFFFFFFFFFFFFFFF AND MUL OR SWAP1 SSTORE POP DUP2 PUSH20 0xFFFFFFFFFFFFFFFFFFFFFFFFFFFFFFFFFFFFFFFF AND DUP2 PUSH20 0xFFFFFFFFFFFFFFFFFFFFFFFFFFFFFFFFFFFFFFFF AND PUSH32 0x8BE0079C531659141344CD1FD0A4F28419497F9722A3DAAFE3B4186F6B6457E0 PUSH1 0x40 MLOAD PUSH1 0x40 MLOAD DUP1 SWAP2 SUB SWAP1 LOG3 POP POP JUMP JUMPDEST PUSH0 PUSH2 0x23E3 DUP5 DUP5 PUSH2 0x1ADC JUMP JUMPDEST SWAP1 POP PUSH32 0xFFFFFFFFFFFFFFFFFFFFFFFFFFFFFFFFFFFFFFFFFFFFFFFFFFFFFFFFFFFFFFFF DUP2 EQ PUSH2 0x2464 JUMPI DUP2 DUP2 LT ISZERO PUSH2 0x2455 JUMPI DUP3 DUP2 DUP4 PUSH1 0x40 MLOAD PUSH32 0xFB8F41B200000000000000000000000000000000000000000000000000000000 DUP2 MSTORE PUSH1 0x4 ADD PUSH2 0x244C SWAP4 SWAP3 SWAP2 SWAP1 PUSH2 0x53EA JUMP JUMPDEST PUSH1 0x40 MLOAD DUP1 SWAP2 SUB SWAP1 REVERT JUMPDEST PUSH2 0x2463 DUP5 DUP5 DUP5 DUP5 SUB PUSH0 PUSH2 0x282C JUMP JUMPDEST JUMPDEST POP POP POP POP JUMP JUMPDEST PUSH0 PUSH2 0x2474 DUP3 PUSH2 0x313E JUMP JUMPDEST SWAP1 POP SWAP2 SWAP1 POP JUMP JUMPDEST PUSH1 0x60 PUSH2 0x24B1 PUSH1 0x5 PUSH32 0x0 PUSH2 0x3184 SWAP1 SWAP2 SWAP1 PUSH4 0xFFFFFFFF AND JUMP JUMPDEST SWAP1 POP SWAP1 JUMP JUMPDEST PUSH1 0x60 PUSH2 0x24EC PUSH1 0x6 PUSH32 0x0 PUSH2 0x3184 SWAP1 SWAP2 SWAP1 PUSH4 0xFFFFFFFF AND JUMP JUMPDEST SWAP1 POP SWAP1 JUMP JUMPDEST PUSH0 DUP1 DUP3 PUSH0 ADD DUP1 SLOAD SWAP1 POP SWAP1 POP PUSH0 DUP2 EQ PUSH2 0x2549 JUMPI PUSH2 0x251B DUP4 PUSH0 ADD PUSH1 0x1 DUP4 PUSH2 0x2516 SWAP2 SWAP1 PUSH2 0x4EE4 JUMP JUMPDEST PUSH2 0x2C86 JUMP JUMPDEST PUSH0 ADD PUSH1 0x6 SWAP1 SLOAD SWAP1 PUSH2 0x100 EXP SWAP1 DIV PUSH26 0xFFFFFFFFFFFFFFFFFFFFFFFFFFFFFFFFFFFFFFFFFFFFFFFFFFFF AND PUSH2 0x254B JUMP JUMPDEST PUSH0 JUMPDEST SWAP2 POP POP SWAP2 SWAP1 POP JUMP JUMPDEST PUSH0 DUP1 PUSH2 0x255D PUSH2 0x1D1A JUMP JUMPDEST SWAP1 POP PUSH2 0x256A DUP2 DUP6 DUP6 PUSH2 0x29FB JUMP JUMPDEST PUSH1 0x1 SWAP2 POP POP SWAP3 SWAP2 POP POP JUMP JUMPDEST PUSH0 PUSH2 0x2581 DUP3 PUSH1 0x1 PUSH2 0x1CC2 JUMP JUMPDEST SWAP1 POP SWAP2 SWAP1 POP JUMP JUMPDEST PUSH0 PUSH1 0xF SLOAD SWAP1 POP SWAP1 JUMP JUMPDEST POP POP JUMP JUMPDEST PUSH0 PUSH2 0x25A7 DUP4 PUSH2 0x25A2 PUSH2 0x1D33 JUMP JUMPDEST PUSH2 0x1D3C JUMP JUMPDEST SWAP1 POP PUSH0 PUSH2 0x25B2 PUSH2 0x3231 JUMP JUMPDEST SWAP1 POP PUSH2 0x25C1 DUP8 DUP8 DUP8 DUP8 DUP8 PUSH2 0x3259 JUMP JUMPDEST PUSH0 DUP3 GT DUP1 ISZERO PUSH2 0x25FC JUMPI POP ADDRESS PUSH20 0xFFFFFFFFFFFFFFFFFFFFFFFFFFFFFFFFFFFFFFFF AND DUP2 PUSH20 0xFFFFFFFFFFFFFFFFFFFFFFFFFFFFFFFFFFFFFFFF AND EQ ISZERO JUMPDEST ISZERO PUSH2 0x2614 JUMPI PUSH2 0x2613 PUSH2 0x260C PUSH2 0xEE3 JUMP JUMPDEST DUP3 DUP5 PUSH2 0x3059 JUMP JUMPDEST JUMPDEST POP POP POP POP POP POP POP JUMP JUMPDEST PUSH0 PUSH2 0x262F PUSH2 0x2629 PUSH2 0x1F09 JUMP JUMPDEST DUP4 PUSH2 0x3352 JUMP JUMPDEST SWAP1 POP SWAP2 SWAP1 POP JUMP JUMPDEST PUSH0 DUP1 PUSH0 DUP1 PUSH2 0x2646 DUP9 DUP9 DUP9 DUP9 PUSH2 0x3392 JUMP JUMPDEST SWAP3 POP SWAP3 POP SWAP3 POP PUSH2 0x2656 DUP3 DUP3 PUSH2 0x3479 JUMP JUMPDEST DUP3 SWAP4 POP POP POP POP SWAP5 SWAP4 POP POP POP POP JUMP JUMPDEST PUSH0 PUSH2 0x266E DUP4 PUSH2 0x2713 JUMP JUMPDEST SWAP1 POP DUP1 DUP3 EQ PUSH2 0x26B6 JUMPI DUP3 DUP2 PUSH1 0x40 MLOAD PUSH32 0x752D88C000000000000000000000000000000000000000000000000000000000 DUP2 MSTORE PUSH1 0x4 ADD PUSH2 0x26AD SWAP3 SWAP2 SWAP1 PUSH2 0x541F JUMP JUMPDEST PUSH1 0x40 MLOAD DUP1 SWAP2 SUB SWAP1 REVERT JUMPDEST POP POP POP JUMP JUMPDEST PUSH0 PUSH2 0x270B PUSH2 0x26C7 PUSH2 0x1F05 JUMP JUMPDEST PUSH1 0xA PUSH2 0x26D3 SWAP2 SWAP1 PUSH2 0x5337 JUMP JUMPDEST PUSH2 0x26DB PUSH2 0xD4B JUMP JUMPDEST PUSH2 0x26E5 SWAP2 SWAP1 PUSH2 0x4E49 JUMP JUMPDEST PUSH1 0x1 PUSH2 0x26EF PUSH2 0xBB8 JUMP JUMPDEST PUSH2 0x26F9 SWAP2 SWAP1 PUSH2 0x4E49 JUMP JUMPDEST DUP5 DUP7 PUSH2 0x27D7 SWAP1 SWAP4 SWAP3 SWAP2 SWAP1 PUSH4 0xFFFFFFFF AND JUMP JUMPDEST SWAP1 POP SWAP3 SWAP2 POP POP JUMP JUMPDEST PUSH0 PUSH1 0x7 PUSH0 DUP4 PUSH20 0xFFFFFFFFFFFFFFFFFFFFFFFFFFFFFFFFFFFFFFFF AND PUSH20 0xFFFFFFFFFFFFFFFFFFFFFFFFFFFFFFFFFFFFFFFF AND DUP2 MSTORE PUSH1 0x20 ADD SWAP1 DUP2 MSTORE PUSH1 0x20 ADD PUSH0 KECCAK256 PUSH0 DUP2 SLOAD DUP1 SWAP3 SWAP2 SWAP1 PUSH1 0x1 ADD SWAP2 SWAP1 POP SSTORE SWAP1 POP SWAP2 SWAP1 POP JUMP JUMPDEST PUSH0 PUSH2 0x2771 DUP3 PUSH0 PUSH2 0x26BB JUMP JUMPDEST SWAP1 POP SWAP2 SWAP1 POP JUMP JUMPDEST PUSH2 0x2780 PUSH2 0x44EA JUMP JUMPDEST PUSH2 0x27CF DUP3 PUSH1 0x9 PUSH0 DUP7 PUSH20 0xFFFFFFFFFFFFFFFFFFFFFFFFFFFFFFFFFFFFFFFF AND PUSH20 0xFFFFFFFFFFFFFFFFFFFFFFFFFFFFFFFFFFFFFFFF AND DUP2 MSTORE PUSH1 0x20 ADD SWAP1 DUP2 MSTORE PUSH1 0x20 ADD PUSH0 KECCAK256 PUSH2 0x35DB SWAP1 SWAP2 SWAP1 PUSH4 0xFFFFFFFF AND JUMP JUMPDEST SWAP1 POP SWAP3 SWAP2 POP POP JUMP JUMPDEST PUSH0 DUP1 PUSH2 0x27E4 DUP7 DUP7 DUP7 PUSH2 0x36AA JUMP JUMPDEST SWAP1 POP PUSH2 0x27EF DUP4 PUSH2 0x37A9 JUMP JUMPDEST DUP1 ISZERO PUSH2 0x280B JUMPI POP PUSH0 DUP5 DUP1 PUSH2 0x2806 JUMPI PUSH2 0x2805 PUSH2 0x5446 JUMP JUMPDEST JUMPDEST DUP7 DUP9 MULMOD GT JUMPDEST ISZERO PUSH2 0x2820 JUMPI PUSH1 0x1 DUP2 PUSH2 0x281D SWAP2 SWAP1 PUSH2 0x4E49 JUMP JUMPDEST SWAP1 POP JUMPDEST DUP1 SWAP2 POP POP SWAP5 SWAP4 POP POP POP POP JUMP JUMPDEST PUSH0 PUSH20 0xFFFFFFFFFFFFFFFFFFFFFFFFFFFFFFFFFFFFFFFF AND DUP5 PUSH20 0xFFFFFFFFFFFFFFFFFFFFFFFFFFFFFFFFFFFFFFFF AND SUB PUSH2 0x289C JUMPI PUSH0 PUSH1 0x40 MLOAD PUSH32 0xE602DF0500000000000000000000000000000000000000000000000000000000 DUP2 MSTORE PUSH1 0x4 ADD PUSH2 0x2893 SWAP2 SWAP1 PUSH2 0x4814 JUMP JUMPDEST PUSH1 0x40 MLOAD DUP1 SWAP2 SUB SWAP1 REVERT JUMPDEST PUSH0 PUSH20 0xFFFFFFFFFFFFFFFFFFFFFFFFFFFFFFFFFFFFFFFF AND DUP4 PUSH20 0xFFFFFFFFFFFFFFFFFFFFFFFFFFFFFFFFFFFFFFFF AND SUB PUSH2 0x290C JUMPI PUSH0 PUSH1 0x40 MLOAD PUSH32 0x94280D6200000000000000000000000000000000000000000000000000000000 DUP2 MSTORE PUSH1 0x4 ADD PUSH2 0x2903 SWAP2 SWAP1 PUSH2 0x4814 JUMP JUMPDEST PUSH1 0x40 MLOAD DUP1 SWAP2 SUB SWAP1 REVERT JUMPDEST DUP2 PUSH1 0x1 PUSH0 DUP7 PUSH20 0xFFFFFFFFFFFFFFFFFFFFFFFFFFFFFFFFFFFFFFFF AND PUSH20 0xFFFFFFFFFFFFFFFFFFFFFFFFFFFFFFFFFFFFFFFF AND DUP2 MSTORE PUSH1 0x20 ADD SWAP1 DUP2 MSTORE PUSH1 0x20 ADD PUSH0 KECCAK256 PUSH0 DUP6 PUSH20 0xFFFFFFFFFFFFFFFFFFFFFFFFFFFFFFFFFFFFFFFF AND PUSH20 0xFFFFFFFFFFFFFFFFFFFFFFFFFFFFFFFFFFFFFFFF AND DUP2 MSTORE PUSH1 0x20 ADD SWAP1 DUP2 MSTORE PUSH1 0x20 ADD PUSH0 KECCAK256 DUP2 SWAP1 SSTORE POP DUP1 ISZERO PUSH2 0x29F5 JUMPI DUP3 PUSH20 0xFFFFFFFFFFFFFFFFFFFFFFFFFFFFFFFFFFFFFFFF AND DUP5 PUSH20 0xFFFFFFFFFFFFFFFFFFFFFFFFFFFFFFFFFFFFFFFF AND PUSH32 0x8C5BE1E5EBEC7D5BD14F71427D1E84F3DD0314C0F7B2291E5B200AC8C7C3B925 DUP5 PUSH1 0x40 MLOAD PUSH2 0x29EC SWAP2 SWAP1 PUSH2 0x453E JUMP JUMPDEST PUSH1 0x40 MLOAD DUP1 SWAP2 SUB SWAP1 LOG3 JUMPDEST POP POP POP POP JUMP JUMPDEST PUSH0 PUSH20 0xFFFFFFFFFFFFFFFFFFFFFFFFFFFFFFFFFFFFFFFF AND DUP4 PUSH20 0xFFFFFFFFFFFFFFFFFFFFFFFFFFFFFFFFFFFFFFFF AND SUB PUSH2 0x2A6B JUMPI PUSH0 PUSH1 0x40 MLOAD PUSH32 0x96C6FD1E00000000000000000000000000000000000000000000000000000000 DUP2 MSTORE PUSH1 0x4 ADD PUSH2 0x2A62 SWAP2 SWAP1 PUSH2 0x4814 JUMP JUMPDEST PUSH1 0x40 MLOAD DUP1 SWAP2 SUB SWAP1 REVERT JUMPDEST PUSH0 PUSH20 0xFFFFFFFFFFFFFFFFFFFFFFFFFFFFFFFFFFFFFFFF AND DUP3 PUSH20 0xFFFFFFFFFFFFFFFFFFFFFFFFFFFFFFFFFFFFFFFF AND SUB PUSH2 0x2ADB JUMPI PUSH0 PUSH1 0x40 MLOAD PUSH32 0xEC442F0500000000000000000000000000000000000000000000000000000000 DUP2 MSTORE PUSH1 0x4 ADD PUSH2 0x2AD2 SWAP2 SWAP1 PUSH2 0x4814 JUMP JUMPDEST PUSH1 0x40 MLOAD DUP1 SWAP2 SUB SWAP1 REVERT JUMPDEST PUSH2 0x2AE6 DUP4 DUP4 DUP4 PUSH2 0x2AEB JUMP JUMPDEST POP POP POP JUMP JUMPDEST PUSH2 0x2AF6 DUP4 DUP4 DUP4 PUSH2 0x37D6 JUMP JUMPDEST POP POP POP JUMP JUMPDEST PUSH0 PUSH32 0x8B73C3C69BB8FE3D512ECC4CF759CC79239F7B179B0FFACAA9A75D522B39400F PUSH32 0x0 PUSH32 0x0 CHAINID ADDRESS PUSH1 0x40 MLOAD PUSH1 0x20 ADD PUSH2 0x2B75 SWAP6 SWAP5 SWAP4 SWAP3 SWAP2 SWAP1 PUSH2 0x5473 JUMP JUMPDEST PUSH1 0x40 MLOAD PUSH1 0x20 DUP2 DUP4 SUB SUB DUP2 MSTORE SWAP1 PUSH1 0x40 MSTORE DUP1 MLOAD SWAP1 PUSH1 0x20 ADD KECCAK256 SWAP1 POP SWAP1 JUMP JUMPDEST PUSH0 DUP1 DUP3 SUB PUSH2 0x2BA0 JUMPI PUSH0 SWAP1 POP PUSH2 0x2C81 JUMP JUMPDEST PUSH0 PUSH1 0x1 PUSH2 0x2BAC DUP5 PUSH2 0x3884 JUMP JUMPDEST SWAP1 SHR PUSH1 0x1 SWAP1 SHL SWAP1 POP PUSH1 0x1 DUP2 DUP5 DUP2 PUSH2 0x2BC6 JUMPI PUSH2 0x2BC5 PUSH2 0x5446 JUMP JUMPDEST JUMPDEST DIV DUP3 ADD SWAP1 SHR SWAP1 POP PUSH1 0x1 DUP2 DUP5 DUP2 PUSH2 0x2BDF JUMPI PUSH2 0x2BDE PUSH2 0x5446 JUMP JUMPDEST JUMPDEST DIV DUP3 ADD SWAP1 SHR SWAP1 POP PUSH1 0x1 DUP2 DUP5 DUP2 PUSH2 0x2BF8 JUMPI PUSH2 0x2BF7 PUSH2 0x5446 JUMP JUMPDEST JUMPDEST DIV DUP3 ADD SWAP1 SHR SWAP1 POP PUSH1 0x1 DUP2 DUP5 DUP2 PUSH2 0x2C11 JUMPI PUSH2 0x2C10 PUSH2 0x5446 JUMP JUMPDEST JUMPDEST DIV DUP3 ADD SWAP1 SHR SWAP1 POP PUSH1 0x1 DUP2 DUP5 DUP2 PUSH2 0x2C2A JUMPI PUSH2 0x2C29 PUSH2 0x5446 JUMP JUMPDEST JUMPDEST DIV DUP3 ADD SWAP1 SHR SWAP1 POP PUSH1 0x1 DUP2 DUP5 DUP2 PUSH2 0x2C43 JUMPI PUSH2 0x2C42 PUSH2 0x5446 JUMP JUMPDEST JUMPDEST DIV DUP3 ADD SWAP1 SHR SWAP1 POP PUSH1 0x1 DUP2 DUP5 DUP2 PUSH2 0x2C5C JUMPI PUSH2 0x2C5B PUSH2 0x5446 JUMP JUMPDEST JUMPDEST DIV DUP3 ADD SWAP1 SHR SWAP1 POP PUSH2 0x2C7D DUP2 DUP3 DUP6 DUP2 PUSH2 0x2C77 JUMPI PUSH2 0x2C76 PUSH2 0x5446 JUMP JUMPDEST JUMPDEST DIV PUSH2 0x395B JUMP JUMPDEST SWAP2 POP POP JUMPDEST SWAP2 SWAP1 POP JUMP JUMPDEST PUSH0 DUP3 PUSH0 MSTORE DUP2 PUSH1 0x20 PUSH0 KECCAK256 ADD SWAP1 POP SWAP3 SWAP2 POP POP JUMP JUMPDEST PUSH0 JUMPDEST DUP2 DUP4 LT ISZERO PUSH2 0x2D02 JUMPI PUSH0 PUSH2 0x2CAD DUP5 DUP5 PUSH2 0x3973 JUMP JUMPDEST SWAP1 POP DUP5 PUSH6 0xFFFFFFFFFFFF AND PUSH2 0x2CC2 DUP8 DUP4 PUSH2 0x2C86 JUMP JUMPDEST PUSH0 ADD PUSH0 SWAP1 SLOAD SWAP1 PUSH2 0x100 EXP SWAP1 DIV PUSH6 0xFFFFFFFFFFFF AND PUSH6 0xFFFFFFFFFFFF AND GT ISZERO PUSH2 0x2CEC JUMPI DUP1 SWAP3 POP PUSH2 0x2CFC JUMP JUMPDEST PUSH1 0x1 DUP2 PUSH2 0x2CF9 SWAP2 SWAP1 PUSH2 0x4E49 JUMP JUMPDEST SWAP4 POP JUMPDEST POP PUSH2 0x2C9A JUMP JUMPDEST DUP2 SWAP1 POP SWAP5 SWAP4 POP POP POP POP JUMP JUMPDEST PUSH0 PUSH2 0x2D17 DUP3 PUSH2 0x1253 JUMP JUMPDEST SWAP1 POP SWAP2 SWAP1 POP JUMP JUMPDEST DUP2 PUSH20 0xFFFFFFFFFFFFFFFFFFFFFFFFFFFFFFFFFFFFFFFF AND DUP4 PUSH20 0xFFFFFFFFFFFFFFFFFFFFFFFFFFFFFFFFFFFFFFFF AND EQ ISZERO DUP1 ISZERO PUSH2 0x2D59 JUMPI POP PUSH0 DUP2 GT JUMPDEST ISZERO PUSH2 0x2F89 JUMPI PUSH0 PUSH20 0xFFFFFFFFFFFFFFFFFFFFFFFFFFFFFFFFFFFFFFFF AND DUP4 PUSH20 0xFFFFFFFFFFFFFFFFFFFFFFFFFFFFFFFFFFFFFFFF AND EQ PUSH2 0x2E73 JUMPI PUSH0 DUP1 PUSH2 0x2DE4 PUSH1 0x9 PUSH0 DUP8 PUSH20 0xFFFFFFFFFFFFFFFFFFFFFFFFFFFFFFFFFFFFFFFF AND PUSH20 0xFFFFFFFFFFFFFFFFFFFFFFFFFFFFFFFFFFFFFFFF AND DUP2 MSTORE PUSH1 0x20 ADD SWAP1 DUP2 MSTORE PUSH1 0x20 ADD PUSH0 KECCAK256 PUSH2 0x3998 PUSH2 0x2DDF DUP7 PUSH2 0x39AD JUMP JUMPDEST PUSH2 0x3A1A JUMP JUMPDEST PUSH26 0xFFFFFFFFFFFFFFFFFFFFFFFFFFFFFFFFFFFFFFFFFFFFFFFFFFFF AND SWAP2 POP PUSH26 0xFFFFFFFFFFFFFFFFFFFFFFFFFFFFFFFFFFFFFFFFFFFFFFFFFFFF AND SWAP2 POP DUP5 PUSH20 0xFFFFFFFFFFFFFFFFFFFFFFFFFFFFFFFFFFFFFFFF AND PUSH32 0xDEC2BACDD2F05B59DE34DA9B523DFF8BE42E5E38E818C82FDB0BAE774387A724 DUP4 DUP4 PUSH1 0x40 MLOAD PUSH2 0x2E68 SWAP3 SWAP2 SWAP1 PUSH2 0x54C4 JUMP JUMPDEST PUSH1 0x40 MLOAD DUP1 SWAP2 SUB SWAP1 LOG2 POP POP JUMPDEST PUSH0 PUSH20 0xFFFFFFFFFFFFFFFFFFFFFFFFFFFFFFFFFFFFFFFF AND DUP3 PUSH20 0xFFFFFFFFFFFFFFFFFFFFFFFFFFFFFFFFFFFFFFFF AND EQ PUSH2 0x2F88 JUMPI PUSH0 DUP1 PUSH2 0x2EF9 PUSH1 0x9 PUSH0 DUP7 PUSH20 0xFFFFFFFFFFFFFFFFFFFFFFFFFFFFFFFFFFFFFFFF AND PUSH20 0xFFFFFFFFFFFFFFFFFFFFFFFFFFFFFFFFFFFFFFFF AND DUP2 MSTORE PUSH1 0x20 ADD SWAP1 DUP2 MSTORE PUSH1 0x20 ADD PUSH0 KECCAK256 PUSH2 0x3A59 PUSH2 0x2EF4 DUP7 PUSH2 0x39AD JUMP JUMPDEST PUSH2 0x3A1A JUMP JUMPDEST PUSH26 0xFFFFFFFFFFFFFFFFFFFFFFFFFFFFFFFFFFFFFFFFFFFFFFFFFFFF AND SWAP2 POP PUSH26 0xFFFFFFFFFFFFFFFFFFFFFFFFFFFFFFFFFFFFFFFFFFFFFFFFFFFF AND SWAP2 POP DUP4 PUSH20 0xFFFFFFFFFFFFFFFFFFFFFFFFFFFFFFFFFFFFFFFF AND PUSH32 0xDEC2BACDD2F05B59DE34DA9B523DFF8BE42E5E38E818C82FDB0BAE774387A724 DUP4 DUP4 PUSH1 0x40 MLOAD PUSH2 0x2F7D SWAP3 SWAP2 SWAP1 PUSH2 0x54C4 JUMP JUMPDEST PUSH1 0x40 MLOAD DUP1 SWAP2 SUB SWAP1 LOG2 POP POP JUMPDEST JUMPDEST POP POP POP JUMP JUMPDEST PUSH0 PUSH1 0xC PUSH0 SWAP1 SLOAD SWAP1 PUSH2 0x100 EXP SWAP1 DIV PUSH20 0xFFFFFFFFFFFFFFFFFFFFFFFFFFFFFFFFFFFFFFFF AND SWAP1 POP SWAP1 JUMP JUMPDEST PUSH2 0x2FE2 PUSH32 0x0 DUP6 ADDRESS DUP6 PUSH2 0x3A6E JUMP JUMPDEST PUSH2 0x2FEC DUP4 DUP3 PUSH2 0x3AF0 JUMP JUMPDEST DUP3 PUSH20 0xFFFFFFFFFFFFFFFFFFFFFFFFFFFFFFFFFFFFFFFF AND DUP5 PUSH20 0xFFFFFFFFFFFFFFFFFFFFFFFFFFFFFFFFFFFFFFFF AND PUSH32 0xDCBC1C05240F31FF3AD067EF1EE35CE4997762752E3A095284754544F4C709D7 DUP5 DUP5 PUSH1 0x40 MLOAD PUSH2 0x304B SWAP3 SWAP2 SWAP1 PUSH2 0x54C4 JUMP JUMPDEST PUSH1 0x40 MLOAD DUP1 SWAP2 SUB SWAP1 LOG3 POP POP POP POP JUMP JUMPDEST PUSH2 0x30D3 DUP4 DUP5 PUSH20 0xFFFFFFFFFFFFFFFFFFFFFFFFFFFFFFFFFFFFFFFF AND PUSH4 0xA9059CBB DUP6 DUP6 PUSH1 0x40 MLOAD PUSH1 0x24 ADD PUSH2 0x308C SWAP3 SWAP2 SWAP1 PUSH2 0x541F JUMP JUMPDEST PUSH1 0x40 MLOAD PUSH1 0x20 DUP2 DUP4 SUB SUB DUP2 MSTORE SWAP1 PUSH1 0x40 MSTORE SWAP2 POP PUSH1 0xE0 SHL PUSH1 0x20 DUP3 ADD DUP1 MLOAD PUSH28 0xFFFFFFFFFFFFFFFFFFFFFFFFFFFFFFFFFFFFFFFFFFFFFFFFFFFFFFFF DUP4 DUP2 DUP4 AND OR DUP4 MSTORE POP POP POP POP PUSH2 0x3B6F JUMP JUMPDEST POP POP POP JUMP JUMPDEST PUSH0 DUP2 PUSH0 ADD DUP1 SLOAD SWAP1 POP SWAP1 POP SWAP2 SWAP1 POP JUMP JUMPDEST PUSH0 PUSH4 0xFFFFFFFF DUP1 AND DUP3 GT ISZERO PUSH2 0x3136 JUMPI PUSH1 0x20 DUP3 PUSH1 0x40 MLOAD PUSH32 0x6DFCC65000000000000000000000000000000000000000000000000000000000 DUP2 MSTORE PUSH1 0x4 ADD PUSH2 0x312D SWAP3 SWAP2 SWAP1 PUSH2 0x5524 JUMP JUMPDEST PUSH1 0x40 MLOAD DUP1 SWAP2 SUB SWAP1 REVERT JUMPDEST DUP2 SWAP1 POP SWAP2 SWAP1 POP JUMP JUMPDEST PUSH0 PUSH1 0x7 PUSH0 DUP4 PUSH20 0xFFFFFFFFFFFFFFFFFFFFFFFFFFFFFFFFFFFFFFFF AND PUSH20 0xFFFFFFFFFFFFFFFFFFFFFFFFFFFFFFFFFFFFFFFF AND DUP2 MSTORE PUSH1 0x20 ADD SWAP1 DUP2 MSTORE PUSH1 0x20 ADD PUSH0 KECCAK256 SLOAD SWAP1 POP SWAP2 SWAP1 POP JUMP JUMPDEST PUSH1 0x60 PUSH1 0xFF PUSH0 SHL DUP4 EQ PUSH2 0x31A0 JUMPI PUSH2 0x3199 DUP4 PUSH2 0x3C04 JUMP JUMPDEST SWAP1 POP PUSH2 0x322B JUMP JUMPDEST DUP2 DUP1 SLOAD PUSH2 0x31AC SWAP1 PUSH2 0x4DEC JUMP JUMPDEST DUP1 PUSH1 0x1F ADD PUSH1 0x20 DUP1 SWAP2 DIV MUL PUSH1 0x20 ADD PUSH1 0x40 MLOAD SWAP1 DUP2 ADD PUSH1 0x40 MSTORE DUP1 SWAP3 SWAP2 SWAP1 DUP2 DUP2 MSTORE PUSH1 0x20 ADD DUP3 DUP1 SLOAD PUSH2 0x31D8 SWAP1 PUSH2 0x4DEC JUMP JUMPDEST DUP1 ISZERO PUSH2 0x3223 JUMPI DUP1 PUSH1 0x1F LT PUSH2 0x31FA JUMPI PUSH2 0x100 DUP1 DUP4 SLOAD DIV MUL DUP4 MSTORE SWAP2 PUSH1 0x20 ADD SWAP2 PUSH2 0x3223 JUMP JUMPDEST DUP3 ADD SWAP2 SWAP1 PUSH0 MSTORE PUSH1 0x20 PUSH0 KECCAK256 SWAP1 JUMPDEST DUP2 SLOAD DUP2 MSTORE SWAP1 PUSH1 0x1 ADD SWAP1 PUSH1 0x20 ADD DUP1 DUP4 GT PUSH2 0x3206 JUMPI DUP3 SWAP1 SUB PUSH1 0x1F AND DUP3 ADD SWAP2 JUMPDEST POP POP POP POP POP SWAP1 POP JUMPDEST SWAP3 SWAP2 POP POP JUMP JUMPDEST PUSH0 PUSH1 0xD PUSH0 SWAP1 SLOAD SWAP1 PUSH2 0x100 EXP SWAP1 DIV PUSH20 0xFFFFFFFFFFFFFFFFFFFFFFFFFFFFFFFFFFFFFFFF AND SWAP1 POP SWAP1 JUMP JUMPDEST DUP3 PUSH20 0xFFFFFFFFFFFFFFFFFFFFFFFFFFFFFFFFFFFFFFFF AND DUP6 PUSH20 0xFFFFFFFFFFFFFFFFFFFFFFFFFFFFFFFFFFFFFFFF AND EQ PUSH2 0x3298 JUMPI PUSH2 0x3297 DUP4 DUP7 DUP4 PUSH2 0x23D8 JUMP JUMPDEST JUMPDEST PUSH2 0x32A2 DUP4 DUP3 PUSH2 0x1E86 JUMP JUMPDEST PUSH2 0x32CD PUSH32 0x0 DUP6 DUP5 PUSH2 0x3059 JUMP JUMPDEST DUP3 PUSH20 0xFFFFFFFFFFFFFFFFFFFFFFFFFFFFFFFFFFFFFFFF AND DUP5 PUSH20 0xFFFFFFFFFFFFFFFFFFFFFFFFFFFFFFFFFFFFFFFF AND DUP7 PUSH20 0xFFFFFFFFFFFFFFFFFFFFFFFFFFFFFFFFFFFFFFFF AND PUSH32 0xFBDE797D201C681B91056529119E0B02407C7BB96A4A2C75C01FC9667232C8DB DUP6 DUP6 PUSH1 0x40 MLOAD PUSH2 0x3343 SWAP3 SWAP2 SWAP1 PUSH2 0x54C4 JUMP JUMPDEST PUSH1 0x40 MLOAD DUP1 SWAP2 SUB SWAP1 LOG4 POP POP POP POP POP JUMP JUMPDEST PUSH0 PUSH1 0x40 MLOAD PUSH32 0x1901000000000000000000000000000000000000000000000000000000000000 DUP2 MSTORE DUP4 PUSH1 0x2 DUP3 ADD MSTORE DUP3 PUSH1 0x22 DUP3 ADD MSTORE PUSH1 0x42 DUP2 KECCAK256 SWAP2 POP POP SWAP3 SWAP2 POP POP JUMP JUMPDEST PUSH0 DUP1 PUSH0 PUSH32 0x7FFFFFFFFFFFFFFFFFFFFFFFFFFFFFFF5D576E7357A4501DDFE92F46681B20A0 DUP5 PUSH0 SHR GT ISZERO PUSH2 0x33CE JUMPI PUSH0 PUSH1 0x3 DUP6 SWAP3 POP SWAP3 POP SWAP3 POP PUSH2 0x346F JUMP JUMPDEST PUSH0 PUSH1 0x1 DUP9 DUP9 DUP9 DUP9 PUSH1 0x40 MLOAD PUSH0 DUP2 MSTORE PUSH1 0x20 ADD PUSH1 0x40 MSTORE PUSH1 0x40 MLOAD PUSH2 0x33F1 SWAP5 SWAP4 SWAP3 SWAP2 SWAP1 PUSH2 0x554B JUMP JUMPDEST PUSH1 0x20 PUSH1 0x40 MLOAD PUSH1 0x20 DUP2 SUB SWAP1 DUP1 DUP5 SUB SWAP1 DUP6 GAS STATICCALL ISZERO DUP1 ISZERO PUSH2 0x3411 JUMPI RETURNDATASIZE PUSH0 DUP1 RETURNDATACOPY RETURNDATASIZE PUSH0 REVERT JUMPDEST POP POP POP PUSH1 0x20 PUSH1 0x40 MLOAD SUB MLOAD SWAP1 POP PUSH0 PUSH20 0xFFFFFFFFFFFFFFFFFFFFFFFFFFFFFFFFFFFFFFFF AND DUP2 PUSH20 0xFFFFFFFFFFFFFFFFFFFFFFFFFFFFFFFFFFFFFFFF AND SUB PUSH2 0x3462 JUMPI PUSH0 PUSH1 0x1 PUSH0 DUP1 SHL SWAP4 POP SWAP4 POP SWAP4 POP POP PUSH2 0x346F JUMP JUMPDEST DUP1 PUSH0 DUP1 PUSH0 SHL SWAP4 POP SWAP4 POP SWAP4 POP POP JUMPDEST SWAP5 POP SWAP5 POP SWAP5 SWAP2 POP POP JUMP JUMPDEST PUSH0 PUSH1 0x3 DUP2 GT ISZERO PUSH2 0x348C JUMPI PUSH2 0x348B PUSH2 0x558E JUMP JUMPDEST JUMPDEST DUP3 PUSH1 0x3 DUP2 GT ISZERO PUSH2 0x349F JUMPI PUSH2 0x349E PUSH2 0x558E JUMP JUMPDEST JUMPDEST SUB ISZERO PUSH2 0x35D7 JUMPI PUSH1 0x1 PUSH1 0x3 DUP2 GT ISZERO PUSH2 0x34B9 JUMPI PUSH2 0x34B8 PUSH2 0x558E JUMP JUMPDEST JUMPDEST DUP3 PUSH1 0x3 DUP2 GT ISZERO PUSH2 0x34CC JUMPI PUSH2 0x34CB PUSH2 0x558E JUMP JUMPDEST JUMPDEST SUB PUSH2 0x3503 JUMPI PUSH1 0x40 MLOAD PUSH32 0xF645EEDF00000000000000000000000000000000000000000000000000000000 DUP2 MSTORE PUSH1 0x4 ADD PUSH1 0x40 MLOAD DUP1 SWAP2 SUB SWAP1 REVERT JUMPDEST PUSH1 0x2 PUSH1 0x3 DUP2 GT ISZERO PUSH2 0x3517 JUMPI PUSH2 0x3516 PUSH2 0x558E JUMP JUMPDEST JUMPDEST DUP3 PUSH1 0x3 DUP2 GT ISZERO PUSH2 0x352A JUMPI PUSH2 0x3529 PUSH2 0x558E JUMP JUMPDEST JUMPDEST SUB PUSH2 0x356E JUMPI DUP1 PUSH0 SHR PUSH1 0x40 MLOAD PUSH32 0xFCE698F700000000000000000000000000000000000000000000000000000000 DUP2 MSTORE PUSH1 0x4 ADD PUSH2 0x3565 SWAP2 SWAP1 PUSH2 0x453E JUMP JUMPDEST PUSH1 0x40 MLOAD DUP1 SWAP2 SUB SWAP1 REVERT JUMPDEST PUSH1 0x3 DUP1 DUP2 GT ISZERO PUSH2 0x3581 JUMPI PUSH2 0x3580 PUSH2 0x558E JUMP JUMPDEST JUMPDEST DUP3 PUSH1 0x3 DUP2 GT ISZERO PUSH2 0x3594 JUMPI PUSH2 0x3593 PUSH2 0x558E JUMP JUMPDEST JUMPDEST SUB PUSH2 0x35D6 JUMPI DUP1 PUSH1 0x40 MLOAD PUSH32 0xD78BCE0C00000000000000000000000000000000000000000000000000000000 DUP2 MSTORE PUSH1 0x4 ADD PUSH2 0x35CD SWAP2 SWAP1 PUSH2 0x47EC JUMP JUMPDEST PUSH1 0x40 MLOAD DUP1 SWAP2 SUB SWAP1 REVERT JUMPDEST JUMPDEST POP POP JUMP JUMPDEST PUSH2 0x35E3 PUSH2 0x44EA JUMP JUMPDEST DUP3 PUSH0 ADD DUP3 PUSH4 0xFFFFFFFF AND DUP2 SLOAD DUP2 LT PUSH2 0x35FE JUMPI PUSH2 0x35FD PUSH2 0x55BB JUMP JUMPDEST JUMPDEST SWAP1 PUSH0 MSTORE PUSH1 0x20 PUSH0 KECCAK256 ADD PUSH1 0x40 MLOAD DUP1 PUSH1 0x40 ADD PUSH1 0x40 MSTORE SWAP1 DUP2 PUSH0 DUP3 ADD PUSH0 SWAP1 SLOAD SWAP1 PUSH2 0x100 EXP SWAP1 DIV PUSH6 0xFFFFFFFFFFFF AND PUSH6 0xFFFFFFFFFFFF AND PUSH6 0xFFFFFFFFFFFF AND DUP2 MSTORE PUSH1 0x20 ADD PUSH0 DUP3 ADD PUSH1 0x6 SWAP1 SLOAD SWAP1 PUSH2 0x100 EXP SWAP1 DIV PUSH26 0xFFFFFFFFFFFFFFFFFFFFFFFFFFFFFFFFFFFFFFFFFFFFFFFFFFFF AND PUSH26 0xFFFFFFFFFFFFFFFFFFFFFFFFFFFFFFFFFFFFFFFFFFFFFFFFFFFF AND PUSH26 0xFFFFFFFFFFFFFFFFFFFFFFFFFFFFFFFFFFFFFFFFFFFFFFFFFFFF AND DUP2 MSTORE POP POP SWAP1 POP SWAP3 SWAP2 POP POP JUMP JUMPDEST PUSH0 DUP1 DUP4 DUP6 MUL SWAP1 POP PUSH0 DUP1 NOT DUP6 DUP8 MULMOD DUP3 DUP2 LT DUP4 DUP3 SUB SUB SWAP2 POP POP PUSH0 DUP2 SUB PUSH2 0x36E2 JUMPI DUP4 DUP3 DUP2 PUSH2 0x36D8 JUMPI PUSH2 0x36D7 PUSH2 0x5446 JUMP JUMPDEST JUMPDEST DIV SWAP3 POP POP POP PUSH2 0x37A2 JUMP JUMPDEST DUP1 DUP5 GT PUSH2 0x371B JUMPI PUSH1 0x40 MLOAD PUSH32 0x227BC15300000000000000000000000000000000000000000000000000000000 DUP2 MSTORE PUSH1 0x4 ADD PUSH1 0x40 MLOAD DUP1 SWAP2 SUB SWAP1 REVERT JUMPDEST PUSH0 DUP5 DUP7 DUP9 MULMOD SWAP1 POP DUP3 DUP2 GT DUP3 SUB SWAP2 POP DUP1 DUP4 SUB SWAP3 POP PUSH0 DUP6 PUSH0 SUB DUP7 AND SWAP1 POP DUP1 DUP7 DIV SWAP6 POP DUP1 DUP5 DIV SWAP4 POP PUSH1 0x1 DUP2 DUP3 PUSH0 SUB DIV ADD SWAP1 POP DUP1 DUP4 MUL DUP5 OR SWAP4 POP PUSH0 PUSH1 0x2 DUP8 PUSH1 0x3 MUL XOR SWAP1 POP DUP1 DUP8 MUL PUSH1 0x2 SUB DUP2 MUL SWAP1 POP DUP1 DUP8 MUL PUSH1 0x2 SUB DUP2 MUL SWAP1 POP DUP1 DUP8 MUL PUSH1 0x2 SUB DUP2 MUL SWAP1 POP DUP1 DUP8 MUL PUSH1 0x2 SUB DUP2 MUL SWAP1 POP DUP1 DUP8 MUL PUSH1 0x2 SUB DUP2 MUL SWAP1 POP DUP1 DUP8 MUL PUSH1 0x2 SUB DUP2 MUL SWAP1 POP DUP1 DUP6 MUL SWAP6 POP POP POP POP POP POP JUMPDEST SWAP4 SWAP3 POP POP POP JUMP JUMPDEST PUSH0 PUSH1 0x1 PUSH1 0x2 DUP4 PUSH1 0x3 DUP2 GT ISZERO PUSH2 0x37C1 JUMPI PUSH2 0x37C0 PUSH2 0x558E JUMP JUMPDEST JUMPDEST PUSH2 0x37CB SWAP2 SWAP1 PUSH2 0x55E8 JUMP JUMPDEST PUSH1 0xFF AND EQ SWAP1 POP SWAP2 SWAP1 POP JUMP JUMPDEST PUSH2 0x37E1 DUP4 DUP4 DUP4 PUSH2 0x3C76 JUMP JUMPDEST PUSH0 PUSH20 0xFFFFFFFFFFFFFFFFFFFFFFFFFFFFFFFFFFFFFFFF AND DUP4 PUSH20 0xFFFFFFFFFFFFFFFFFFFFFFFFFFFFFFFFFFFFFFFF AND SUB PUSH2 0x3874 JUMPI PUSH0 PUSH2 0x381D PUSH2 0xD4B JUMP JUMPDEST SWAP1 POP PUSH0 PUSH2 0x3828 PUSH2 0x3E8F JUMP JUMPDEST SWAP1 POP DUP1 DUP3 GT ISZERO PUSH2 0x3871 JUMPI DUP2 DUP2 PUSH1 0x40 MLOAD PUSH32 0x1CB15D2600000000000000000000000000000000000000000000000000000000 DUP2 MSTORE PUSH1 0x4 ADD PUSH2 0x3868 SWAP3 SWAP2 SWAP1 PUSH2 0x54C4 JUMP JUMPDEST PUSH1 0x40 MLOAD DUP1 SWAP2 SUB SWAP1 REVERT JUMPDEST POP POP JUMPDEST PUSH2 0x387F DUP4 DUP4 DUP4 PUSH2 0x3EB2 JUMP JUMPDEST POP POP POP JUMP JUMPDEST PUSH0 DUP1 PUSH0 SWAP1 POP PUSH0 PUSH1 0x80 DUP5 SWAP1 SHR GT ISZERO PUSH2 0x38A3 JUMPI PUSH1 0x80 DUP4 SWAP1 SHR SWAP3 POP PUSH1 0x80 DUP2 ADD SWAP1 POP JUMPDEST PUSH0 PUSH1 0x40 DUP5 SWAP1 SHR GT ISZERO PUSH2 0x38BD JUMPI PUSH1 0x40 DUP4 SWAP1 SHR SWAP3 POP PUSH1 0x40 DUP2 ADD SWAP1 POP JUMPDEST PUSH0 PUSH1 0x20 DUP5 SWAP1 SHR GT ISZERO PUSH2 0x38D7 JUMPI PUSH1 0x20 DUP4 SWAP1 SHR SWAP3 POP PUSH1 0x20 DUP2 ADD SWAP1 POP JUMPDEST PUSH0 PUSH1 0x10 DUP5 SWAP1 SHR GT ISZERO PUSH2 0x38F1 JUMPI PUSH1 0x10 DUP4 SWAP1 SHR SWAP3 POP PUSH1 0x10 DUP2 ADD SWAP1 POP JUMPDEST PUSH0 PUSH1 0x8 DUP5 SWAP1 SHR GT ISZERO PUSH2 0x390B JUMPI PUSH1 0x8 DUP4 SWAP1 SHR SWAP3 POP PUSH1 0x8 DUP2 ADD SWAP1 POP JUMPDEST PUSH0 PUSH1 0x4 DUP5 SWAP1 SHR GT ISZERO PUSH2 0x3925 JUMPI PUSH1 0x4 DUP4 SWAP1 SHR SWAP3 POP PUSH1 0x4 DUP2 ADD SWAP1 POP JUMPDEST PUSH0 PUSH1 0x2 DUP5 SWAP1 SHR GT ISZERO PUSH2 0x393F JUMPI PUSH1 0x2 DUP4 SWAP1 SHR SWAP3 POP PUSH1 0x2 DUP2 ADD SWAP1 POP JUMPDEST PUSH0 PUSH1 0x1 DUP5 SWAP1 SHR GT ISZERO PUSH2 0x3952 JUMPI PUSH1 0x1 DUP2 ADD SWAP1 POP JUMPDEST DUP1 SWAP2 POP POP SWAP2 SWAP1 POP JUMP JUMPDEST PUSH0 DUP2 DUP4 LT PUSH2 0x3969 JUMPI DUP2 PUSH2 0x396B JUMP JUMPDEST DUP3 JUMPDEST SWAP1 POP SWAP3 SWAP2 POP POP JUMP JUMPDEST PUSH0 PUSH1 0x2 DUP3 DUP5 XOR PUSH2 0x3983 SWAP2 SWAP1 PUSH2 0x5618 JUMP JUMPDEST DUP3 DUP5 AND PUSH2 0x3990 SWAP2 SWAP1 PUSH2 0x4E49 JUMP JUMPDEST SWAP1 POP SWAP3 SWAP2 POP POP JUMP JUMPDEST PUSH0 DUP2 DUP4 PUSH2 0x39A5 SWAP2 SWAP1 PUSH2 0x5648 JUMP JUMPDEST SWAP1 POP SWAP3 SWAP2 POP POP JUMP JUMPDEST PUSH0 PUSH26 0xFFFFFFFFFFFFFFFFFFFFFFFFFFFFFFFFFFFFFFFFFFFFFFFFFFFF DUP1 AND DUP3 GT ISZERO PUSH2 0x3A12 JUMPI PUSH1 0xD0 DUP3 PUSH1 0x40 MLOAD PUSH32 0x6DFCC65000000000000000000000000000000000000000000000000000000000 DUP2 MSTORE PUSH1 0x4 ADD PUSH2 0x3A09 SWAP3 SWAP2 SWAP1 PUSH2 0x56CE JUMP JUMPDEST PUSH1 0x40 MLOAD DUP1 SWAP2 SUB SWAP1 REVERT JUMPDEST DUP2 SWAP1 POP SWAP2 SWAP1 POP JUMP JUMPDEST PUSH0 DUP1 PUSH2 0x3A4D PUSH2 0x3A27 PUSH2 0x146E JUMP JUMPDEST PUSH2 0x3A3D PUSH2 0x3A33 DUP9 PUSH2 0x24F1 JUMP JUMPDEST DUP7 DUP9 PUSH4 0xFFFFFFFF AND JUMP JUMPDEST DUP8 PUSH2 0x3F6A SWAP1 SWAP3 SWAP2 SWAP1 PUSH4 0xFFFFFFFF AND JUMP JUMPDEST SWAP2 POP SWAP2 POP SWAP4 POP SWAP4 SWAP2 POP POP JUMP JUMPDEST PUSH0 DUP2 DUP4 PUSH2 0x3A66 SWAP2 SWAP1 PUSH2 0x56F5 JUMP JUMPDEST SWAP1 POP SWAP3 SWAP2 POP POP JUMP JUMPDEST PUSH2 0x3AEA DUP5 DUP6 PUSH20 0xFFFFFFFFFFFFFFFFFFFFFFFFFFFFFFFFFFFFFFFF AND PUSH4 0x23B872DD DUP7 DUP7 DUP7 PUSH1 0x40 MLOAD PUSH1 0x24 ADD PUSH2 0x3AA3 SWAP4 SWAP3 SWAP2 SWAP1 PUSH2 0x5742 JUMP JUMPDEST PUSH1 0x40 MLOAD PUSH1 0x20 DUP2 DUP4 SUB SUB DUP2 MSTORE SWAP1 PUSH1 0x40 MSTORE SWAP2 POP PUSH1 0xE0 SHL PUSH1 0x20 DUP3 ADD DUP1 MLOAD PUSH28 0xFFFFFFFFFFFFFFFFFFFFFFFFFFFFFFFFFFFFFFFFFFFFFFFFFFFFFFFF DUP4 DUP2 DUP4 AND OR DUP4 MSTORE POP POP POP POP PUSH2 0x3B6F JUMP JUMPDEST POP POP POP POP JUMP JUMPDEST PUSH0 PUSH20 0xFFFFFFFFFFFFFFFFFFFFFFFFFFFFFFFFFFFFFFFF AND DUP3 PUSH20 0xFFFFFFFFFFFFFFFFFFFFFFFFFFFFFFFFFFFFFFFF AND SUB PUSH2 0x3B60 JUMPI PUSH0 PUSH1 0x40 MLOAD PUSH32 0xEC442F0500000000000000000000000000000000000000000000000000000000 DUP2 MSTORE PUSH1 0x4 ADD PUSH2 0x3B57 SWAP2 SWAP1 PUSH2 0x4814 JUMP JUMPDEST PUSH1 0x40 MLOAD DUP1 SWAP2 SUB SWAP1 REVERT JUMPDEST PUSH2 0x3B6B PUSH0 DUP4 DUP4 PUSH2 0x2AEB JUMP JUMPDEST POP POP JUMP JUMPDEST PUSH0 PUSH2 0x3B99 DUP3 DUP5 PUSH20 0xFFFFFFFFFFFFFFFFFFFFFFFFFFFFFFFFFFFFFFFF AND PUSH2 0x3F85 SWAP1 SWAP2 SWAP1 PUSH4 0xFFFFFFFF AND JUMP JUMPDEST SWAP1 POP PUSH0 DUP2 MLOAD EQ ISZERO DUP1 ISZERO PUSH2 0x3BBD JUMPI POP DUP1 DUP1 PUSH1 0x20 ADD SWAP1 MLOAD DUP2 ADD SWAP1 PUSH2 0x3BBB SWAP2 SWAP1 PUSH2 0x57A1 JUMP JUMPDEST ISZERO JUMPDEST ISZERO PUSH2 0x3BFF JUMPI DUP3 PUSH1 0x40 MLOAD PUSH32 0x5274AFE700000000000000000000000000000000000000000000000000000000 DUP2 MSTORE PUSH1 0x4 ADD PUSH2 0x3BF6 SWAP2 SWAP1 PUSH2 0x4814 JUMP JUMPDEST PUSH1 0x40 MLOAD DUP1 SWAP2 SUB SWAP1 REVERT JUMPDEST POP POP POP JUMP JUMPDEST PUSH1 0x60 PUSH0 PUSH2 0x3C10 DUP4 PUSH2 0x3F9A JUMP JUMPDEST SWAP1 POP PUSH0 PUSH1 0x20 PUSH8 0xFFFFFFFFFFFFFFFF DUP2 GT ISZERO PUSH2 0x3C2E JUMPI PUSH2 0x3C2D PUSH2 0x4FDA JUMP JUMPDEST JUMPDEST PUSH1 0x40 MLOAD SWAP1 DUP1 DUP3 MSTORE DUP1 PUSH1 0x1F ADD PUSH1 0x1F NOT AND PUSH1 0x20 ADD DUP3 ADD PUSH1 0x40 MSTORE DUP1 ISZERO PUSH2 0x3C60 JUMPI DUP2 PUSH1 0x20 ADD PUSH1 0x1 DUP3 MUL DUP1 CALLDATASIZE DUP4 CALLDATACOPY DUP1 DUP3 ADD SWAP2 POP POP SWAP1 POP JUMPDEST POP SWAP1 POP DUP2 DUP2 MSTORE DUP4 PUSH1 0x20 DUP3 ADD MSTORE DUP1 SWAP3 POP POP POP SWAP2 SWAP1 POP JUMP JUMPDEST PUSH0 PUSH20 0xFFFFFFFFFFFFFFFFFFFFFFFFFFFFFFFFFFFFFFFF AND DUP4 PUSH20 0xFFFFFFFFFFFFFFFFFFFFFFFFFFFFFFFFFFFFFFFF AND SUB PUSH2 0x3CC6 JUMPI DUP1 PUSH1 0x2 PUSH0 DUP3 DUP3 SLOAD PUSH2 0x3CBA SWAP2 SWAP1 PUSH2 0x4E49 JUMP JUMPDEST SWAP3 POP POP DUP2 SWAP1 SSTORE POP PUSH2 0x3D94 JUMP JUMPDEST PUSH0 DUP1 PUSH0 DUP6 PUSH20 0xFFFFFFFFFFFFFFFFFFFFFFFFFFFFFFFFFFFFFFFF AND PUSH20 0xFFFFFFFFFFFFFFFFFFFFFFFFFFFFFFFFFFFFFFFF AND DUP2 MSTORE PUSH1 0x20 ADD SWAP1 DUP2 MSTORE PUSH1 0x20 ADD PUSH0 KECCAK256 SLOAD SWAP1 POP DUP2 DUP2 LT ISZERO PUSH2 0x3D4F JUMPI DUP4 DUP2 DUP4 PUSH1 0x40 MLOAD PUSH32 0xE450D38C00000000000000000000000000000000000000000000000000000000 DUP2 MSTORE PUSH1 0x4 ADD PUSH2 0x3D46 SWAP4 SWAP3 SWAP2 SWAP1 PUSH2 0x53EA JUMP JUMPDEST PUSH1 0x40 MLOAD DUP1 SWAP2 SUB SWAP1 REVERT JUMPDEST DUP2 DUP2 SUB PUSH0 DUP1 DUP7 PUSH20 0xFFFFFFFFFFFFFFFFFFFFFFFFFFFFFFFFFFFFFFFF AND PUSH20 0xFFFFFFFFFFFFFFFFFFFFFFFFFFFFFFFFFFFFFFFF AND DUP2 MSTORE PUSH1 0x20 ADD SWAP1 DUP2 MSTORE PUSH1 0x20 ADD PUSH0 KECCAK256 DUP2 SWAP1 SSTORE POP POP JUMPDEST PUSH0 PUSH20 0xFFFFFFFFFFFFFFFFFFFFFFFFFFFFFFFFFFFFFFFF AND DUP3 PUSH20 0xFFFFFFFFFFFFFFFFFFFFFFFFFFFFFFFFFFFFFFFF AND SUB PUSH2 0x3DDB JUMPI DUP1 PUSH1 0x2 PUSH0 DUP3 DUP3 SLOAD SUB SWAP3 POP POP DUP2 SWAP1 SSTORE POP PUSH2 0x3E25 JUMP JUMPDEST DUP1 PUSH0 DUP1 DUP5 PUSH20 0xFFFFFFFFFFFFFFFFFFFFFFFFFFFFFFFFFFFFFFFF AND PUSH20 0xFFFFFFFFFFFFFFFFFFFFFFFFFFFFFFFFFFFFFFFF AND DUP2 MSTORE PUSH1 0x20 ADD SWAP1 DUP2 MSTORE PUSH1 0x20 ADD PUSH0 KECCAK256 PUSH0 DUP3 DUP3 SLOAD ADD SWAP3 POP POP DUP2 SWAP1 SSTORE POP JUMPDEST DUP2 PUSH20 0xFFFFFFFFFFFFFFFFFFFFFFFFFFFFFFFFFFFFFFFF AND DUP4 PUSH20 0xFFFFFFFFFFFFFFFFFFFFFFFFFFFFFFFFFFFFFFFF AND PUSH32 0xDDF252AD1BE2C89B69C2B068FC378DAA952BA7F163C4A11628F55A4DF523B3EF DUP4 PUSH1 0x40 MLOAD PUSH2 0x3E82 SWAP2 SWAP1 PUSH2 0x453E JUMP JUMPDEST PUSH1 0x40 MLOAD DUP1 SWAP2 SUB SWAP1 LOG3 POP POP POP JUMP JUMPDEST PUSH0 PUSH26 0xFFFFFFFFFFFFFFFFFFFFFFFFFFFFFFFFFFFFFFFFFFFFFFFFFFFF DUP1 AND SWAP1 POP SWAP1 JUMP JUMPDEST PUSH0 PUSH20 0xFFFFFFFFFFFFFFFFFFFFFFFFFFFFFFFFFFFFFFFF AND DUP4 PUSH20 0xFFFFFFFFFFFFFFFFFFFFFFFFFFFFFFFFFFFFFFFF AND SUB PUSH2 0x3EFE JUMPI PUSH2 0x3EFB PUSH1 0xA PUSH2 0x3A59 PUSH2 0x3EF6 DUP5 PUSH2 0x39AD JUMP JUMPDEST PUSH2 0x3A1A JUMP JUMPDEST POP POP JUMPDEST PUSH0 PUSH20 0xFFFFFFFFFFFFFFFFFFFFFFFFFFFFFFFFFFFFFFFF AND DUP3 PUSH20 0xFFFFFFFFFFFFFFFFFFFFFFFFFFFFFFFFFFFFFFFF AND SUB PUSH2 0x3F4A JUMPI PUSH2 0x3F47 PUSH1 0xA PUSH2 0x3998 PUSH2 0x3F42 DUP5 PUSH2 0x39AD JUMP JUMPDEST PUSH2 0x3A1A JUMP JUMPDEST POP POP JUMPDEST PUSH2 0x3F65 PUSH2 0x3F56 DUP5 PUSH2 0x10E2 JUMP JUMPDEST PUSH2 0x3F5F DUP5 PUSH2 0x10E2 JUMP JUMPDEST DUP4 PUSH2 0x2D1E JUMP JUMPDEST POP POP POP JUMP JUMPDEST PUSH0 DUP1 PUSH2 0x3F79 DUP6 PUSH0 ADD DUP6 DUP6 PUSH2 0x3FE8 JUMP JUMPDEST SWAP2 POP SWAP2 POP SWAP4 POP SWAP4 SWAP2 POP POP JUMP JUMPDEST PUSH1 0x60 PUSH2 0x3F92 DUP4 DUP4 PUSH0 PUSH2 0x4350 JUMP JUMPDEST SWAP1 POP SWAP3 SWAP2 POP POP JUMP JUMPDEST PUSH0 DUP1 PUSH1 0xFF DUP4 PUSH0 SHR AND SWAP1 POP PUSH1 0x1F DUP2 GT ISZERO PUSH2 0x3FDF JUMPI PUSH1 0x40 MLOAD PUSH32 0xB3512B0C00000000000000000000000000000000000000000000000000000000 DUP2 MSTORE PUSH1 0x4 ADD PUSH1 0x40 MLOAD DUP1 SWAP2 SUB SWAP1 REVERT JUMPDEST DUP1 SWAP2 POP POP SWAP2 SWAP1 POP JUMP JUMPDEST PUSH0 DUP1 PUSH0 DUP6 DUP1 SLOAD SWAP1 POP SWAP1 POP PUSH0 DUP2 GT ISZERO PUSH2 0x4268 JUMPI PUSH0 PUSH2 0x4011 DUP8 PUSH1 0x1 DUP5 PUSH2 0x400C SWAP2 SWAP1 PUSH2 0x4EE4 JUMP JUMPDEST PUSH2 0x2C86 JUMP JUMPDEST PUSH1 0x40 MLOAD DUP1 PUSH1 0x40 ADD PUSH1 0x40 MSTORE SWAP1 DUP2 PUSH0 DUP3 ADD PUSH0 SWAP1 SLOAD SWAP1 PUSH2 0x100 EXP SWAP1 DIV PUSH6 0xFFFFFFFFFFFF AND PUSH6 0xFFFFFFFFFFFF AND PUSH6 0xFFFFFFFFFFFF AND DUP2 MSTORE PUSH1 0x20 ADD PUSH0 DUP3 ADD PUSH1 0x6 SWAP1 SLOAD SWAP1 PUSH2 0x100 EXP SWAP1 DIV PUSH26 0xFFFFFFFFFFFFFFFFFFFFFFFFFFFFFFFFFFFFFFFFFFFFFFFFFFFF AND PUSH26 0xFFFFFFFFFFFFFFFFFFFFFFFFFFFFFFFFFFFFFFFFFFFFFFFFFFFF AND PUSH26 0xFFFFFFFFFFFFFFFFFFFFFFFFFFFFFFFFFFFFFFFFFFFFFFFFFFFF AND DUP2 MSTORE POP POP SWAP1 POP DUP6 PUSH6 0xFFFFFFFFFFFF AND DUP2 PUSH0 ADD MLOAD PUSH6 0xFFFFFFFFFFFF AND GT ISZERO PUSH2 0x40FC JUMPI PUSH1 0x40 MLOAD PUSH32 0x2520601D00000000000000000000000000000000000000000000000000000000 DUP2 MSTORE PUSH1 0x4 ADD PUSH1 0x40 MLOAD DUP1 SWAP2 SUB SWAP1 REVERT JUMPDEST DUP6 PUSH6 0xFFFFFFFFFFFF AND DUP2 PUSH0 ADD MLOAD PUSH6 0xFFFFFFFFFFFF AND SUB PUSH2 0x417E JUMPI DUP5 PUSH2 0x412D DUP9 PUSH1 0x1 DUP6 PUSH2 0x4128 SWAP2 SWAP1 PUSH2 0x4EE4 JUMP JUMPDEST PUSH2 0x2C86 JUMP JUMPDEST PUSH0 ADD PUSH1 0x6 PUSH2 0x100 EXP DUP2 SLOAD DUP2 PUSH26 0xFFFFFFFFFFFFFFFFFFFFFFFFFFFFFFFFFFFFFFFFFFFFFFFFFFFF MUL NOT AND SWAP1 DUP4 PUSH26 0xFFFFFFFFFFFFFFFFFFFFFFFFFFFFFFFFFFFFFFFFFFFFFFFFFFFF AND MUL OR SWAP1 SSTORE POP PUSH2 0x4257 JUMP JUMPDEST DUP7 PUSH1 0x40 MLOAD DUP1 PUSH1 0x40 ADD PUSH1 0x40 MSTORE DUP1 DUP9 PUSH6 0xFFFFFFFFFFFF AND DUP2 MSTORE PUSH1 0x20 ADD DUP8 PUSH26 0xFFFFFFFFFFFFFFFFFFFFFFFFFFFFFFFFFFFFFFFFFFFFFFFFFFFF AND DUP2 MSTORE POP SWAP1 DUP1 PUSH1 0x1 DUP2 SLOAD ADD DUP1 DUP3 SSTORE DUP1 SWAP2 POP POP PUSH1 0x1 SWAP1 SUB SWAP1 PUSH0 MSTORE PUSH1 0x20 PUSH0 KECCAK256 ADD PUSH0 SWAP1 SWAP2 SWAP1 SWAP2 SWAP1 SWAP2 POP PUSH0 DUP3 ADD MLOAD DUP2 PUSH0 ADD PUSH0 PUSH2 0x100 EXP DUP2 SLOAD DUP2 PUSH6 0xFFFFFFFFFFFF MUL NOT AND SWAP1 DUP4 PUSH6 0xFFFFFFFFFFFF AND MUL OR SWAP1 SSTORE POP PUSH1 0x20 DUP3 ADD MLOAD DUP2 PUSH0 ADD PUSH1 0x6 PUSH2 0x100 EXP DUP2 SLOAD DUP2 PUSH26 0xFFFFFFFFFFFFFFFFFFFFFFFFFFFFFFFFFFFFFFFFFFFFFFFFFFFF MUL NOT AND SWAP1 DUP4 PUSH26 0xFFFFFFFFFFFFFFFFFFFFFFFFFFFFFFFFFFFFFFFFFFFFFFFFFFFF AND MUL OR SWAP1 SSTORE POP POP POP JUMPDEST DUP1 PUSH1 0x20 ADD MLOAD DUP6 SWAP4 POP SWAP4 POP POP POP PUSH2 0x4348 JUMP JUMPDEST DUP6 PUSH1 0x40 MLOAD DUP1 PUSH1 0x40 ADD PUSH1 0x40 MSTORE DUP1 DUP8 PUSH6 0xFFFFFFFFFFFF AND DUP2 MSTORE PUSH1 0x20 ADD DUP7 PUSH26 0xFFFFFFFFFFFFFFFFFFFFFFFFFFFFFFFFFFFFFFFFFFFFFFFFFFFF AND DUP2 MSTORE POP SWAP1 DUP1 PUSH1 0x1 DUP2 SLOAD ADD DUP1 DUP3 SSTORE DUP1 SWAP2 POP POP PUSH1 0x1 SWAP1 SUB SWAP1 PUSH0 MSTORE PUSH1 0x20 PUSH0 KECCAK256 ADD PUSH0 SWAP1 SWAP2 SWAP1 SWAP2 SWAP1 SWAP2 POP PUSH0 DUP3 ADD MLOAD DUP2 PUSH0 ADD PUSH0 PUSH2 0x100 EXP DUP2 SLOAD DUP2 PUSH6 0xFFFFFFFFFFFF MUL NOT AND SWAP1 DUP4 PUSH6 0xFFFFFFFFFFFF AND MUL OR SWAP1 SSTORE POP PUSH1 0x20 DUP3 ADD MLOAD DUP2 PUSH0 ADD PUSH1 0x6 PUSH2 0x100 EXP DUP2 SLOAD DUP2 PUSH26 0xFFFFFFFFFFFFFFFFFFFFFFFFFFFFFFFFFFFFFFFFFFFFFFFFFFFF MUL NOT AND SWAP1 DUP4 PUSH26 0xFFFFFFFFFFFFFFFFFFFFFFFFFFFFFFFFFFFFFFFFFFFFFFFFFFFF AND MUL OR SWAP1 SSTORE POP POP POP PUSH0 DUP5 SWAP3 POP SWAP3 POP POP JUMPDEST SWAP4 POP SWAP4 SWAP2 POP POP JUMP JUMPDEST PUSH1 0x60 DUP2 SELFBALANCE LT ISZERO PUSH2 0x4397 JUMPI ADDRESS PUSH1 0x40 MLOAD PUSH32 0xCD78605900000000000000000000000000000000000000000000000000000000 DUP2 MSTORE PUSH1 0x4 ADD PUSH2 0x438E SWAP2 SWAP1 PUSH2 0x4814 JUMP JUMPDEST PUSH1 0x40 MLOAD DUP1 SWAP2 SUB SWAP1 REVERT JUMPDEST PUSH0 DUP1 DUP6 PUSH20 0xFFFFFFFFFFFFFFFFFFFFFFFFFFFFFFFFFFFFFFFF AND DUP5 DUP7 PUSH1 0x40 MLOAD PUSH2 0x43BF SWAP2 SWAP1 PUSH2 0x5810 JUMP JUMPDEST PUSH0 PUSH1 0x40 MLOAD DUP1 DUP4 SUB DUP2 DUP6 DUP8 GAS CALL SWAP3 POP POP POP RETURNDATASIZE DUP1 PUSH0 DUP2 EQ PUSH2 0x43F9 JUMPI PUSH1 0x40 MLOAD SWAP2 POP PUSH1 0x1F NOT PUSH1 0x3F RETURNDATASIZE ADD AND DUP3 ADD PUSH1 0x40 MSTORE RETURNDATASIZE DUP3 MSTORE RETURNDATASIZE PUSH0 PUSH1 0x20 DUP5 ADD RETURNDATACOPY PUSH2 0x43FE JUMP JUMPDEST PUSH1 0x60 SWAP2 POP JUMPDEST POP SWAP2 POP SWAP2 POP PUSH2 0x440E DUP7 DUP4 DUP4 PUSH2 0x4419 JUMP JUMPDEST SWAP3 POP POP POP SWAP4 SWAP3 POP POP POP JUMP JUMPDEST PUSH1 0x60 DUP3 PUSH2 0x442E JUMPI PUSH2 0x4429 DUP3 PUSH2 0x44A6 JUMP JUMPDEST PUSH2 0x449E JUMP JUMPDEST PUSH0 DUP3 MLOAD EQ DUP1 ISZERO PUSH2 0x4454 JUMPI POP PUSH0 DUP5 PUSH20 0xFFFFFFFFFFFFFFFFFFFFFFFFFFFFFFFFFFFFFFFF AND EXTCODESIZE EQ JUMPDEST ISZERO PUSH2 0x4496 JUMPI DUP4 PUSH1 0x40 MLOAD PUSH32 0x9996B31500000000000000000000000000000000000000000000000000000000 DUP2 MSTORE PUSH1 0x4 ADD PUSH2 0x448D SWAP2 SWAP1 PUSH2 0x4814 JUMP JUMPDEST PUSH1 0x40 MLOAD DUP1 SWAP2 SUB SWAP1 REVERT JUMPDEST DUP2 SWAP1 POP PUSH2 0x449F JUMP JUMPDEST JUMPDEST SWAP4 SWAP3 POP POP POP JUMP JUMPDEST PUSH0 DUP2 MLOAD GT ISZERO PUSH2 0x44B8 JUMPI DUP1 MLOAD DUP1 DUP3 PUSH1 0x20 ADD REVERT JUMPDEST PUSH1 0x40 MLOAD PUSH32 0x1425EA4200000000000000000000000000000000000000000000000000000000 DUP2 MSTORE PUSH1 0x4 ADD PUSH1 0x40 MLOAD DUP1 SWAP2 SUB SWAP1 REVERT JUMPDEST PUSH1 0x40 MLOAD DUP1 PUSH1 0x40 ADD PUSH1 0x40 MSTORE DUP1 PUSH0 PUSH6 0xFFFFFFFFFFFF AND DUP2 MSTORE PUSH1 0x20 ADD PUSH0 PUSH26 0xFFFFFFFFFFFFFFFFFFFFFFFFFFFFFFFFFFFFFFFFFFFFFFFFFFFF AND DUP2 MSTORE POP SWAP1 JUMP JUMPDEST PUSH0 DUP2 SWAP1 POP SWAP2 SWAP1 POP JUMP JUMPDEST PUSH2 0x4538 DUP2 PUSH2 0x4526 JUMP JUMPDEST DUP3 MSTORE POP POP JUMP JUMPDEST PUSH0 PUSH1 0x20 DUP3 ADD SWAP1 POP PUSH2 0x4551 PUSH0 DUP4 ADD DUP5 PUSH2 0x452F JUMP JUMPDEST SWAP3 SWAP2 POP POP JUMP JUMPDEST PUSH0 DUP2 MLOAD SWAP1 POP SWAP2 SWAP1 POP JUMP JUMPDEST PUSH0 DUP3 DUP3 MSTORE PUSH1 0x20 DUP3 ADD SWAP1 POP SWAP3 SWAP2 POP POP JUMP JUMPDEST PUSH0 JUMPDEST DUP4 DUP2 LT ISZERO PUSH2 0x458E JUMPI DUP1 DUP3 ADD MLOAD DUP2 DUP5 ADD MSTORE PUSH1 0x20 DUP2 ADD SWAP1 POP PUSH2 0x4573 JUMP JUMPDEST PUSH0 DUP5 DUP5 ADD MSTORE POP POP POP POP JUMP JUMPDEST PUSH0 PUSH1 0x1F NOT PUSH1 0x1F DUP4 ADD AND SWAP1 POP SWAP2 SWAP1 POP JUMP JUMPDEST PUSH0 PUSH2 0x45B3 DUP3 PUSH2 0x4557 JUMP JUMPDEST PUSH2 0x45BD DUP2 DUP6 PUSH2 0x4561 JUMP JUMPDEST SWAP4 POP PUSH2 0x45CD DUP2 DUP6 PUSH1 0x20 DUP7 ADD PUSH2 0x4571 JUMP JUMPDEST PUSH2 0x45D6 DUP2 PUSH2 0x4599 JUMP JUMPDEST DUP5 ADD SWAP2 POP POP SWAP3 SWAP2 POP POP JUMP JUMPDEST PUSH0 PUSH1 0x20 DUP3 ADD SWAP1 POP DUP2 DUP2 SUB PUSH0 DUP4 ADD MSTORE PUSH2 0x45F9 DUP2 DUP5 PUSH2 0x45A9 JUMP JUMPDEST SWAP1 POP SWAP3 SWAP2 POP POP JUMP JUMPDEST PUSH0 DUP1 REVERT JUMPDEST PUSH2 0x460E DUP2 PUSH2 0x4526 JUMP JUMPDEST DUP2 EQ PUSH2 0x4618 JUMPI PUSH0 DUP1 REVERT JUMPDEST POP JUMP JUMPDEST PUSH0 DUP2 CALLDATALOAD SWAP1 POP PUSH2 0x4629 DUP2 PUSH2 0x4605 JUMP JUMPDEST SWAP3 SWAP2 POP POP JUMP JUMPDEST PUSH0 PUSH1 0x20 DUP3 DUP5 SUB SLT ISZERO PUSH2 0x4644 JUMPI PUSH2 0x4643 PUSH2 0x4601 JUMP JUMPDEST JUMPDEST PUSH0 PUSH2 0x4651 DUP5 DUP3 DUP6 ADD PUSH2 0x461B JUMP JUMPDEST SWAP2 POP POP SWAP3 SWAP2 POP POP JUMP JUMPDEST PUSH0 PUSH20 0xFFFFFFFFFFFFFFFFFFFFFFFFFFFFFFFFFFFFFFFF DUP3 AND SWAP1 POP SWAP2 SWAP1 POP JUMP JUMPDEST PUSH0 PUSH2 0x4683 DUP3 PUSH2 0x465A JUMP JUMPDEST SWAP1 POP SWAP2 SWAP1 POP JUMP JUMPDEST PUSH2 0x4693 DUP2 PUSH2 0x4679 JUMP JUMPDEST DUP2 EQ PUSH2 0x469D JUMPI PUSH0 DUP1 REVERT JUMPDEST POP JUMP JUMPDEST PUSH0 DUP2 CALLDATALOAD SWAP1 POP PUSH2 0x46AE DUP2 PUSH2 0x468A JUMP JUMPDEST SWAP3 SWAP2 POP POP JUMP JUMPDEST PUSH0 DUP1 PUSH1 0x40 DUP4 DUP6 SUB SLT ISZERO PUSH2 0x46CA JUMPI PUSH2 0x46C9 PUSH2 0x4601 JUMP JUMPDEST JUMPDEST PUSH0 PUSH2 0x46D7 DUP6 DUP3 DUP7 ADD PUSH2 0x46A0 JUMP JUMPDEST SWAP3 POP POP PUSH1 0x20 PUSH2 0x46E8 DUP6 DUP3 DUP7 ADD PUSH2 0x461B JUMP JUMPDEST SWAP2 POP POP SWAP3 POP SWAP3 SWAP1 POP JUMP JUMPDEST PUSH0 DUP2 ISZERO ISZERO SWAP1 POP SWAP2 SWAP1 POP JUMP JUMPDEST PUSH2 0x4706 DUP2 PUSH2 0x46F2 JUMP JUMPDEST DUP3 MSTORE POP POP JUMP JUMPDEST PUSH0 PUSH1 0x20 DUP3 ADD SWAP1 POP PUSH2 0x471F PUSH0 DUP4 ADD DUP5 PUSH2 0x46FD JUMP JUMPDEST SWAP3 SWAP2 POP POP JUMP JUMPDEST PUSH0 PUSH1 0x20 DUP3 DUP5 SUB SLT ISZERO PUSH2 0x473A JUMPI PUSH2 0x4739 PUSH2 0x4601 JUMP JUMPDEST JUMPDEST PUSH0 PUSH2 0x4747 DUP5 DUP3 DUP6 ADD PUSH2 0x46A0 JUMP JUMPDEST SWAP2 POP POP SWAP3 SWAP2 POP POP JUMP JUMPDEST PUSH0 DUP1 PUSH0 PUSH1 0x60 DUP5 DUP7 SUB SLT ISZERO PUSH2 0x4767 JUMPI PUSH2 0x4766 PUSH2 0x4601 JUMP JUMPDEST JUMPDEST PUSH0 PUSH2 0x4774 DUP7 DUP3 DUP8 ADD PUSH2 0x46A0 JUMP JUMPDEST SWAP4 POP POP PUSH1 0x20 PUSH2 0x4785 DUP7 DUP3 DUP8 ADD PUSH2 0x46A0 JUMP JUMPDEST SWAP3 POP POP PUSH1 0x40 PUSH2 0x4796 DUP7 DUP3 DUP8 ADD PUSH2 0x461B JUMP JUMPDEST SWAP2 POP POP SWAP3 POP SWAP3 POP SWAP3 JUMP JUMPDEST PUSH0 PUSH1 0xFF DUP3 AND SWAP1 POP SWAP2 SWAP1 POP JUMP JUMPDEST PUSH2 0x47B5 DUP2 PUSH2 0x47A0 JUMP JUMPDEST DUP3 MSTORE POP POP JUMP JUMPDEST PUSH0 PUSH1 0x20 DUP3 ADD SWAP1 POP PUSH2 0x47CE PUSH0 DUP4 ADD DUP5 PUSH2 0x47AC JUMP JUMPDEST SWAP3 SWAP2 POP POP JUMP JUMPDEST PUSH0 DUP2 SWAP1 POP SWAP2 SWAP1 POP JUMP JUMPDEST PUSH2 0x47E6 DUP2 PUSH2 0x47D4 JUMP JUMPDEST DUP3 MSTORE POP POP JUMP JUMPDEST PUSH0 PUSH1 0x20 DUP3 ADD SWAP1 POP PUSH2 0x47FF PUSH0 DUP4 ADD DUP5 PUSH2 0x47DD JUMP JUMPDEST SWAP3 SWAP2 POP POP JUMP JUMPDEST PUSH2 0x480E DUP2 PUSH2 0x4679 JUMP JUMPDEST DUP3 MSTORE POP POP JUMP JUMPDEST PUSH0 PUSH1 0x20 DUP3 ADD SWAP1 POP PUSH2 0x4827 PUSH0 DUP4 ADD DUP5 PUSH2 0x4805 JUMP JUMPDEST SWAP3 SWAP2 POP POP JUMP JUMPDEST PUSH0 DUP1 PUSH1 0x40 DUP4 DUP6 SUB SLT ISZERO PUSH2 0x4843 JUMPI PUSH2 0x4842 PUSH2 0x4601 JUMP JUMPDEST JUMPDEST PUSH0 PUSH2 0x4850 DUP6 DUP3 DUP7 ADD PUSH2 0x461B JUMP JUMPDEST SWAP3 POP POP PUSH1 0x20 PUSH2 0x4861 DUP6 DUP3 DUP7 ADD PUSH2 0x46A0 JUMP JUMPDEST SWAP2 POP POP SWAP3 POP SWAP3 SWAP1 POP JUMP JUMPDEST PUSH0 PUSH4 0xFFFFFFFF DUP3 AND SWAP1 POP SWAP2 SWAP1 POP JUMP JUMPDEST PUSH2 0x4883 DUP2 PUSH2 0x486B JUMP JUMPDEST DUP3 MSTORE POP POP JUMP JUMPDEST PUSH0 PUSH1 0x20 DUP3 ADD SWAP1 POP PUSH2 0x489C PUSH0 DUP4 ADD DUP5 PUSH2 0x487A JUMP JUMPDEST SWAP3 SWAP2 POP POP JUMP JUMPDEST PUSH0 PUSH32 0xFF00000000000000000000000000000000000000000000000000000000000000 DUP3 AND SWAP1 POP SWAP2 SWAP1 POP JUMP JUMPDEST PUSH2 0x48D6 DUP2 PUSH2 0x48A2 JUMP JUMPDEST DUP3 MSTORE POP POP JUMP JUMPDEST PUSH0 DUP2 MLOAD SWAP1 POP SWAP2 SWAP1 POP JUMP JUMPDEST PUSH0 DUP3 DUP3 MSTORE PUSH1 0x20 DUP3 ADD SWAP1 POP SWAP3 SWAP2 POP POP JUMP JUMPDEST PUSH0 DUP2 SWAP1 POP PUSH1 0x20 DUP3 ADD SWAP1 POP SWAP2 SWAP1 POP JUMP JUMPDEST PUSH2 0x490E DUP2 PUSH2 0x4526 JUMP JUMPDEST DUP3 MSTORE POP POP JUMP JUMPDEST PUSH0 PUSH2 0x491F DUP4 DUP4 PUSH2 0x4905 JUMP JUMPDEST PUSH1 0x20 DUP4 ADD SWAP1 POP SWAP3 SWAP2 POP POP JUMP JUMPDEST PUSH0 PUSH1 0x20 DUP3 ADD SWAP1 POP SWAP2 SWAP1 POP JUMP JUMPDEST PUSH0 PUSH2 0x4941 DUP3 PUSH2 0x48DC JUMP JUMPDEST PUSH2 0x494B DUP2 DUP6 PUSH2 0x48E6 JUMP JUMPDEST SWAP4 POP PUSH2 0x4956 DUP4 PUSH2 0x48F6 JUMP JUMPDEST DUP1 PUSH0 JUMPDEST DUP4 DUP2 LT ISZERO PUSH2 0x4986 JUMPI DUP2 MLOAD PUSH2 0x496D DUP9 DUP3 PUSH2 0x4914 JUMP JUMPDEST SWAP8 POP PUSH2 0x4978 DUP4 PUSH2 0x492B JUMP JUMPDEST SWAP3 POP POP PUSH1 0x1 DUP2 ADD SWAP1 POP PUSH2 0x4959 JUMP JUMPDEST POP DUP6 SWAP4 POP POP POP POP SWAP3 SWAP2 POP POP JUMP JUMPDEST PUSH0 PUSH1 0xE0 DUP3 ADD SWAP1 POP PUSH2 0x49A6 PUSH0 DUP4 ADD DUP11 PUSH2 0x48CD JUMP JUMPDEST DUP2 DUP2 SUB PUSH1 0x20 DUP4 ADD MSTORE PUSH2 0x49B8 DUP2 DUP10 PUSH2 0x45A9 JUMP JUMPDEST SWAP1 POP DUP2 DUP2 SUB PUSH1 0x40 DUP4 ADD MSTORE PUSH2 0x49CC DUP2 DUP9 PUSH2 0x45A9 JUMP JUMPDEST SWAP1 POP PUSH2 0x49DB PUSH1 0x60 DUP4 ADD DUP8 PUSH2 0x452F JUMP JUMPDEST PUSH2 0x49E8 PUSH1 0x80 DUP4 ADD DUP7 PUSH2 0x4805 JUMP JUMPDEST PUSH2 0x49F5 PUSH1 0xA0 DUP4 ADD DUP6 PUSH2 0x47DD JUMP JUMPDEST DUP2 DUP2 SUB PUSH1 0xC0 DUP4 ADD MSTORE PUSH2 0x4A07 DUP2 DUP5 PUSH2 0x4937 JUMP JUMPDEST SWAP1 POP SWAP9 SWAP8 POP POP POP POP POP POP POP POP JUMP JUMPDEST PUSH0 PUSH2 0x4A1F DUP3 PUSH2 0x465A JUMP JUMPDEST SWAP1 POP SWAP2 SWAP1 POP JUMP JUMPDEST PUSH2 0x4A2F DUP2 PUSH2 0x4A15 JUMP JUMPDEST DUP3 MSTORE POP POP JUMP JUMPDEST PUSH0 PUSH1 0x20 DUP3 ADD SWAP1 POP PUSH2 0x4A48 PUSH0 DUP4 ADD DUP5 PUSH2 0x4A26 JUMP JUMPDEST SWAP3 SWAP2 POP POP JUMP JUMPDEST PUSH0 PUSH6 0xFFFFFFFFFFFF DUP3 AND SWAP1 POP SWAP2 SWAP1 POP JUMP JUMPDEST PUSH2 0x4A68 DUP2 PUSH2 0x4A4E JUMP JUMPDEST DUP3 MSTORE POP POP JUMP JUMPDEST PUSH0 PUSH1 0x20 DUP3 ADD SWAP1 POP PUSH2 0x4A81 PUSH0 DUP4 ADD DUP5 PUSH2 0x4A5F JUMP JUMPDEST SWAP3 SWAP2 POP POP JUMP JUMPDEST PUSH0 DUP1 PUSH0 PUSH1 0x60 DUP5 DUP7 SUB SLT ISZERO PUSH2 0x4A9E JUMPI PUSH2 0x4A9D PUSH2 0x4601 JUMP JUMPDEST JUMPDEST PUSH0 PUSH2 0x4AAB DUP7 DUP3 DUP8 ADD PUSH2 0x461B JUMP JUMPDEST SWAP4 POP POP PUSH1 0x20 PUSH2 0x4ABC DUP7 DUP3 DUP8 ADD PUSH2 0x46A0 JUMP JUMPDEST SWAP3 POP POP PUSH1 0x40 PUSH2 0x4ACD DUP7 DUP3 DUP8 ADD PUSH2 0x46A0 JUMP JUMPDEST SWAP2 POP POP SWAP3 POP SWAP3 POP SWAP3 JUMP JUMPDEST PUSH2 0x4AE0 DUP2 PUSH2 0x47A0 JUMP JUMPDEST DUP2 EQ PUSH2 0x4AEA JUMPI PUSH0 DUP1 REVERT JUMPDEST POP JUMP JUMPDEST PUSH0 DUP2 CALLDATALOAD SWAP1 POP PUSH2 0x4AFB DUP2 PUSH2 0x4AD7 JUMP JUMPDEST SWAP3 SWAP2 POP POP JUMP JUMPDEST PUSH2 0x4B0A DUP2 PUSH2 0x47D4 JUMP JUMPDEST DUP2 EQ PUSH2 0x4B14 JUMPI PUSH0 DUP1 REVERT JUMPDEST POP JUMP JUMPDEST PUSH0 DUP2 CALLDATALOAD SWAP1 POP PUSH2 0x4B25 DUP2 PUSH2 0x4B01 JUMP JUMPDEST SWAP3 SWAP2 POP POP JUMP JUMPDEST PUSH0 DUP1 PUSH0 DUP1 PUSH0 DUP1 PUSH1 0xC0 DUP8 DUP10 SUB SLT ISZERO PUSH2 0x4B45 JUMPI PUSH2 0x4B44 PUSH2 0x4601 JUMP JUMPDEST JUMPDEST PUSH0 PUSH2 0x4B52 DUP10 DUP3 DUP11 ADD PUSH2 0x46A0 JUMP JUMPDEST SWAP7 POP POP PUSH1 0x20 PUSH2 0x4B63 DUP10 DUP3 DUP11 ADD PUSH2 0x461B JUMP JUMPDEST SWAP6 POP POP PUSH1 0x40 PUSH2 0x4B74 DUP10 DUP3 DUP11 ADD PUSH2 0x461B JUMP JUMPDEST SWAP5 POP POP PUSH1 0x60 PUSH2 0x4B85 DUP10 DUP3 DUP11 ADD PUSH2 0x4AED JUMP JUMPDEST SWAP4 POP POP PUSH1 0x80 PUSH2 0x4B96 DUP10 DUP3 DUP11 ADD PUSH2 0x4B17 JUMP JUMPDEST SWAP3 POP POP PUSH1 0xA0 PUSH2 0x4BA7 DUP10 DUP3 DUP11 ADD PUSH2 0x4B17 JUMP JUMPDEST SWAP2 POP POP SWAP3 SWAP6 POP SWAP3 SWAP6 POP SWAP3 SWAP6 JUMP JUMPDEST PUSH0 DUP1 PUSH0 DUP1 PUSH0 DUP1 PUSH0 PUSH1 0xE0 DUP9 DUP11 SUB SLT ISZERO PUSH2 0x4BCF JUMPI PUSH2 0x4BCE PUSH2 0x4601 JUMP JUMPDEST JUMPDEST PUSH0 PUSH2 0x4BDC DUP11 DUP3 DUP12 ADD PUSH2 0x46A0 JUMP JUMPDEST SWAP8 POP POP PUSH1 0x20 PUSH2 0x4BED DUP11 DUP3 DUP12 ADD PUSH2 0x46A0 JUMP JUMPDEST SWAP7 POP POP PUSH1 0x40 PUSH2 0x4BFE DUP11 DUP3 DUP12 ADD PUSH2 0x461B JUMP JUMPDEST SWAP6 POP POP PUSH1 0x60 PUSH2 0x4C0F DUP11 DUP3 DUP12 ADD PUSH2 0x461B JUMP JUMPDEST SWAP5 POP POP PUSH1 0x80 PUSH2 0x4C20 DUP11 DUP3 DUP12 ADD PUSH2 0x4AED JUMP JUMPDEST SWAP4 POP POP PUSH1 0xA0 PUSH2 0x4C31 DUP11 DUP3 DUP12 ADD PUSH2 0x4B17 JUMP JUMPDEST SWAP3 POP POP PUSH1 0xC0 PUSH2 0x4C42 DUP11 DUP3 DUP12 ADD PUSH2 0x4B17 JUMP JUMPDEST SWAP2 POP POP SWAP3 SWAP6 SWAP9 SWAP2 SWAP5 SWAP8 POP SWAP3 SWAP6 POP JUMP JUMPDEST PUSH0 DUP1 PUSH1 0x40 DUP4 DUP6 SUB SLT ISZERO PUSH2 0x4C67 JUMPI PUSH2 0x4C66 PUSH2 0x4601 JUMP JUMPDEST JUMPDEST PUSH0 PUSH2 0x4C74 DUP6 DUP3 DUP7 ADD PUSH2 0x46A0 JUMP JUMPDEST SWAP3 POP POP PUSH1 0x20 PUSH2 0x4C85 DUP6 DUP3 DUP7 ADD PUSH2 0x46A0 JUMP JUMPDEST SWAP2 POP POP SWAP3 POP SWAP3 SWAP1 POP JUMP JUMPDEST PUSH2 0x4C98 DUP2 PUSH2 0x486B JUMP JUMPDEST DUP2 EQ PUSH2 0x4CA2 JUMPI PUSH0 DUP1 REVERT JUMPDEST POP JUMP JUMPDEST PUSH0 DUP2 CALLDATALOAD SWAP1 POP PUSH2 0x4CB3 DUP2 PUSH2 0x4C8F JUMP JUMPDEST SWAP3 SWAP2 POP POP JUMP JUMPDEST PUSH0 DUP1 PUSH1 0x40 DUP4 DUP6 SUB SLT ISZERO PUSH2 0x4CCF JUMPI PUSH2 0x4CCE PUSH2 0x4601 JUMP JUMPDEST JUMPDEST PUSH0 PUSH2 0x4CDC DUP6 DUP3 DUP7 ADD PUSH2 0x46A0 JUMP JUMPDEST SWAP3 POP POP PUSH1 0x20 PUSH2 0x4CED DUP6 DUP3 DUP7 ADD PUSH2 0x4CA5 JUMP JUMPDEST SWAP2 POP POP SWAP3 POP SWAP3 SWAP1 POP JUMP JUMPDEST PUSH2 0x4D00 DUP2 PUSH2 0x4A4E JUMP JUMPDEST DUP3 MSTORE POP POP JUMP JUMPDEST PUSH0 PUSH26 0xFFFFFFFFFFFFFFFFFFFFFFFFFFFFFFFFFFFFFFFFFFFFFFFFFFFF DUP3 AND SWAP1 POP SWAP2 SWAP1 POP JUMP JUMPDEST PUSH2 0x4D34 DUP2 PUSH2 0x4D06 JUMP JUMPDEST DUP3 MSTORE POP POP JUMP JUMPDEST PUSH1 0x40 DUP3 ADD PUSH0 DUP3 ADD MLOAD PUSH2 0x4D4E PUSH0 DUP6 ADD DUP3 PUSH2 0x4CF7 JUMP JUMPDEST POP PUSH1 0x20 DUP3 ADD MLOAD PUSH2 0x4D61 PUSH1 0x20 DUP6 ADD DUP3 PUSH2 0x4D2B JUMP JUMPDEST POP POP POP POP JUMP JUMPDEST PUSH0 PUSH1 0x40 DUP3 ADD SWAP1 POP PUSH2 0x4D7A PUSH0 DUP4 ADD DUP5 PUSH2 0x4D3A JUMP JUMPDEST SWAP3 SWAP2 POP POP JUMP JUMPDEST PUSH0 DUP2 MLOAD SWAP1 POP PUSH2 0x4D8E DUP2 PUSH2 0x4605 JUMP JUMPDEST SWAP3 SWAP2 POP POP JUMP JUMPDEST PUSH0 PUSH1 0x20 DUP3 DUP5 SUB SLT ISZERO PUSH2 0x4DA9 JUMPI PUSH2 0x4DA8 PUSH2 0x4601 JUMP JUMPDEST JUMPDEST PUSH0 PUSH2 0x4DB6 DUP5 DUP3 DUP6 ADD PUSH2 0x4D80 JUMP JUMPDEST SWAP2 POP POP SWAP3 SWAP2 POP POP JUMP JUMPDEST PUSH32 0x4E487B7100000000000000000000000000000000000000000000000000000000 PUSH0 MSTORE PUSH1 0x22 PUSH1 0x4 MSTORE PUSH1 0x24 PUSH0 REVERT JUMPDEST PUSH0 PUSH1 0x2 DUP3 DIV SWAP1 POP PUSH1 0x1 DUP3 AND DUP1 PUSH2 0x4E03 JUMPI PUSH1 0x7F DUP3 AND SWAP2 POP JUMPDEST PUSH1 0x20 DUP3 LT DUP2 SUB PUSH2 0x4E16 JUMPI PUSH2 0x4E15 PUSH2 0x4DBF JUMP JUMPDEST JUMPDEST POP SWAP2 SWAP1 POP JUMP JUMPDEST PUSH32 0x4E487B7100000000000000000000000000000000000000000000000000000000 PUSH0 MSTORE PUSH1 0x11 PUSH1 0x4 MSTORE PUSH1 0x24 PUSH0 REVERT JUMPDEST PUSH0 PUSH2 0x4E53 DUP3 PUSH2 0x4526 JUMP JUMPDEST SWAP2 POP PUSH2 0x4E5E DUP4 PUSH2 0x4526 JUMP JUMPDEST SWAP3 POP DUP3 DUP3 ADD SWAP1 POP DUP1 DUP3 GT ISZERO PUSH2 0x4E76 JUMPI PUSH2 0x4E75 PUSH2 0x4E1C JUMP JUMPDEST JUMPDEST SWAP3 SWAP2 POP POP JUMP JUMPDEST PUSH32 0x496E76616C696420666565000000000000000000000000000000000000000000 PUSH0 DUP3 ADD MSTORE POP JUMP JUMPDEST PUSH0 PUSH2 0x4EB0 PUSH1 0xB DUP4 PUSH2 0x4561 JUMP JUMPDEST SWAP2 POP PUSH2 0x4EBB DUP3 PUSH2 0x4E7C JUMP JUMPDEST PUSH1 0x20 DUP3 ADD SWAP1 POP SWAP2 SWAP1 POP JUMP JUMPDEST PUSH0 PUSH1 0x20 DUP3 ADD SWAP1 POP DUP2 DUP2 SUB PUSH0 DUP4 ADD MSTORE PUSH2 0x4EDD DUP2 PUSH2 0x4EA4 JUMP JUMPDEST SWAP1 POP SWAP2 SWAP1 POP JUMP JUMPDEST PUSH0 PUSH2 0x4EEE DUP3 PUSH2 0x4526 JUMP JUMPDEST SWAP2 POP PUSH2 0x4EF9 DUP4 PUSH2 0x4526 JUMP JUMPDEST SWAP3 POP DUP3 DUP3 SUB SWAP1 POP DUP2 DUP2 GT ISZERO PUSH2 0x4F11 JUMPI PUSH2 0x4F10 PUSH2 0x4E1C JUMP JUMPDEST JUMPDEST SWAP3 SWAP2 POP POP JUMP JUMPDEST PUSH0 PUSH2 0x4F21 DUP3 PUSH2 0x47A0 JUMP JUMPDEST SWAP2 POP PUSH2 0x4F2C DUP4 PUSH2 0x47A0 JUMP JUMPDEST SWAP3 POP DUP3 DUP3 ADD SWAP1 POP PUSH1 0xFF DUP2 GT ISZERO PUSH2 0x4F45 JUMPI PUSH2 0x4F44 PUSH2 0x4E1C JUMP JUMPDEST JUMPDEST SWAP3 SWAP2 POP POP JUMP JUMPDEST PUSH0 PUSH1 0x40 DUP3 ADD SWAP1 POP PUSH2 0x4F5E PUSH0 DUP4 ADD DUP6 PUSH2 0x452F JUMP JUMPDEST PUSH2 0x4F6B PUSH1 0x20 DUP4 ADD DUP5 PUSH2 0x4A5F JUMP JUMPDEST SWAP4 SWAP3 POP POP POP JUMP JUMPDEST PUSH32 0x455243343632363A206465706F736974206D6F7265207468616E206D61780000 PUSH0 DUP3 ADD MSTORE POP JUMP JUMPDEST PUSH0 PUSH2 0x4FA6 PUSH1 0x1E DUP4 PUSH2 0x4561 JUMP JUMPDEST SWAP2 POP PUSH2 0x4FB1 DUP3 PUSH2 0x4F72 JUMP JUMPDEST PUSH1 0x20 DUP3 ADD SWAP1 POP SWAP2 SWAP1 POP JUMP JUMPDEST PUSH0 PUSH1 0x20 DUP3 ADD SWAP1 POP DUP2 DUP2 SUB PUSH0 DUP4 ADD MSTORE PUSH2 0x4FD3 DUP2 PUSH2 0x4F9A JUMP JUMPDEST SWAP1 POP SWAP2 SWAP1 POP JUMP JUMPDEST PUSH32 0x4E487B7100000000000000000000000000000000000000000000000000000000 PUSH0 MSTORE PUSH1 0x41 PUSH1 0x4 MSTORE PUSH1 0x24 PUSH0 REVERT JUMPDEST PUSH32 0x455243343632363A206D696E74206D6F7265207468616E206D61780000000000 PUSH0 DUP3 ADD MSTORE POP JUMP JUMPDEST PUSH0 PUSH2 0x503B PUSH1 0x1B DUP4 PUSH2 0x4561 JUMP JUMPDEST SWAP2 POP PUSH2 0x5046 DUP3 PUSH2 0x5007 JUMP JUMPDEST PUSH1 0x20 DUP3 ADD SWAP1 POP SWAP2 SWAP1 POP JUMP JUMPDEST PUSH0 PUSH1 0x20 DUP3 ADD SWAP1 POP DUP2 DUP2 SUB PUSH0 DUP4 ADD MSTORE PUSH2 0x5068 DUP2 PUSH2 0x502F JUMP JUMPDEST SWAP1 POP SWAP2 SWAP1 POP JUMP JUMPDEST PUSH32 0x455243343632363A207769746864726177206D6F7265207468616E206D617800 PUSH0 DUP3 ADD MSTORE POP JUMP JUMPDEST PUSH0 PUSH2 0x50A3 PUSH1 0x1F DUP4 PUSH2 0x4561 JUMP JUMPDEST SWAP2 POP PUSH2 0x50AE DUP3 PUSH2 0x506F JUMP JUMPDEST PUSH1 0x20 DUP3 ADD SWAP1 POP SWAP2 SWAP1 POP JUMP JUMPDEST PUSH0 PUSH1 0x20 DUP3 ADD SWAP1 POP DUP2 DUP2 SUB PUSH0 DUP4 ADD MSTORE PUSH2 0x50D0 DUP2 PUSH2 0x5097 JUMP JUMPDEST SWAP1 POP SWAP2 SWAP1 POP JUMP JUMPDEST PUSH32 0x455243343632363A2072656465656D206D6F7265207468616E206D6178000000 PUSH0 DUP3 ADD MSTORE POP JUMP JUMPDEST PUSH0 PUSH2 0x510B PUSH1 0x1D DUP4 PUSH2 0x4561 JUMP JUMPDEST SWAP2 POP PUSH2 0x5116 DUP3 PUSH2 0x50D7 JUMP JUMPDEST PUSH1 0x20 DUP3 ADD SWAP1 POP SWAP2 SWAP1 POP JUMP JUMPDEST PUSH0 PUSH1 0x20 DUP3 ADD SWAP1 POP DUP2 DUP2 SUB PUSH0 DUP4 ADD MSTORE PUSH2 0x5138 DUP2 PUSH2 0x50FF JUMP JUMPDEST SWAP1 POP SWAP2 SWAP1 POP JUMP JUMPDEST PUSH0 PUSH1 0x80 DUP3 ADD SWAP1 POP PUSH2 0x5152 PUSH0 DUP4 ADD DUP8 PUSH2 0x47DD JUMP JUMPDEST PUSH2 0x515F PUSH1 0x20 DUP4 ADD DUP7 PUSH2 0x4805 JUMP JUMPDEST PUSH2 0x516C PUSH1 0x40 DUP4 ADD DUP6 PUSH2 0x452F JUMP JUMPDEST PUSH2 0x5179 PUSH1 0x60 DUP4 ADD DUP5 PUSH2 0x452F JUMP JUMPDEST SWAP6 SWAP5 POP POP POP POP POP JUMP JUMPDEST PUSH0 PUSH1 0xC0 DUP3 ADD SWAP1 POP PUSH2 0x5195 PUSH0 DUP4 ADD DUP10 PUSH2 0x47DD JUMP JUMPDEST PUSH2 0x51A2 PUSH1 0x20 DUP4 ADD DUP9 PUSH2 0x4805 JUMP JUMPDEST PUSH2 0x51AF PUSH1 0x40 DUP4 ADD DUP8 PUSH2 0x4805 JUMP JUMPDEST PUSH2 0x51BC PUSH1 0x60 DUP4 ADD DUP7 PUSH2 0x452F JUMP JUMPDEST PUSH2 0x51C9 PUSH1 0x80 DUP4 ADD DUP6 PUSH2 0x452F JUMP JUMPDEST PUSH2 0x51D6 PUSH1 0xA0 DUP4 ADD DUP5 PUSH2 0x452F JUMP JUMPDEST SWAP8 SWAP7 POP POP POP POP POP POP POP JUMP JUMPDEST PUSH0 PUSH1 0x40 DUP3 ADD SWAP1 POP PUSH2 0x51F4 PUSH0 DUP4 ADD DUP6 PUSH2 0x4805 JUMP JUMPDEST PUSH2 0x5201 PUSH1 0x20 DUP4 ADD DUP5 PUSH2 0x4805 JUMP JUMPDEST SWAP4 SWAP3 POP POP POP JUMP JUMPDEST PUSH0 DUP2 PUSH1 0x1 SHR SWAP1 POP SWAP2 SWAP1 POP JUMP JUMPDEST PUSH0 DUP1 DUP3 SWAP2 POP DUP4 SWAP1 POP JUMPDEST PUSH1 0x1 DUP6 GT ISZERO PUSH2 0x525D JUMPI DUP1 DUP7 DIV DUP2 GT ISZERO PUSH2 0x5239 JUMPI PUSH2 0x5238 PUSH2 0x4E1C JUMP JUMPDEST JUMPDEST PUSH1 0x1 DUP6 AND ISZERO PUSH2 0x5248 JUMPI DUP1 DUP3 MUL SWAP2 POP JUMPDEST DUP1 DUP2 MUL SWAP1 POP PUSH2 0x5256 DUP6 PUSH2 0x5208 JUMP JUMPDEST SWAP5 POP PUSH2 0x521D JUMP JUMPDEST SWAP5 POP SWAP5 SWAP3 POP POP POP JUMP JUMPDEST PUSH0 DUP3 PUSH2 0x5275 JUMPI PUSH1 0x1 SWAP1 POP PUSH2 0x5330 JUMP JUMPDEST DUP2 PUSH2 0x5282 JUMPI PUSH0 SWAP1 POP PUSH2 0x5330 JUMP JUMPDEST DUP2 PUSH1 0x1 DUP2 EQ PUSH2 0x5298 JUMPI PUSH1 0x2 DUP2 EQ PUSH2 0x52A2 JUMPI PUSH2 0x52D1 JUMP JUMPDEST PUSH1 0x1 SWAP2 POP POP PUSH2 0x5330 JUMP JUMPDEST PUSH1 0xFF DUP5 GT ISZERO PUSH2 0x52B4 JUMPI PUSH2 0x52B3 PUSH2 0x4E1C JUMP JUMPDEST JUMPDEST DUP4 PUSH1 0x2 EXP SWAP2 POP DUP5 DUP3 GT ISZERO PUSH2 0x52CB JUMPI PUSH2 0x52CA PUSH2 0x4E1C JUMP JUMPDEST JUMPDEST POP PUSH2 0x5330 JUMP JUMPDEST POP PUSH1 0x20 DUP4 LT PUSH2 0x133 DUP4 LT AND PUSH1 0x4E DUP5 LT PUSH1 0xB DUP5 LT AND OR ISZERO PUSH2 0x5306 JUMPI DUP3 DUP3 EXP SWAP1 POP DUP4 DUP2 GT ISZERO PUSH2 0x5301 JUMPI PUSH2 0x5300 PUSH2 0x4E1C JUMP JUMPDEST JUMPDEST PUSH2 0x5330 JUMP JUMPDEST PUSH2 0x5313 DUP5 DUP5 DUP5 PUSH1 0x1 PUSH2 0x5214 JUMP JUMPDEST SWAP3 POP SWAP1 POP DUP2 DUP5 DIV DUP2 GT ISZERO PUSH2 0x532A JUMPI PUSH2 0x5329 PUSH2 0x4E1C JUMP JUMPDEST JUMPDEST DUP2 DUP2 MUL SWAP1 POP JUMPDEST SWAP4 SWAP3 POP POP POP JUMP JUMPDEST PUSH0 PUSH2 0x5341 DUP3 PUSH2 0x4526 JUMP JUMPDEST SWAP2 POP PUSH2 0x534C DUP4 PUSH2 0x47A0 JUMP JUMPDEST SWAP3 POP PUSH2 0x5379 PUSH32 0xFFFFFFFFFFFFFFFFFFFFFFFFFFFFFFFFFFFFFFFFFFFFFFFFFFFFFFFFFFFFFFFF DUP5 DUP5 PUSH2 0x5266 JUMP JUMPDEST SWAP1 POP SWAP3 SWAP2 POP POP JUMP JUMPDEST PUSH0 DUP2 SWAP1 POP SWAP2 SWAP1 POP JUMP JUMPDEST PUSH0 DUP2 SWAP1 POP SWAP2 SWAP1 POP JUMP JUMPDEST PUSH0 PUSH2 0x53AD PUSH2 0x53A8 PUSH2 0x53A3 DUP5 PUSH2 0x5381 JUMP JUMPDEST PUSH2 0x538A JUMP JUMPDEST PUSH2 0x47A0 JUMP JUMPDEST SWAP1 POP SWAP2 SWAP1 POP JUMP JUMPDEST PUSH2 0x53BD DUP2 PUSH2 0x5393 JUMP JUMPDEST DUP3 MSTORE POP POP JUMP JUMPDEST PUSH0 PUSH1 0x40 DUP3 ADD SWAP1 POP PUSH2 0x53D6 PUSH0 DUP4 ADD DUP6 PUSH2 0x53B4 JUMP JUMPDEST PUSH2 0x53E3 PUSH1 0x20 DUP4 ADD DUP5 PUSH2 0x452F JUMP JUMPDEST SWAP4 SWAP3 POP POP POP JUMP JUMPDEST PUSH0 PUSH1 0x60 DUP3 ADD SWAP1 POP PUSH2 0x53FD PUSH0 DUP4 ADD DUP7 PUSH2 0x4805 JUMP JUMPDEST PUSH2 0x540A PUSH1 0x20 DUP4 ADD DUP6 PUSH2 0x452F JUMP JUMPDEST PUSH2 0x5417 PUSH1 0x40 DUP4 ADD DUP5 PUSH2 0x452F JUMP JUMPDEST SWAP5 SWAP4 POP POP POP POP JUMP JUMPDEST PUSH0 PUSH1 0x40 DUP3 ADD SWAP1 POP PUSH2 0x5432 PUSH0 DUP4 ADD DUP6 PUSH2 0x4805 JUMP JUMPDEST PUSH2 0x543F PUSH1 0x20 DUP4 ADD DUP5 PUSH2 0x452F JUMP JUMPDEST SWAP4 SWAP3 POP POP POP JUMP JUMPDEST PUSH32 0x4E487B7100000000000000000000000000000000000000000000000000000000 PUSH0 MSTORE PUSH1 0x12 PUSH1 0x4 MSTORE PUSH1 0x24 PUSH0 REVERT JUMPDEST PUSH0 PUSH1 0xA0 DUP3 ADD SWAP1 POP PUSH2 0x5486 PUSH0 DUP4 ADD DUP9 PUSH2 0x47DD JUMP JUMPDEST PUSH2 0x5493 PUSH1 0x20 DUP4 ADD DUP8 PUSH2 0x47DD JUMP JUMPDEST PUSH2 0x54A0 PUSH1 0x40 DUP4 ADD DUP7 PUSH2 0x47DD JUMP JUMPDEST PUSH2 0x54AD PUSH1 0x60 DUP4 ADD DUP6 PUSH2 0x452F JUMP JUMPDEST PUSH2 0x54BA PUSH1 0x80 DUP4 ADD DUP5 PUSH2 0x4805 JUMP JUMPDEST SWAP7 SWAP6 POP POP POP POP POP POP JUMP JUMPDEST PUSH0 PUSH1 0x40 DUP3 ADD SWAP1 POP PUSH2 0x54D7 PUSH0 DUP4 ADD DUP6 PUSH2 0x452F JUMP JUMPDEST PUSH2 0x54E4 PUSH1 0x20 DUP4 ADD DUP5 PUSH2 0x452F JUMP JUMPDEST SWAP4 SWAP3 POP POP POP JUMP JUMPDEST PUSH0 DUP2 SWAP1 POP SWAP2 SWAP1 POP JUMP JUMPDEST PUSH0 PUSH2 0x550E PUSH2 0x5509 PUSH2 0x5504 DUP5 PUSH2 0x54EB JUMP JUMPDEST PUSH2 0x538A JUMP JUMPDEST PUSH2 0x47A0 JUMP JUMPDEST SWAP1 POP SWAP2 SWAP1 POP JUMP JUMPDEST PUSH2 0x551E DUP2 PUSH2 0x54F4 JUMP JUMPDEST DUP3 MSTORE POP POP JUMP JUMPDEST PUSH0 PUSH1 0x40 DUP3 ADD SWAP1 POP PUSH2 0x5537 PUSH0 DUP4 ADD DUP6 PUSH2 0x5515 JUMP JUMPDEST PUSH2 0x5544 PUSH1 0x20 DUP4 ADD DUP5 PUSH2 0x452F JUMP JUMPDEST SWAP4 SWAP3 POP POP POP JUMP JUMPDEST PUSH0 PUSH1 0x80 DUP3 ADD SWAP1 POP PUSH2 0x555E PUSH0 DUP4 ADD DUP8 PUSH2 0x47DD JUMP JUMPDEST PUSH2 0x556B PUSH1 0x20 DUP4 ADD DUP7 PUSH2 0x47AC JUMP JUMPDEST PUSH2 0x5578 PUSH1 0x40 DUP4 ADD DUP6 PUSH2 0x47DD JUMP JUMPDEST PUSH2 0x5585 PUSH1 0x60 DUP4 ADD DUP5 PUSH2 0x47DD JUMP JUMPDEST SWAP6 SWAP5 POP POP POP POP POP JUMP JUMPDEST PUSH32 0x4E487B7100000000000000000000000000000000000000000000000000000000 PUSH0 MSTORE PUSH1 0x21 PUSH1 0x4 MSTORE PUSH1 0x24 PUSH0 REVERT JUMPDEST PUSH32 0x4E487B7100000000000000000000000000000000000000000000000000000000 PUSH0 MSTORE PUSH1 0x32 PUSH1 0x4 MSTORE PUSH1 0x24 PUSH0 REVERT JUMPDEST PUSH0 PUSH2 0x55F2 DUP3 PUSH2 0x47A0 JUMP JUMPDEST SWAP2 POP PUSH2 0x55FD DUP4 PUSH2 0x47A0 JUMP JUMPDEST SWAP3 POP DUP3 PUSH2 0x560D JUMPI PUSH2 0x560C PUSH2 0x5446 JUMP JUMPDEST JUMPDEST DUP3 DUP3 MOD SWAP1 POP SWAP3 SWAP2 POP POP JUMP JUMPDEST PUSH0 PUSH2 0x5622 DUP3 PUSH2 0x4526 JUMP JUMPDEST SWAP2 POP PUSH2 0x562D DUP4 PUSH2 0x4526 JUMP JUMPDEST SWAP3 POP DUP3 PUSH2 0x563D JUMPI PUSH2 0x563C PUSH2 0x5446 JUMP JUMPDEST JUMPDEST DUP3 DUP3 DIV SWAP1 POP SWAP3 SWAP2 POP POP JUMP JUMPDEST PUSH0 PUSH2 0x5652 DUP3 PUSH2 0x4D06 JUMP JUMPDEST SWAP2 POP PUSH2 0x565D DUP4 PUSH2 0x4D06 JUMP JUMPDEST SWAP3 POP DUP3 DUP3 SUB SWAP1 POP PUSH26 0xFFFFFFFFFFFFFFFFFFFFFFFFFFFFFFFFFFFFFFFFFFFFFFFFFFFF DUP2 GT ISZERO PUSH2 0x568F JUMPI PUSH2 0x568E PUSH2 0x4E1C JUMP JUMPDEST JUMPDEST SWAP3 SWAP2 POP POP JUMP JUMPDEST PUSH0 DUP2 SWAP1 POP SWAP2 SWAP1 POP JUMP JUMPDEST PUSH0 PUSH2 0x56B8 PUSH2 0x56B3 PUSH2 0x56AE DUP5 PUSH2 0x5695 JUMP JUMPDEST PUSH2 0x538A JUMP JUMPDEST PUSH2 0x47A0 JUMP JUMPDEST SWAP1 POP SWAP2 SWAP1 POP JUMP JUMPDEST PUSH2 0x56C8 DUP2 PUSH2 0x569E JUMP JUMPDEST DUP3 MSTORE POP POP JUMP JUMPDEST PUSH0 PUSH1 0x40 DUP3 ADD SWAP1 POP PUSH2 0x56E1 PUSH0 DUP4 ADD DUP6 PUSH2 0x56BF JUMP JUMPDEST PUSH2 0x56EE PUSH1 0x20 DUP4 ADD DUP5 PUSH2 0x452F JUMP JUMPDEST SWAP4 SWAP3 POP POP POP JUMP JUMPDEST PUSH0 PUSH2 0x56FF DUP3 PUSH2 0x4D06 JUMP JUMPDEST SWAP2 POP PUSH2 0x570A DUP4 PUSH2 0x4D06 JUMP JUMPDEST SWAP3 POP DUP3 DUP3 ADD SWAP1 POP PUSH26 0xFFFFFFFFFFFFFFFFFFFFFFFFFFFFFFFFFFFFFFFFFFFFFFFFFFFF DUP2 GT ISZERO PUSH2 0x573C JUMPI PUSH2 0x573B PUSH2 0x4E1C JUMP JUMPDEST JUMPDEST SWAP3 SWAP2 POP POP JUMP JUMPDEST PUSH0 PUSH1 0x60 DUP3 ADD SWAP1 POP PUSH2 0x5755 PUSH0 DUP4 ADD DUP7 PUSH2 0x4805 JUMP JUMPDEST PUSH2 0x5762 PUSH1 0x20 DUP4 ADD DUP6 PUSH2 0x4805 JUMP JUMPDEST PUSH2 0x576F PUSH1 0x40 DUP4 ADD DUP5 PUSH2 0x452F JUMP JUMPDEST SWAP5 SWAP4 POP POP POP POP JUMP JUMPDEST PUSH2 0x5780 DUP2 PUSH2 0x46F2 JUMP JUMPDEST DUP2 EQ PUSH2 0x578A JUMPI PUSH0 DUP1 REVERT JUMPDEST POP JUMP JUMPDEST PUSH0 DUP2 MLOAD SWAP1 POP PUSH2 0x579B DUP2 PUSH2 0x5777 JUMP JUMPDEST SWAP3 SWAP2 POP POP JUMP JUMPDEST PUSH0 PUSH1 0x20 DUP3 DUP5 SUB SLT ISZERO PUSH2 0x57B6 JUMPI PUSH2 0x57B5 PUSH2 0x4601 JUMP JUMPDEST JUMPDEST PUSH0 PUSH2 0x57C3 DUP5 DUP3 DUP6 ADD PUSH2 0x578D JUMP JUMPDEST SWAP2 POP POP SWAP3 SWAP2 POP POP JUMP JUMPDEST PUSH0 DUP2 MLOAD SWAP1 POP SWAP2 SWAP1 POP JUMP JUMPDEST PUSH0 DUP2 SWAP1 POP SWAP3 SWAP2 POP POP JUMP JUMPDEST PUSH0 PUSH2 0x57EA DUP3 PUSH2 0x57CC JUMP JUMPDEST PUSH2 0x57F4 DUP2 DUP6 PUSH2 0x57D6 JUMP JUMPDEST SWAP4 POP PUSH2 0x5804 DUP2 DUP6 PUSH1 0x20 DUP7 ADD PUSH2 0x4571 JUMP JUMPDEST DUP1 DUP5 ADD SWAP2 POP POP SWAP3 SWAP2 POP POP JUMP JUMPDEST PUSH0 PUSH2 0x581B DUP3 DUP5 PUSH2 0x57E0 JUMP JUMPDEST SWAP2 POP DUP2 SWAP1 POP SWAP3 SWAP2 POP POP JUMP INVALID LOG2 PUSH5 0x6970667358 0x22 SLT KECCAK256 0xCA 0xBF 0xF8 0xE7 0xD0 0x24 0xC6 0xBA LOG3 EXTCODESIZE 0xD2 SHL PUSH13 0x9EF4934760D1A20CEAFF32FACD 0xB4 CHAINID 0x27 0xC1 DUP4 RETURNDATACOPY PUSH5 0x736F6C6343 STOP ADDMOD AND STOP CALLER "
		},
		"gasEstimates": {
			"creation": {
				"codeDepositCost": "4524000",
				"executionCost": "infinite",
				"totalCost": "infinite"
			},
			"external": {
				"CLOCK_MODE()": "infinite",
				"DOMAIN_SEPARATOR()": "infinite",
				"allowance(address,address)": "infinite",
				"approve(address,uint256)": "infinite",
				"asset()": "infinite",
				"balanceOf(address)": "2941",
				"burn(uint256)": "infinite",
				"burnFrom(address,uint256)": "infinite",
				"checkpoints(address,uint32)": "infinite",
				"clock()": "724",
				"convertToAssets(uint256)": "infinite",
				"convertToShares(uint256)": "infinite",
				"decimals()": "infinite",
				"delegate(address)": "infinite",
				"delegateBySig(address,uint256,uint256,uint8,bytes32,bytes32)": "infinite",
				"delegates(address)": "infinite",
				"deposit(uint256,address)": "infinite",
				"eip712Domain()": "infinite",
				"entryFeeBasisPoints()": "2558",
				"entryFeeTreasury()": "2577",
				"exitFeeBasisPoints()": "2516",
				"exitFeeTreasury()": "2618",
				"getPastTotalSupply(uint256)": "infinite",
				"getPastVotes(address,uint256)": "infinite",
				"getVotes(address)": "infinite",
				"maxDeposit(address)": "710",
				"maxMint(address)": "731",
				"maxRedeem(address)": "2982",
				"maxWithdraw(address)": "infinite",
				"mint(uint256,address)": "infinite",
				"name()": "infinite",
				"nonces(address)": "3024",
				"numCheckpoints(address)": "3275",
				"owner()": "2628",
				"permit(address,address,uint256,uint256,uint8,bytes32,bytes32)": "infinite",
				"previewDeposit(uint256)": "infinite",
				"previewMint(uint256)": "infinite",
				"previewRedeem(uint256)": "infinite",
				"previewWithdraw(uint256)": "infinite",
				"redeem(uint256,address,address)": "infinite",
				"renounceOwnership()": "infinite",
				"setEntryFeeBasisPoints(uint256)": "infinite",
				"setEntryFeeRecipient(address)": "infinite",
				"setExitFeeBasisPoints(uint256)": "infinite",
				"setExitFeeRecipient(address)": "infinite",
				"setTransferFeeBasisPoints(uint256)": "infinite",
				"setTransferFeeRecipient(address)": "infinite",
				"symbol()": "infinite",
				"totalAssets()": "infinite",
				"totalSupply()": "2545",
				"transfer(address,uint256)": "infinite",
				"transferFeeBasisPoints()": "2560",
				"transferFeeTreasury()": "2597",
				"transferFrom(address,address,uint256)": "infinite",
				"transferOwnership(address)": "infinite",
				"withdraw(uint256,address,address)": "infinite"
			},
			"internal": {
				"_entryFeeBasisPoints()": "2122",
				"_entryFeeRecipient()": "2157",
				"_exitFeeBasisPoints()": "2122",
				"_exitFeeRecipient()": "2157",
				"_transferFeeBasisPoints()": "2122",
				"_transferFeeRecipient()": "2157",
				"afterDeposit(uint256,uint256)": "13",
				"beforeWithdraw(uint256,uint256)": "13"
			}
		},
		"methodIdentifiers": {
			"CLOCK_MODE()": "4bf5d7e9",
			"DOMAIN_SEPARATOR()": "3644e515",
			"allowance(address,address)": "dd62ed3e",
			"approve(address,uint256)": "095ea7b3",
			"asset()": "38d52e0f",
			"balanceOf(address)": "70a08231",
			"burn(uint256)": "42966c68",
			"burnFrom(address,uint256)": "79cc6790",
			"checkpoints(address,uint32)": "f1127ed8",
			"clock()": "91ddadf4",
			"convertToAssets(uint256)": "07a2d13a",
			"convertToShares(uint256)": "c6e6f592",
			"decimals()": "313ce567",
			"delegate(address)": "5c19a95c",
			"delegateBySig(address,uint256,uint256,uint8,bytes32,bytes32)": "c3cda520",
			"delegates(address)": "587cde1e",
			"deposit(uint256,address)": "6e553f65",
			"eip712Domain()": "84b0196e",
			"entryFeeBasisPoints()": "ba0af7a9",
			"entryFeeTreasury()": "861d4281",
			"exitFeeBasisPoints()": "86915573",
			"exitFeeTreasury()": "f8b4638b",
			"getPastTotalSupply(uint256)": "8e539e8c",
			"getPastVotes(address,uint256)": "3a46b1a8",
			"getVotes(address)": "9ab24eb0",
			"maxDeposit(address)": "402d267d",
			"maxMint(address)": "c63d75b6",
			"maxRedeem(address)": "d905777e",
			"maxWithdraw(address)": "ce96cb77",
			"mint(uint256,address)": "94bf804d",
			"name()": "06fdde03",
			"nonces(address)": "7ecebe00",
			"numCheckpoints(address)": "6fcfff45",
			"owner()": "8da5cb5b",
			"permit(address,address,uint256,uint256,uint8,bytes32,bytes32)": "d505accf",
			"previewDeposit(uint256)": "ef8b30f7",
			"previewMint(uint256)": "b3d7f6b9",
			"previewRedeem(uint256)": "4cdad506",
			"previewWithdraw(uint256)": "0a28a477",
			"redeem(uint256,address,address)": "ba087652",
			"renounceOwnership()": "715018a6",
			"setEntryFeeBasisPoints(uint256)": "21c111d6",
			"setEntryFeeRecipient(address)": "1fc6456b",
			"setExitFeeBasisPoints(uint256)": "5b63b05c",
			"setExitFeeRecipient(address)": "f9f97c98",
			"setTransferFeeBasisPoints(uint256)": "da403903",
			"setTransferFeeRecipient(address)": "ac4dcb76",
			"symbol()": "95d89b41",
			"totalAssets()": "01e1d114",
			"totalSupply()": "18160ddd",
			"transfer(address,uint256)": "a9059cbb",
			"transferFeeBasisPoints()": "183767da",
			"transferFeeTreasury()": "e0f0bd9b",
			"transferFrom(address,address,uint256)": "23b872dd",
			"transferOwnership(address)": "f2fde38b",
			"withdraw(uint256,address,address)": "b460af94"
		}
	},
	"abi": [
		{
			"inputs": [
				{
					"internalType": "contract IERC20",
					"name": "_asset",
					"type": "address"
				},
				{
					"internalType": "address",
					"name": "treasuryAddress",
					"type": "address"
				}
			],
			"stateMutability": "nonpayable",
			"type": "constructor"
		},
		{
			"inputs": [
				{
					"internalType": "address",
					"name": "target",
					"type": "address"
				}
			],
			"name": "AddressEmptyCode",
			"type": "error"
		},
		{
			"inputs": [
				{
					"internalType": "address",
					"name": "account",
					"type": "address"
				}
			],
			"name": "AddressInsufficientBalance",
			"type": "error"
		},
		{
			"inputs": [],
			"name": "CheckpointUnorderedInsertion",
			"type": "error"
		},
		{
			"inputs": [],
			"name": "ECDSAInvalidSignature",
			"type": "error"
		},
		{
			"inputs": [
				{
					"internalType": "uint256",
					"name": "length",
					"type": "uint256"
				}
			],
			"name": "ECDSAInvalidSignatureLength",
			"type": "error"
		},
		{
			"inputs": [
				{
					"internalType": "bytes32",
					"name": "s",
					"type": "bytes32"
				}
			],
			"name": "ECDSAInvalidSignatureS",
			"type": "error"
		},
		{
			"inputs": [
				{
					"internalType": "uint256",
					"name": "increasedSupply",
					"type": "uint256"
				},
				{
					"internalType": "uint256",
					"name": "cap",
					"type": "uint256"
				}
			],
			"name": "ERC20ExceededSafeSupply",
			"type": "error"
		},
		{
			"inputs": [
				{
					"internalType": "address",
					"name": "spender",
					"type": "address"
				},
				{
					"internalType": "uint256",
					"name": "allowance",
					"type": "uint256"
				},
				{
					"internalType": "uint256",
					"name": "needed",
					"type": "uint256"
				}
			],
			"name": "ERC20InsufficientAllowance",
			"type": "error"
		},
		{
			"inputs": [
				{
					"internalType": "address",
					"name": "sender",
					"type": "address"
				},
				{
					"internalType": "uint256",
					"name": "balance",
					"type": "uint256"
				},
				{
					"internalType": "uint256",
					"name": "needed",
					"type": "uint256"
				}
			],
			"name": "ERC20InsufficientBalance",
			"type": "error"
		},
		{
			"inputs": [
				{
					"internalType": "address",
					"name": "approver",
					"type": "address"
				}
			],
			"name": "ERC20InvalidApprover",
			"type": "error"
		},
		{
			"inputs": [
				{
					"internalType": "address",
					"name": "receiver",
					"type": "address"
				}
			],
			"name": "ERC20InvalidReceiver",
			"type": "error"
		},
		{
			"inputs": [
				{
					"internalType": "address",
					"name": "sender",
					"type": "address"
				}
			],
			"name": "ERC20InvalidSender",
			"type": "error"
		},
		{
			"inputs": [
				{
					"internalType": "address",
					"name": "spender",
					"type": "address"
				}
			],
			"name": "ERC20InvalidSpender",
			"type": "error"
		},
		{
			"inputs": [
				{
					"internalType": "uint256",
					"name": "deadline",
					"type": "uint256"
				}
			],
			"name": "ERC2612ExpiredSignature",
			"type": "error"
		},
		{
			"inputs": [
				{
					"internalType": "address",
					"name": "signer",
					"type": "address"
				},
				{
					"internalType": "address",
					"name": "owner",
					"type": "address"
				}
			],
			"name": "ERC2612InvalidSigner",
			"type": "error"
		},
		{
			"inputs": [
				{
					"internalType": "address",
					"name": "receiver",
					"type": "address"
				},
				{
					"internalType": "uint256",
					"name": "assets",
					"type": "uint256"
				},
				{
					"internalType": "uint256",
					"name": "max",
					"type": "uint256"
				}
			],
			"name": "ERC4626ExceededMaxDeposit",
			"type": "error"
		},
		{
			"inputs": [
				{
					"internalType": "address",
					"name": "receiver",
					"type": "address"
				},
				{
					"internalType": "uint256",
					"name": "shares",
					"type": "uint256"
				},
				{
					"internalType": "uint256",
					"name": "max",
					"type": "uint256"
				}
			],
			"name": "ERC4626ExceededMaxMint",
			"type": "error"
		},
		{
			"inputs": [
				{
					"internalType": "address",
					"name": "owner",
					"type": "address"
				},
				{
					"internalType": "uint256",
					"name": "shares",
					"type": "uint256"
				},
				{
					"internalType": "uint256",
					"name": "max",
					"type": "uint256"
				}
			],
			"name": "ERC4626ExceededMaxRedeem",
			"type": "error"
		},
		{
			"inputs": [
				{
					"internalType": "address",
					"name": "owner",
					"type": "address"
				},
				{
					"internalType": "uint256",
					"name": "assets",
					"type": "uint256"
				},
				{
					"internalType": "uint256",
					"name": "max",
					"type": "uint256"
				}
			],
			"name": "ERC4626ExceededMaxWithdraw",
			"type": "error"
		},
		{
			"inputs": [
				{
					"internalType": "uint256",
					"name": "timepoint",
					"type": "uint256"
				},
				{
					"internalType": "uint48",
					"name": "clock",
					"type": "uint48"
				}
			],
			"name": "ERC5805FutureLookup",
			"type": "error"
		},
		{
			"inputs": [],
			"name": "ERC6372InconsistentClock",
			"type": "error"
		},
		{
			"inputs": [],
			"name": "FailedInnerCall",
			"type": "error"
		},
		{
			"inputs": [
				{
					"internalType": "address",
					"name": "account",
					"type": "address"
				},
				{
					"internalType": "uint256",
					"name": "currentNonce",
					"type": "uint256"
				}
			],
			"name": "InvalidAccountNonce",
			"type": "error"
		},
		{
			"inputs": [],
			"name": "InvalidShortString",
			"type": "error"
		},
		{
			"inputs": [],
			"name": "MathOverflowedMulDiv",
			"type": "error"
		},
		{
			"inputs": [
				{
					"internalType": "address",
					"name": "owner",
					"type": "address"
				}
			],
			"name": "OwnableInvalidOwner",
			"type": "error"
		},
		{
			"inputs": [
				{
					"internalType": "address",
					"name": "account",
					"type": "address"
				}
			],
			"name": "OwnableUnauthorizedAccount",
			"type": "error"
		},
		{
			"inputs": [
				{
					"internalType": "uint8",
					"name": "bits",
					"type": "uint8"
				},
				{
					"internalType": "uint256",
					"name": "value",
					"type": "uint256"
				}
			],
			"name": "SafeCastOverflowedUintDowncast",
			"type": "error"
		},
		{
			"inputs": [
				{
					"internalType": "address",
					"name": "token",
					"type": "address"
				}
			],
			"name": "SafeERC20FailedOperation",
			"type": "error"
		},
		{
			"inputs": [
				{
					"internalType": "string",
					"name": "str",
					"type": "string"
				}
			],
			"name": "StringTooLong",
			"type": "error"
		},
		{
			"inputs": [
				{
					"internalType": "uint256",
					"name": "expiry",
					"type": "uint256"
				}
			],
			"name": "VotesExpiredSignature",
			"type": "error"
		},
		{
			"anonymous": false,
			"inputs": [
				{
					"indexed": true,
					"internalType": "address",
					"name": "owner",
					"type": "address"
				},
				{
					"indexed": true,
					"internalType": "address",
					"name": "spender",
					"type": "address"
				},
				{
					"indexed": false,
					"internalType": "uint256",
					"name": "value",
					"type": "uint256"
				}
			],
			"name": "Approval",
			"type": "event"
		},
		{
			"anonymous": false,
			"inputs": [
				{
					"indexed": true,
					"internalType": "address",
					"name": "delegator",
					"type": "address"
				},
				{
					"indexed": true,
					"internalType": "address",
					"name": "fromDelegate",
					"type": "address"
				},
				{
					"indexed": true,
					"internalType": "address",
					"name": "toDelegate",
					"type": "address"
				}
			],
			"name": "DelegateChanged",
			"type": "event"
		},
		{
			"anonymous": false,
			"inputs": [
				{
					"indexed": true,
					"internalType": "address",
					"name": "delegate",
					"type": "address"
				},
				{
					"indexed": false,
					"internalType": "uint256",
					"name": "previousVotes",
					"type": "uint256"
				},
				{
					"indexed": false,
					"internalType": "uint256",
					"name": "newVotes",
					"type": "uint256"
				}
			],
			"name": "DelegateVotesChanged",
			"type": "event"
		},
		{
			"anonymous": false,
			"inputs": [
				{
					"indexed": true,
					"internalType": "address",
					"name": "sender",
					"type": "address"
				},
				{
					"indexed": true,
					"internalType": "address",
					"name": "owner",
					"type": "address"
				},
				{
					"indexed": false,
					"internalType": "uint256",
					"name": "assets",
					"type": "uint256"
				},
				{
					"indexed": false,
					"internalType": "uint256",
					"name": "shares",
					"type": "uint256"
				}
			],
			"name": "Deposit",
			"type": "event"
		},
		{
			"anonymous": false,
			"inputs": [],
			"name": "EIP712DomainChanged",
			"type": "event"
		},
		{
			"anonymous": false,
			"inputs": [
				{
					"indexed": true,
					"internalType": "address",
					"name": "previousOwner",
					"type": "address"
				},
				{
					"indexed": true,
					"internalType": "address",
					"name": "newOwner",
					"type": "address"
				}
			],
			"name": "OwnershipTransferred",
			"type": "event"
		},
		{
			"anonymous": false,
			"inputs": [
				{
					"indexed": true,
					"internalType": "address",
					"name": "from",
					"type": "address"
				},
				{
					"indexed": true,
					"internalType": "address",
					"name": "to",
					"type": "address"
				},
				{
					"indexed": false,
					"internalType": "uint256",
					"name": "value",
					"type": "uint256"
				}
			],
			"name": "Transfer",
			"type": "event"
		},
		{
			"anonymous": false,
			"inputs": [
				{
					"indexed": true,
					"internalType": "address",
					"name": "sender",
					"type": "address"
				},
				{
					"indexed": true,
					"internalType": "address",
					"name": "receiver",
					"type": "address"
				},
				{
					"indexed": true,
					"internalType": "address",
					"name": "owner",
					"type": "address"
				},
				{
					"indexed": false,
					"internalType": "uint256",
					"name": "assets",
					"type": "uint256"
				},
				{
					"indexed": false,
					"internalType": "uint256",
					"name": "shares",
					"type": "uint256"
				}
			],
			"name": "Withdraw",
			"type": "event"
		},
		{
			"inputs": [],
			"name": "CLOCK_MODE",
			"outputs": [
				{
					"internalType": "string",
					"name": "",
					"type": "string"
				}
			],
			"stateMutability": "view",
			"type": "function"
		},
		{
			"inputs": [],
			"name": "DOMAIN_SEPARATOR",
			"outputs": [
				{
					"internalType": "bytes32",
					"name": "",
					"type": "bytes32"
				}
			],
			"stateMutability": "view",
			"type": "function"
		},
		{
			"inputs": [
				{
					"internalType": "address",
					"name": "owner",
					"type": "address"
				},
				{
					"internalType": "address",
					"name": "spender",
					"type": "address"
				}
			],
			"name": "allowance",
			"outputs": [
				{
					"internalType": "uint256",
					"name": "",
					"type": "uint256"
				}
			],
			"stateMutability": "view",
			"type": "function"
		},
		{
			"inputs": [
				{
					"internalType": "address",
					"name": "spender",
					"type": "address"
				},
				{
					"internalType": "uint256",
					"name": "value",
					"type": "uint256"
				}
			],
			"name": "approve",
			"outputs": [
				{
					"internalType": "bool",
					"name": "",
					"type": "bool"
				}
			],
			"stateMutability": "nonpayable",
			"type": "function"
		},
		{
			"inputs": [],
			"name": "asset",
			"outputs": [
				{
					"internalType": "address",
					"name": "",
					"type": "address"
				}
			],
			"stateMutability": "view",
			"type": "function"
		},
		{
			"inputs": [
				{
					"internalType": "address",
					"name": "account",
					"type": "address"
				}
			],
			"name": "balanceOf",
			"outputs": [
				{
					"internalType": "uint256",
					"name": "",
					"type": "uint256"
				}
			],
			"stateMutability": "view",
			"type": "function"
		},
		{
			"inputs": [
				{
					"internalType": "uint256",
					"name": "value",
					"type": "uint256"
				}
			],
			"name": "burn",
			"outputs": [],
			"stateMutability": "nonpayable",
			"type": "function"
		},
		{
			"inputs": [
				{
					"internalType": "address",
					"name": "account",
					"type": "address"
				},
				{
					"internalType": "uint256",
					"name": "value",
					"type": "uint256"
				}
			],
			"name": "burnFrom",
			"outputs": [],
			"stateMutability": "nonpayable",
			"type": "function"
		},
		{
			"inputs": [
				{
					"internalType": "address",
					"name": "account",
					"type": "address"
				},
				{
					"internalType": "uint32",
					"name": "pos",
					"type": "uint32"
				}
			],
			"name": "checkpoints",
			"outputs": [
				{
					"components": [
						{
							"internalType": "uint48",
							"name": "_key",
							"type": "uint48"
						},
						{
							"internalType": "uint208",
							"name": "_value",
							"type": "uint208"
						}
					],
					"internalType": "struct Checkpoints.Checkpoint208",
					"name": "",
					"type": "tuple"
				}
			],
			"stateMutability": "view",
			"type": "function"
		},
		{
			"inputs": [],
			"name": "clock",
			"outputs": [
				{
					"internalType": "uint48",
					"name": "",
					"type": "uint48"
				}
			],
			"stateMutability": "view",
			"type": "function"
		},
		{
			"inputs": [
				{
					"internalType": "uint256",
					"name": "shares",
					"type": "uint256"
				}
			],
			"name": "convertToAssets",
			"outputs": [
				{
					"internalType": "uint256",
					"name": "",
					"type": "uint256"
				}
			],
			"stateMutability": "view",
			"type": "function"
		},
		{
			"inputs": [
				{
					"internalType": "uint256",
					"name": "assets",
					"type": "uint256"
				}
			],
			"name": "convertToShares",
			"outputs": [
				{
					"internalType": "uint256",
					"name": "",
					"type": "uint256"
				}
			],
			"stateMutability": "view",
			"type": "function"
		},
		{
			"inputs": [],
			"name": "decimals",
			"outputs": [
				{
					"internalType": "uint8",
					"name": "",
					"type": "uint8"
				}
			],
			"stateMutability": "view",
			"type": "function"
		},
		{
			"inputs": [
				{
					"internalType": "address",
					"name": "delegatee",
					"type": "address"
				}
			],
			"name": "delegate",
			"outputs": [],
			"stateMutability": "nonpayable",
			"type": "function"
		},
		{
			"inputs": [
				{
					"internalType": "address",
					"name": "delegatee",
					"type": "address"
				},
				{
					"internalType": "uint256",
					"name": "nonce",
					"type": "uint256"
				},
				{
					"internalType": "uint256",
					"name": "expiry",
					"type": "uint256"
				},
				{
					"internalType": "uint8",
					"name": "v",
					"type": "uint8"
				},
				{
					"internalType": "bytes32",
					"name": "r",
					"type": "bytes32"
				},
				{
					"internalType": "bytes32",
					"name": "s",
					"type": "bytes32"
				}
			],
			"name": "delegateBySig",
			"outputs": [],
			"stateMutability": "nonpayable",
			"type": "function"
		},
		{
			"inputs": [
				{
					"internalType": "address",
					"name": "account",
					"type": "address"
				}
			],
			"name": "delegates",
			"outputs": [
				{
					"internalType": "address",
					"name": "",
					"type": "address"
				}
			],
			"stateMutability": "view",
			"type": "function"
		},
		{
			"inputs": [
				{
					"internalType": "uint256",
					"name": "assets",
					"type": "uint256"
				},
				{
					"internalType": "address",
					"name": "receiver",
					"type": "address"
				}
			],
			"name": "deposit",
			"outputs": [
				{
					"internalType": "uint256",
					"name": "",
					"type": "uint256"
				}
			],
			"stateMutability": "nonpayable",
			"type": "function"
		},
		{
			"inputs": [],
			"name": "eip712Domain",
			"outputs": [
				{
					"internalType": "bytes1",
					"name": "fields",
					"type": "bytes1"
				},
				{
					"internalType": "string",
					"name": "name",
					"type": "string"
				},
				{
					"internalType": "string",
					"name": "version",
					"type": "string"
				},
				{
					"internalType": "uint256",
					"name": "chainId",
					"type": "uint256"
				},
				{
					"internalType": "address",
					"name": "verifyingContract",
					"type": "address"
				},
				{
					"internalType": "bytes32",
					"name": "salt",
					"type": "bytes32"
				},
				{
					"internalType": "uint256[]",
					"name": "extensions",
					"type": "uint256[]"
				}
			],
			"stateMutability": "view",
			"type": "function"
		},
		{
			"inputs": [],
			"name": "entryFeeBasisPoints",
			"outputs": [
				{
					"internalType": "uint256",
					"name": "",
					"type": "uint256"
				}
			],
			"stateMutability": "view",
			"type": "function"
		},
		{
			"inputs": [],
			"name": "entryFeeTreasury",
			"outputs": [
				{
					"internalType": "address payable",
					"name": "",
					"type": "address"
				}
			],
			"stateMutability": "view",
			"type": "function"
		},
		{
			"inputs": [],
			"name": "exitFeeBasisPoints",
			"outputs": [
				{
					"internalType": "uint256",
					"name": "",
					"type": "uint256"
				}
			],
			"stateMutability": "view",
			"type": "function"
		},
		{
			"inputs": [],
			"name": "exitFeeTreasury",
			"outputs": [
				{
					"internalType": "address payable",
					"name": "",
					"type": "address"
				}
			],
			"stateMutability": "view",
			"type": "function"
		},
		{
			"inputs": [
				{
					"internalType": "uint256",
					"name": "timepoint",
					"type": "uint256"
				}
			],
			"name": "getPastTotalSupply",
			"outputs": [
				{
					"internalType": "uint256",
					"name": "",
					"type": "uint256"
				}
			],
			"stateMutability": "view",
			"type": "function"
		},
		{
			"inputs": [
				{
					"internalType": "address",
					"name": "account",
					"type": "address"
				},
				{
					"internalType": "uint256",
					"name": "timepoint",
					"type": "uint256"
				}
			],
			"name": "getPastVotes",
			"outputs": [
				{
					"internalType": "uint256",
					"name": "",
					"type": "uint256"
				}
			],
			"stateMutability": "view",
			"type": "function"
		},
		{
			"inputs": [
				{
					"internalType": "address",
					"name": "account",
					"type": "address"
				}
			],
			"name": "getVotes",
			"outputs": [
				{
					"internalType": "uint256",
					"name": "",
					"type": "uint256"
				}
			],
			"stateMutability": "view",
			"type": "function"
		},
		{
			"inputs": [
				{
					"internalType": "address",
					"name": "",
					"type": "address"
				}
			],
			"name": "maxDeposit",
			"outputs": [
				{
					"internalType": "uint256",
					"name": "",
					"type": "uint256"
				}
			],
			"stateMutability": "view",
			"type": "function"
		},
		{
			"inputs": [
				{
					"internalType": "address",
					"name": "",
					"type": "address"
				}
			],
			"name": "maxMint",
			"outputs": [
				{
					"internalType": "uint256",
					"name": "",
					"type": "uint256"
				}
			],
			"stateMutability": "view",
			"type": "function"
		},
		{
			"inputs": [
				{
					"internalType": "address",
					"name": "owner",
					"type": "address"
				}
			],
			"name": "maxRedeem",
			"outputs": [
				{
					"internalType": "uint256",
					"name": "",
					"type": "uint256"
				}
			],
			"stateMutability": "view",
			"type": "function"
		},
		{
			"inputs": [
				{
					"internalType": "address",
					"name": "owner",
					"type": "address"
				}
			],
			"name": "maxWithdraw",
			"outputs": [
				{
					"internalType": "uint256",
					"name": "",
					"type": "uint256"
				}
			],
			"stateMutability": "view",
			"type": "function"
		},
		{
			"inputs": [
				{
					"internalType": "uint256",
					"name": "shares",
					"type": "uint256"
				},
				{
					"internalType": "address",
					"name": "receiver",
					"type": "address"
				}
			],
			"name": "mint",
			"outputs": [
				{
					"internalType": "uint256",
					"name": "",
					"type": "uint256"
				}
			],
			"stateMutability": "nonpayable",
			"type": "function"
		},
		{
			"inputs": [],
			"name": "name",
			"outputs": [
				{
					"internalType": "string",
					"name": "",
					"type": "string"
				}
			],
			"stateMutability": "view",
			"type": "function"
		},
		{
			"inputs": [
				{
					"internalType": "address",
					"name": "owner",
					"type": "address"
				}
			],
			"name": "nonces",
			"outputs": [
				{
					"internalType": "uint256",
					"name": "",
					"type": "uint256"
				}
			],
			"stateMutability": "view",
			"type": "function"
		},
		{
			"inputs": [
				{
					"internalType": "address",
					"name": "account",
					"type": "address"
				}
			],
			"name": "numCheckpoints",
			"outputs": [
				{
					"internalType": "uint32",
					"name": "",
					"type": "uint32"
				}
			],
			"stateMutability": "view",
			"type": "function"
		},
		{
			"inputs": [],
			"name": "owner",
			"outputs": [
				{
					"internalType": "address",
					"name": "",
					"type": "address"
				}
			],
			"stateMutability": "view",
			"type": "function"
		},
		{
			"inputs": [
				{
					"internalType": "address",
					"name": "owner",
					"type": "address"
				},
				{
					"internalType": "address",
					"name": "spender",
					"type": "address"
				},
				{
					"internalType": "uint256",
					"name": "value",
					"type": "uint256"
				},
				{
					"internalType": "uint256",
					"name": "deadline",
					"type": "uint256"
				},
				{
					"internalType": "uint8",
					"name": "v",
					"type": "uint8"
				},
				{
					"internalType": "bytes32",
					"name": "r",
					"type": "bytes32"
				},
				{
					"internalType": "bytes32",
					"name": "s",
					"type": "bytes32"
				}
			],
			"name": "permit",
			"outputs": [],
			"stateMutability": "nonpayable",
			"type": "function"
		},
		{
			"inputs": [
				{
					"internalType": "uint256",
					"name": "assets",
					"type": "uint256"
				}
			],
			"name": "previewDeposit",
			"outputs": [
				{
					"internalType": "uint256",
					"name": "",
					"type": "uint256"
				}
			],
			"stateMutability": "view",
			"type": "function"
		},
		{
			"inputs": [
				{
					"internalType": "uint256",
					"name": "shares",
					"type": "uint256"
				}
			],
			"name": "previewMint",
			"outputs": [
				{
					"internalType": "uint256",
					"name": "",
					"type": "uint256"
				}
			],
			"stateMutability": "view",
			"type": "function"
		},
		{
			"inputs": [
				{
					"internalType": "uint256",
					"name": "shares",
					"type": "uint256"
				}
			],
			"name": "previewRedeem",
			"outputs": [
				{
					"internalType": "uint256",
					"name": "",
					"type": "uint256"
				}
			],
			"stateMutability": "view",
			"type": "function"
		},
		{
			"inputs": [
				{
					"internalType": "uint256",
					"name": "assets",
					"type": "uint256"
				}
			],
			"name": "previewWithdraw",
			"outputs": [
				{
					"internalType": "uint256",
					"name": "",
					"type": "uint256"
				}
			],
			"stateMutability": "view",
			"type": "function"
		},
		{
			"inputs": [
				{
					"internalType": "uint256",
					"name": "shares",
					"type": "uint256"
				},
				{
					"internalType": "address",
					"name": "receiver",
					"type": "address"
				},
				{
					"internalType": "address",
					"name": "owner",
					"type": "address"
				}
			],
			"name": "redeem",
			"outputs": [
				{
					"internalType": "uint256",
					"name": "",
					"type": "uint256"
				}
			],
			"stateMutability": "nonpayable",
			"type": "function"
		},
		{
			"inputs": [],
			"name": "renounceOwnership",
			"outputs": [],
			"stateMutability": "nonpayable",
			"type": "function"
		},
		{
			"inputs": [
				{
					"internalType": "uint256",
					"name": "_newEntryFeeBasisPoints",
					"type": "uint256"
				}
			],
			"name": "setEntryFeeBasisPoints",
			"outputs": [],
			"stateMutability": "nonpayable",
			"type": "function"
		},
		{
			"inputs": [
				{
					"internalType": "address",
					"name": "entryFeeRecipient",
					"type": "address"
				}
			],
			"name": "setEntryFeeRecipient",
			"outputs": [],
			"stateMutability": "nonpayable",
			"type": "function"
		},
		{
			"inputs": [
				{
					"internalType": "uint256",
					"name": "_newExitFeeBasisPoints",
					"type": "uint256"
				}
			],
			"name": "setExitFeeBasisPoints",
			"outputs": [],
			"stateMutability": "nonpayable",
			"type": "function"
		},
		{
			"inputs": [
				{
					"internalType": "address",
					"name": "exitFeeRecipient",
					"type": "address"
				}
			],
			"name": "setExitFeeRecipient",
			"outputs": [],
			"stateMutability": "nonpayable",
			"type": "function"
		},
		{
			"inputs": [
				{
					"internalType": "uint256",
					"name": "_newTransferFeeBasisPoints",
					"type": "uint256"
				}
			],
			"name": "setTransferFeeBasisPoints",
			"outputs": [],
			"stateMutability": "nonpayable",
			"type": "function"
		},
		{
			"inputs": [
				{
					"internalType": "address",
					"name": "transferFeeRecipient",
					"type": "address"
				}
			],
			"name": "setTransferFeeRecipient",
			"outputs": [],
			"stateMutability": "nonpayable",
			"type": "function"
		},
		{
			"inputs": [],
			"name": "symbol",
			"outputs": [
				{
					"internalType": "string",
					"name": "",
					"type": "string"
				}
			],
			"stateMutability": "view",
			"type": "function"
		},
		{
			"inputs": [],
			"name": "totalAssets",
			"outputs": [
				{
					"internalType": "uint256",
					"name": "",
					"type": "uint256"
				}
			],
			"stateMutability": "view",
			"type": "function"
		},
		{
			"inputs": [],
			"name": "totalSupply",
			"outputs": [
				{
					"internalType": "uint256",
					"name": "",
					"type": "uint256"
				}
			],
			"stateMutability": "view",
			"type": "function"
		},
		{
			"inputs": [
				{
					"internalType": "address",
					"name": "to",
					"type": "address"
				},
				{
					"internalType": "uint256",
					"name": "value",
					"type": "uint256"
				}
			],
			"name": "transfer",
			"outputs": [
				{
					"internalType": "bool",
					"name": "",
					"type": "bool"
				}
			],
			"stateMutability": "nonpayable",
			"type": "function"
		},
		{
			"inputs": [],
			"name": "transferFeeBasisPoints",
			"outputs": [
				{
					"internalType": "uint256",
					"name": "",
					"type": "uint256"
				}
			],
			"stateMutability": "view",
			"type": "function"
		},
		{
			"inputs": [],
			"name": "transferFeeTreasury",
			"outputs": [
				{
					"internalType": "address payable",
					"name": "",
					"type": "address"
				}
			],
			"stateMutability": "view",
			"type": "function"
		},
		{
			"inputs": [
				{
					"internalType": "address",
					"name": "from",
					"type": "address"
				},
				{
					"internalType": "address",
					"name": "to",
					"type": "address"
				},
				{
					"internalType": "uint256",
					"name": "value",
					"type": "uint256"
				}
			],
			"name": "transferFrom",
			"outputs": [
				{
					"internalType": "bool",
					"name": "",
					"type": "bool"
				}
			],
			"stateMutability": "nonpayable",
			"type": "function"
		},
		{
			"inputs": [
				{
					"internalType": "address",
					"name": "newOwner",
					"type": "address"
				}
			],
			"name": "transferOwnership",
			"outputs": [],
			"stateMutability": "nonpayable",
			"type": "function"
		},
		{
			"inputs": [
				{
					"internalType": "uint256",
					"name": "assets",
					"type": "uint256"
				},
				{
					"internalType": "address",
					"name": "receiver",
					"type": "address"
				},
				{
					"internalType": "address",
					"name": "owner",
					"type": "address"
				}
			],
			"name": "withdraw",
			"outputs": [
				{
					"internalType": "uint256",
					"name": "",
					"type": "uint256"
				}
			],
			"stateMutability": "nonpayable",
			"type": "function"
		}
	]
}